Component: ARM Compiler 6.15 Tool: armlink [5dd79300]

==============================================================================

Section Cross References

    main.o(.text.main) refers to drv_sysclk.o(.text.CLOCK_BootToHSE96MHz) for CLOCK_BootToHSE96MHz
    main.o(.text.main) refers to drv_systick.o(.text.Drv_SysTick_Config) for Drv_SysTick_Config
    main.o(.text.main) refers to hal_rcc.o(.text.RCC_EnableAHB2Periphs) for RCC_EnableAHB2Periphs
    main.o(.text.main) refers to tusb.o(.text.tusb_init) for tusb_init
    main.o(.text.main) refers to drv_usb.o(.text.cdc_task) for cdc_task
    main.o(.ARM.exidx.text.main) refers to main.o(.text.main) for [Anonymous Symbol]
    tusb.o(.text.tusb_init) refers to usbd.o(.text.tud_init) for tud_init
    tusb.o(.ARM.exidx.text.tusb_init) refers to tusb.o(.text.tusb_init) for [Anonymous Symbol]
    tusb.o(.text.tusb_inited) refers to usbd.o(.text.tud_inited) for tud_inited
    tusb.o(.ARM.exidx.text.tusb_inited) refers to tusb.o(.text.tusb_inited) for [Anonymous Symbol]
    tusb_fifo.o(.ARM.exidx.text.tu_fifo_config) refers to tusb_fifo.o(.text.tu_fifo_config) for [Anonymous Symbol]
    tusb_fifo.o(.text.tu_fifo_count) refers to tusb_fifo.o(.text._tu_fifo_count) for _tu_fifo_count
    tusb_fifo.o(.ARM.exidx.text.tu_fifo_count) refers to tusb_fifo.o(.text.tu_fifo_count) for [Anonymous Symbol]
    tusb_fifo.o(.ARM.exidx.text._tu_fifo_count) refers to tusb_fifo.o(.text._tu_fifo_count) for [Anonymous Symbol]
    tusb_fifo.o(.text.tu_fifo_empty) refers to tusb_fifo.o(.text._tu_fifo_empty) for _tu_fifo_empty
    tusb_fifo.o(.ARM.exidx.text.tu_fifo_empty) refers to tusb_fifo.o(.text.tu_fifo_empty) for [Anonymous Symbol]
    tusb_fifo.o(.ARM.exidx.text._tu_fifo_empty) refers to tusb_fifo.o(.text._tu_fifo_empty) for [Anonymous Symbol]
    tusb_fifo.o(.text.tu_fifo_full) refers to tusb_fifo.o(.text._tu_fifo_full) for _tu_fifo_full
==============================================================================

Removing Unused input sections from the image.

    Removing main.o(.text), (0 bytes).
    Removing main.o(.ARM.exidx.text.main), (8 bytes).
    Removing main.o(.ARM.use_no_argv), (4 bytes).
    Removing tusb.o(.text), (0 bytes).
    Removing tusb.o(.ARM.exidx.text.tusb_init), (8 bytes).
    Removing tusb.o(.ARM.exidx.text.tusb_inited), (8 bytes).
    Removing tusb_fifo.o(.text), (0 bytes).
    Removing tusb_fifo.o(.ARM.exidx.text.tu_fifo_config), (8 bytes).
    Removing tusb_fifo.o(.ARM.exidx.text.tu_fifo_count), (8 bytes).
    Removing tusb_fifo.o(.ARM.exidx.text._tu_fifo_count), (8 bytes).
    Removing tusb_fifo.o(.ARM.exidx.text.tu_fifo_empty), (8 bytes).
    Removing tusb_fifo.o(.ARM.exidx.text._tu_fifo_empty), (8 bytes).
    Removing tusb_fifo.o(.text.tu_fifo_full), (12 bytes).
    Removing tusb_fifo.o(.ARM.exidx.text.tu_fifo_full), (8 bytes).
    Removing tusb_fifo.o(.ARM.exidx.text._tu_fifo_full), (8 bytes).
    Removing tusb_fifo.o(.ARM.exidx.text.tu_fifo_remaining), (8 bytes).
    Removing tusb_fifo.o(.ARM.exidx.text._tu_fifo_remaining), (8 bytes).
    Removing tusb_fifo.o(.text.tu_fifo_overflowed), (12 bytes).
==============================================================================

Image Symbol Table

    Local Symbols

    Symbol Name                              Value     Ov Type        Size  Object(Section)

    ../4_MM32F327x/mdk/startup_mm32f3277g.s  0x00000000   Number         0  startup_mm32f3277g.o ABSOLUTE
    ../clib/angel/boardlib.s                 0x00000000   Number         0  boardinit1.o ABSOLUTE
    ../clib/angel/boardlib.s                 0x00000000   Number         0  boardinit2.o ABSOLUTE
    ../clib/angel/boardlib.s                 0x00000000   Number         0  boardinit3.o ABSOLUTE
    ../clib/angel/boardlib.s                 0x00000000   Number         0  boardshut.o ABSOLUTE
    ../clib/angel/handlers.s                 0x00000000   Number         0  __scatter_copy.o ABSOLUTE
    ../clib/angel/handlers.s                 0x00000000   Number         0  __scatter_zi.o ABSOLUTE
    ../clib/angel/kernel.s                   0x00000000   Number         0  __rtentry.o ABSOLUTE
    ../clib/angel/kernel.s                   0x00000000   Number         0  __rtentry2.o ABSOLUTE
    ../clib/angel/kernel.s                   0x00000000   Number         0  __rtentry4.o ABSOLUTE
    ../clib/angel/kernel.s                   0x00000000   Number         0  __rtentry7.o ABSOLUTE
    ../clib/angel/kernel.s                   0x00000000   Number         0  rtexit.o ABSOLUTE
    ../clib/angel/kernel.s                   0x00000000   Number         0  rtexit2.o ABSOLUTE
    ../clib/angel/rt.s                       0x00000000   Number         0  rt_raise.o ABSOLUTE
    ../clib/angel/scatter.s                  0x00000000   Number         0  __scatter.o ABSOLUTE
    ../clib/angel/startup.s                  0x00000000   Number         0  __main.o ABSOLUTE
    ../clib/angel/sys.s                      0x00000000   Number         0  sys_stackheap_outer.o ABSOLUTE
    ../clib/angel/sys.s                      0x00000000   Number         0  libspace.o ABSOLUTE
    ../clib/angel/sys.s                      0x00000000   Number         0  sys_stackheap.o ABSOLUTE
    ../clib/angel/sys.s                      0x00000000   Number         0  sys_stackheap_hlt.o ABSOLUTE
    ../clib/angel/sys.s                      0x00000000   Number         0  use_no_semi.o ABSOLUTE
    ../clib/angel/sys.s                      0x00000000   Number         0  indicate_semi.o ABSOLUTE
    ../clib/angel/sysapp.c                   0x00000000   Number         0  sys_exit.o ABSOLUTE
    ../clib/angel/sysapp.c                   0x00000000   Number         0  sys_exit_hlt.o ABSOLUTE
    ../clib/angel/sysapp.c                   0x00000000   Number         0  sys_command.o ABSOLUTE
    ../clib/angel/sysapp.c                   0x00000000   Number         0  sys_command_hlt.o ABSOLUTE
    ../clib/angel/sysapp.c                   0x00000000   Number         0  sys_wrch.o ABSOLUTE
    ../clib/angel/sysapp.c                   0x00000000   Number         0  sys_wrch_hlt.o ABSOLUTE
    ../clib/armsys.c                         0x00000000   Number         0  argv_veneer.o ABSOLUTE
    ../clib/armsys.c                         0x00000000   Number         0  argv_veneer.o ABSOLUTE
    ../clib/armsys.c                         0x00000000   Number         0  _get_argv_nomalloc.o ABSOLUTE
    ../clib/armsys.c                         0x00000000   Number         0  no_argv.o ABSOLUTE
    ../clib/heapalloc.c                      0x00000000   Number         0  hrguard.o ABSOLUTE
    ../clib/libinit.s                        0x00000000   Number         0  libinit.o ABSOLUTE
    ../clib/libinit.s                        0x00000000   Number         0  libinit2.o ABSOLUTE
    ../clib/libinit.s                        0x00000000   Number         0  libinit5.o ABSOLUTE
    ../clib/libinit.s                        0x00000000   Number         0  libshutdown.o ABSOLUTE
    ../clib/libinit.s                        0x00000000   Number         0  libshutdown2.o ABSOLUTE
    ../clib/memcpset.s                       0x00000000   Number         0  rt_memcpy_v6.o ABSOLUTE
    ../clib/memcpset.s                       0x00000000   Number         0  rt_memclr_w.o ABSOLUTE
    ../clib/memcpset.s                       0x00000000   Number         0  rt_memcpy_w.o ABSOLUTE
    ../clib/signal.c                         0x00000000   Number         0  defsig_rtmem_outer.o ABSOLUTE
    ../clib/signal.c                         0x00000000   Number         0  defsig_rtmem_formal.o ABSOLUTE
    ../clib/signal.c                         0x00000000   Number         0  defsig_exit.o ABSOLUTE
    ../clib/signal.c                         0x00000000   Number         0  defsig_rtmem_inner.o ABSOLUTE
    ../clib/signal.c                         0x00000000   Number         0  __raise.o ABSOLUTE
    ../clib/signal.c                         0x00000000   Number         0  defsig_general.o ABSOLUTE
    ../clib/signal.c                         0x00000000   Number         0  defsig_abrt_inner.o ABSOLUTE
    ../clib/signal.c                         0x00000000   Number         0  defsig_fpe_inner.o ABSOLUTE
    ../clib/signal.c                         0x00000000   Number         0  defsig_rtred_inner.o ABSOLUTE
    ../clib/signal.c                         0x00000000   Number         0  defsig_stak_inner.o ABSOLUTE
    ../clib/signal.c                         0x00000000   Number         0  defsig_pvfn_inner.o ABSOLUTE
    ../clib/signal.c                         0x00000000   Number         0  defsig_cppl_inner.o ABSOLUTE
    ../clib/signal.c                         0x00000000   Number         0  defsig_segv_inner.o ABSOLUTE
    ../clib/signal.c                         0x00000000   Number         0  defsig_other.o ABSOLUTE
    ../clib/signal.s                         0x00000000   Number         0  defsig.o ABSOLUTE
    ../clib/stdlib.c                         0x00000000   Number         0  exit.o ABSOLUTE
    ../clib/string.c                         0x00000000   Number         0  strlen.o ABSOLUTE
    ../fplib/fpinit.s                        0x00000000   Number         0  fpinit.o ABSOLUTE
    ../fplib/fpinit_empty.s                  0x00000000   Number         0  fpinit_empty.o ABSOLUTE
    cdc_device.c                             0x00000000   Number         0  cdc_device.o ABSOLUTE
    dc.s                                     0x00000000   Number         0  dc.o ABSOLUTE
    drv_sysclk.c                             0x00000000   Number         0  drv_sysclk.o ABSOLUTE
    drv_systick.c                            0x00000000   Number         0  drv_systick.o ABSOLUTE
    drv_usb.c                                0x00000000   Number         0  drv_usb.o ABSOLUTE
    hal_adc.c                                0x00000000   Number         0  hal_adc.o ABSOLUTE
    hal_comp.c                               0x00000000   Number         0  hal_comp.o ABSOLUTE
    hal_dac.c                                0x00000000   Number         0  hal_dac.o ABSOLUTE
    hal_dma.c                                0x00000000   Number         0  hal_dma.o ABSOLUTE
    hal_exti.c                               0x00000000   Number         0  hal_exti.o ABSOLUTE
    hal_fsmc.c                               0x00000000   Number         0  hal_fsmc.o ABSOLUTE
    hal_gpio.c                               0x00000000   Number         0  hal_gpio.o ABSOLUTE
    hal_i2c.c                                0x00000000   Number         0  hal_i2c.o ABSOLUTE
    hal_iwdg.c                               0x00000000   Number         0  hal_iwdg.o ABSOLUTE
    hal_rcc.c                                0x00000000   Number         0  hal_rcc.o ABSOLUTE
    hal_rtc.c                                0x00000000   Number         0  hal_rtc.o ABSOLUTE
    hal_sdio.c                               0x00000000   Number         0  hal_sdio.o ABSOLUTE
    hal_spi.c                                0x00000000   Number         0  hal_spi.o ABSOLUTE
    hal_syscfg.c                             0x00000000   Number         0  hal_syscfg.o ABSOLUTE
    hal_tim_16b.c                            0x00000000   Number         0  hal_tim_16b.o ABSOLUTE
    hal_tim_32b.c                            0x00000000   Number         0  hal_tim_32b.o ABSOLUTE
    hal_tim_adv.c                            0x00000000   Number         0  hal_tim_adv.o ABSOLUTE
    hal_tim_basic.c                          0x00000000   Number         0  hal_tim_basic.o ABSOLUTE
    hal_uart.c                               0x00000000   Number         0  hal_uart.o ABSOLUTE
    hal_usb.c                                0x00000000   Number         0  hal_usb.o ABSOLUTE
    hal_wwdg.c                               0x00000000   Number         0  hal_wwdg.o ABSOLUTE
    main.c                                   0x00000000   Number         0  main.o ABSOLUTE
    system_mm32f3277g.c                      0x00000000   Number         0  system_mm32f3277g.o ABSOLUTE
    tud_dcd_port.c                           0x00000000   Number         0  tud_dcd_port.o ABSOLUTE
    tud_usb_descriptors.c                    0x00000000   Number         0  tud_usb_descriptors.o ABSOLUTE
    tusb.c                                   0x00000000   Number         0  tusb.o ABSOLUTE
    tusb_fifo.c                              0x00000000   Number         0  tusb_fifo.o ABSOLUTE
    usbd.c                                   0x00000000   Number         0  usbd.o ABSOLUTE
    usbd_control.c                           0x00000000   Number         0  usbd_control.o ABSOLUTE
    RESET                                    0x08000000   Section      400  startup_mm32f3277g.o(RESET)
    !!!main                                  0x08000400   Section        8  __main.o(!!!main)
    !!!scatter                               0x08000408   Section       52  __scatter.o(!!!scatter)
    !!handler_copy                           0x0800043c   Section       26  __scatter_copy.o(!!handler_copy)
    !!handler_zi                             0x08000458   Section       28  __scatter_zi.o(!!handler_zi)
    .ARM.Collect$$libinit$$00000000          0x08000474   Section        2  libinit.o(.ARM.Collect$$libinit$$00000000)
    .ARM.Collect$$libinit$$00000002          0x08000476   Section        0  libinit2.o(.ARM.Collect$$libinit$$00000002)
    .ARM.Collect$$libinit$$00000004          0x08000476   Section        0  libinit2.o(.ARM.Collect$$libinit$$00000004)
    .ARM.Collect$$libinit$$0000000A          0x08000476   Section        0  libinit2.o(.ARM.Collect$$libinit$$0000000A)
    .ARM.Collect$$libinit$$0000000C          0x08000476   Section        0  libinit2.o(.ARM.Collect$$libinit$$0000000C)
    .ARM.Collect$$libinit$$0000000E          0x08000476   Section        0  libinit2.o(.ARM.Collect$$libinit$$0000000E)
    .ARM.Collect$$libinit$$00000011          0x08000476   Section        0  libinit2.o(.ARM.Collect$$libinit$$00000011)
    .ARM.Collect$$libinit$$00000013          0x08000476   Section        0  libinit2.o(.ARM.Collect$$libinit$$00000013)
    .ARM.Collect$$libinit$$00000015          0x08000476   Section        0  libinit2.o(.ARM.Collect$$libinit$$00000015)
    .ARM.Collect$$libinit$$00000017          0x08000476   Section        0  libinit2.o(.ARM.Collect$$libinit$$00000017)
    .ARM.Collect$$libinit$$00000019          0x08000476   Section        0  libinit2.o(.ARM.Collect$$libinit$$00000019)
    .ARM.Collect$$libinit$$0000001B          0x08000476   Section        0  libinit2.o(.ARM.Collect$$libinit$$0000001B)
    .ARM.Collect$$libinit$$0000001D          0x08000476   Section        0  libinit2.o(.ARM.Collect$$libinit$$0000001D)
    .ARM.Collect$$libinit$$0000001F          0x08000476   Section        0  libinit2.o(.ARM.Collect$$libinit$$0000001F)
    .ARM.Collect$$libinit$$00000021          0x08000476   Section        0  libinit2.o(.ARM.Collect$$libinit$$00000021)
    .ARM.Collect$$libinit$$00000023          0x08000476   Section        0  libinit2.o(.ARM.Collect$$libinit$$00000023)
    .ARM.Collect$$libinit$$00000025          0x08000476   Section        0  libinit2.o(.ARM.Collect$$libinit$$00000025)
    .ARM.Collect$$libinit$$0000002C          0x08000476   Section        0  libinit2.o(.ARM.Collect$$libinit$$0000002C)
    .ARM.Collect$$libinit$$0000002E          0x08000476   Section        0  libinit2.o(.ARM.Collect$$libinit$$0000002E)
    .ARM.Collect$$libinit$$00000030          0x08000476   Section        0  libinit2.o(.ARM.Collect$$libinit$$00000030)
    .ARM.Collect$$libinit$$00000032          0x08000476   Section        0  libinit2.o(.ARM.Collect$$libinit$$00000032)
    .ARM.Collect$$libinit$$00000033          0x08000476   Section        2  libinit2.o(.ARM.Collect$$libinit$$00000033)
    .ARM.Collect$$libshutdown$$00000000      0x08000478   Section        2  libshutdown.o(.ARM.Collect$$libshutdown$$00000000)
    .ARM.Collect$$libshutdown$$00000002      0x0800047a   Section        0  libshutdown2.o(.ARM.Collect$$libshutdown$$00000002)
    .ARM.Collect$$libshutdown$$00000004      0x0800047a   Section        0  libshutdown2.o(.ARM.Collect$$libshutdown$$00000004)
    .ARM.Collect$$libshutdown$$00000007      0x0800047a   Section        0  libshutdown2.o(.ARM.Collect$$libshutdown$$00000007)
    .ARM.Collect$$libshutdown$$0000000A      0x0800047a   Section        0  libshutdown2.o(.ARM.Collect$$libshutdown$$0000000A)
    .ARM.Collect$$libshutdown$$0000000C      0x0800047a   Section        0  libshutdown2.o(.ARM.Collect$$libshutdown$$0000000C)
    .ARM.Collect$$libshutdown$$0000000F      0x0800047a   Section        0  libshutdown2.o(.ARM.Collect$$libshutdown$$0000000F)
    .ARM.Collect$$libshutdown$$00000010      0x0800047a   Section        2  libshutdown2.o(.ARM.Collect$$libshutdown$$00000010)
    .ARM.Collect$$rtentry$$00000000          0x0800047c   Section        0  __rtentry.o(.ARM.Collect$$rtentry$$00000000)
    .ARM.Collect$$rtentry$$00000002          0x0800047c   Section        0  __rtentry2.o(.ARM.Collect$$rtentry$$00000002)
    .ARM.Collect$$rtentry$$00000007          0x0800047c   Section        4  __rtentry7.o(.ARM.Collect$$rtentry$$00000007)
    .ARM.Collect$$rtentry$$00000009          0x08000480   Section        0  __rtentry2.o(.ARM.Collect$$rtentry$$00000009)
    .ARM.Collect$$rtentry$$0000000A          0x08000480   Section        4  __rtentry2.o(.ARM.Collect$$rtentry$$0000000A)
    .ARM.Collect$$rtentry$$0000000C          0x08000484   Section        0  __rtentry2.o(.ARM.Collect$$rtentry$$0000000C)
    .ARM.Collect$$rtentry$$0000000D          0x08000484   Section        8  __rtentry2.o(.ARM.Collect$$rtentry$$0000000D)
    __lit__00000000                          0x0800048c   Data           4  __rtentry7.o(.ARM.Collect$$rtentry$$00002718)
    .ARM.Collect$$rtentry$$00002718          0x0800048c   Section        4  __rtentry7.o(.ARM.Collect$$rtentry$$00002718)
    .ARM.Collect$$rtexit$$00000000           0x08000490   Section        2  rtexit.o(.ARM.Collect$$rtexit$$00000000)
    .ARM.Collect$$rtexit$$00000002           0x08000492   Section        0  rtexit2.o(.ARM.Collect$$rtexit$$00000002)
    .ARM.Collect$$rtexit$$00000003           0x08000492   Section        4  rtexit2.o(.ARM.Collect$$rtexit$$00000003)
    .ARM.Collect$$rtexit$$00000004           0x08000496   Section        6  rtexit2.o(.ARM.Collect$$rtexit$$00000004)
    .text                                    0x0800049c   Section       36  startup_mm32f3277g.o(.text)
    .text                                    0x080004c0   Section        0  strlen.o(.text)
    .text                                    0x080004fe   Section      138  rt_memcpy_v6.o(.text)
    .text                                    0x08000588   Section       78  rt_memclr_w.o(.text)
    .text                                    0x080005d6   Section      100  rt_memcpy_w.o(.text)
    .text                                    0x0800063a   Section        0  exit.o(.text)
    .text                                    0x0800064c   Section        2  use_no_semi.o(.text)
    .text                                    0x0800064e   Section        0  indicate_semi.o(.text)
    .text                                    0x08000650   Section        0  sys_exit.o(.text)
    [Anonymous Symbol]                       0x0800065c   Section        0  drv_sysclk.o(.text.CLOCK_BootToHSE96MHz)
    [Anonymous Symbol]                       0x080006dc   Section        0  drv_systick.o(.text.Drv_SysTick_Config)
    [Anonymous Symbol]                       0x08000720   Section        0  drv_sysclk.o(.text.HAL_GetSysClockFreq)
    NVIC_EncodePriority                      0x0800072d   Thumb Code    36  drv_systick.o(.text.NVIC_EncodePriority)
    [Anonymous Symbol]                       0x0800072c   Section        0  drv_systick.o(.text.NVIC_EncodePriority)
    [Anonymous Symbol]                       0x08000750   Section        0  tud_dcd_port.o(.text.OTG_FS_IRQHandler)
    [Anonymous Symbol]                       0x0800075c   Section        0  hal_rcc.o(.text.RCC_EnableAHB2Periphs)
    SysTick_Config                           0x08000775   Thumb Code    42  drv_systick.o(.text.SysTick_Config)
    [Anonymous Symbol]                       0x08000774   Section        0  drv_systick.o(.text.SysTick_Config)
    [Anonymous Symbol]                       0x080007a0   Section        0  drv_systick.o(.text.SysTick_Handler)
    [Anonymous Symbol]                       0x080007b0   Section        0  system_mm32f3277g.o(.text.SystemInit)
    [Anonymous Symbol]                       0x080007b4   Section        0  hal_usb.o(.text.USB_BufDesp_GetPacketAddr)
    [Anonymous Symbol]                       0x080007b8   Section        0  hal_usb.o(.text.USB_BufDesp_GetPacketSize)
    [Anonymous Symbol]                       0x080007c0   Section        0  hal_usb.o(.text.USB_BufDesp_GetTokenPid)
    [Anonymous Symbol]                       0x080007c8   Section        0  hal_usb.o(.text.USB_BufDesp_IsBusy)
    [Anonymous Symbol]                       0x080007d0   Section        0  hal_usb.o(.text.USB_BufDesp_Reset)
    [Anonymous Symbol]                       0x080007dc   Section        0  hal_usb.o(.text.USB_BufDesp_Xfer)
    [Anonymous Symbol]                       0x08000810   Section        0  tud_dcd_port.o(.text.USB_BusResetHandler)
    [Anonymous Symbol]                       0x080008a8   Section        0  hal_usb.o(.text.USB_ClearInterruptStatus)
    [Anonymous Symbol]                       0x080008b4   Section        0  hal_usb.o(.text.USB_Enable)
    [Anonymous Symbol]                       0x080008c4   Section        0  hal_usb.o(.text.USB_EnableEndPoint)
    [Anonymous Symbol]                       0x08000934   Section        0  hal_usb.o(.text.USB_EnableEndPointStall)
    [Anonymous Symbol]                       0x080009c0   Section        0  hal_usb.o(.text.USB_EnableInterrupts)
    [Anonymous Symbol]                       0x080009d4   Section        0  hal_usb.o(.text.USB_EnableOddEvenReset)
    [Anonymous Symbol]                       0x080009e8   Section        0  hal_usb.o(.text.USB_EnableSuspend)
    [Anonymous Symbol]                       0x080009fc   Section        0  hal_usb.o(.text.USB_GetBufDesp)
    [Anonymous Symbol]                       0x08000a14   Section        0  hal_usb.o(.text.USB_GetBufDespOddEven)
    [Anonymous Symbol]                       0x08000a20   Section        0  hal_usb.o(.text.USB_GetBufDespTableAddr)
    [Anonymous Symbol]                       0x08000a40   Section        0  hal_usb.o(.text.USB_GetEndPointIndex)
    [Anonymous Symbol]                       0x08000a4c   Section        0  hal_usb.o(.text.USB_GetInterruptStatus)
    [Anonymous Symbol]                       0x08000a58   Section        0  hal_usb.o(.text.USB_GetXferDirection)
    [Anonymous Symbol]                       0x08000a64   Section        0  hal_usb.o(.text.USB_InitDevice)
    [Anonymous Symbol]                       0x08000a8c   Section        0  hal_usb.o(.text.USB_SetBufDespTableAddr)
    [Anonymous Symbol]                       0x08000aa8   Section        0  hal_usb.o(.text.USB_SetDeviceAddr)
    [Anonymous Symbol]                       0x08000ab8   Section        0  tud_dcd_port.o(.text.USB_TokenDoneHandler)
    __NVIC_ClearPendingIRQ                   0x08000c15   Thumb Code    14  tud_dcd_port.o(.text.__NVIC_ClearPendingIRQ)
    [Anonymous Symbol]                       0x08000c14   Section        0  tud_dcd_port.o(.text.__NVIC_ClearPendingIRQ)
    __NVIC_DisableIRQ                        0x08000c25   Thumb Code    22  tud_dcd_port.o(.text.__NVIC_DisableIRQ)
    [Anonymous Symbol]                       0x08000c24   Section        0  tud_dcd_port.o(.text.__NVIC_DisableIRQ)
    __NVIC_EnableIRQ                         0x08000c3d   Thumb Code    14  tud_dcd_port.o(.text.__NVIC_EnableIRQ)
    [Anonymous Symbol]                       0x08000c3c   Section        0  tud_dcd_port.o(.text.__NVIC_EnableIRQ)
    __NVIC_GetPriorityGrouping               0x08000c4d   Thumb Code    16  drv_systick.o(.text.__NVIC_GetPriorityGrouping)
    [Anonymous Symbol]                       0x08000c4c   Section        0  drv_systick.o(.text.__NVIC_GetPriorityGrouping)
    __NVIC_SetPriority                       0x08000c5d   Thumb Code    14  drv_systick.o(.text.__NVIC_SetPriority)
    [Anonymous Symbol]                       0x08000c5c   Section        0  drv_systick.o(.text.__NVIC_SetPriority)
    __NVIC_SetPriority                       0x08000c6d   Thumb Code    14  tud_dcd_port.o(.text.__NVIC_SetPriority)
    [Anonymous Symbol]                       0x08000c6c   Section        0  tud_dcd_port.o(.text.__NVIC_SetPriority)
    _data_stage_xact                         0x08000c7d   Thumb Code    90  usbd_control.o(.text._data_stage_xact)
    [Anonymous Symbol]                       0x08000c7c   Section        0  usbd_control.o(.text._data_stage_xact)
    _ff_mod                                  0x08000cd9   Thumb Code    14  tusb_fifo.o(.text._ff_mod)
    [Anonymous Symbol]                       0x08000cd8   Section        0  tusb_fifo.o(.text._ff_mod)
    _ff_pull                                 0x08000ce9   Thumb Code    24  tusb_fifo.o(.text._ff_pull)
    [Anonymous Symbol]                       0x08000ce8   Section        0  tusb_fifo.o(.text._ff_pull)
    _ff_pull_const_addr                      0x08000d01   Thumb Code    52  tusb_fifo.o(.text._ff_pull_const_addr)
    [Anonymous Symbol]                       0x08000d00   Section        0  tusb_fifo.o(.text._ff_pull_const_addr)
    _ff_pull_n                               0x08000d35   Thumb Code   250  tusb_fifo.o(.text._ff_pull_n)
    [Anonymous Symbol]                       0x08000d34   Section        0  tusb_fifo.o(.text._ff_pull_n)
    _ff_push                                 0x08000e31   Thumb Code    20  tusb_fifo.o(.text._ff_push)
    [Anonymous Symbol]                       0x08000e30   Section        0  tusb_fifo.o(.text._ff_push)
    _ff_push_const_addr                      0x08000e45   Thumb Code    54  tusb_fifo.o(.text._ff_push_const_addr)
    [Anonymous Symbol]                       0x08000e44   Section        0  tusb_fifo.o(.text._ff_push_const_addr)
    _ff_push_n                               0x08000e7d   Thumb Code   244  tusb_fifo.o(.text._ff_push_n)
    [Anonymous Symbol]                       0x08000e7c   Section        0  tusb_fifo.o(.text._ff_push_n)
    _osal_q_lock                             0x08000f71   Thumb Code    18  usbd.o(.text._osal_q_lock)
    [Anonymous Symbol]                       0x08000f70   Section        0  usbd.o(.text._osal_q_lock)
    _osal_q_unlock                           0x08000f85   Thumb Code    18  usbd.o(.text._osal_q_unlock)
    [Anonymous Symbol]                       0x08000f84   Section        0  usbd.o(.text._osal_q_unlock)
    _prep_out_transaction                    0x08000f99   Thumb Code    66  cdc_device.o(.text._prep_out_transaction)
    [Anonymous Symbol]                       0x08000f98   Section        0  cdc_device.o(.text._prep_out_transaction)
    _status_stage_xact                       0x08000fdd   Thumb Code    20  usbd_control.o(.text._status_stage_xact)
    [Anonymous Symbol]                       0x08000fdc   Section        0  usbd_control.o(.text._status_stage_xact)
    _tu_fifo_correct_read_pointer            0x08000ff1   Thumb Code    14  tusb_fifo.o(.text._tu_fifo_correct_read_pointer)
    [Anonymous Symbol]                       0x08000ff0   Section        0  tusb_fifo.o(.text._tu_fifo_correct_read_pointer)
    _tu_fifo_count                           0x08001001   Thumb Code    12  tusb_fifo.o(.text._tu_fifo_count)
    [Anonymous Symbol]                       0x08001000   Section        0  tusb_fifo.o(.text._tu_fifo_count)
    _tu_fifo_empty                           0x0800100d   Thumb Code    10  tusb_fifo.o(.text._tu_fifo_empty)
    [Anonymous Symbol]                       0x0800100c   Section        0  tusb_fifo.o(.text._tu_fifo_empty)
    _tu_fifo_full                            0x08001019   Thumb Code    20  tusb_fifo.o(.text._tu_fifo_full)
    [Anonymous Symbol]                       0x08001018   Section        0  tusb_fifo.o(.text._tu_fifo_full)
    _tu_fifo_peek                            0x0800102d   Thumb Code    70  tusb_fifo.o(.text._tu_fifo_peek)
    [Anonymous Symbol]                       0x0800102c   Section        0  tusb_fifo.o(.text._tu_fifo_peek)
    _tu_fifo_peek_n                          0x08001075   Thumb Code    86  tusb_fifo.o(.text._tu_fifo_peek_n)
    [Anonymous Symbol]                       0x08001074   Section        0  tusb_fifo.o(.text._tu_fifo_peek_n)
    _tu_fifo_read_n                          0x080010cd   Thumb Code    46  tusb_fifo.o(.text._tu_fifo_read_n)
    [Anonymous Symbol]                       0x080010cc   Section        0  tusb_fifo.o(.text._tu_fifo_read_n)
    _tu_fifo_remaining                       0x080010fd   Thumb Code    14  tusb_fifo.o(.text._tu_fifo_remaining)
    [Anonymous Symbol]                       0x080010fc   Section        0  tusb_fifo.o(.text._tu_fifo_remaining)
    _tu_fifo_write_n                         0x0800110d   Thumb Code   106  tusb_fifo.o(.text._tu_fifo_write_n)
    [Anonymous Symbol]                       0x0800110c   Section        0  tusb_fifo.o(.text._tu_fifo_write_n)
    advance_pointer                          0x08001179   Thumb Code    22  tusb_fifo.o(.text.advance_pointer)
    [Anonymous Symbol]                       0x08001178   Section        0  tusb_fifo.o(.text.advance_pointer)
    backward_pointer                         0x08001191   Thumb Code    22  tusb_fifo.o(.text.backward_pointer)
    [Anonymous Symbol]                       0x08001190   Section        0  tusb_fifo.o(.text.backward_pointer)
    [Anonymous Symbol]                       0x080011a8   Section        0  drv_usb.o(.text.cdc_task)
    [Anonymous Symbol]                       0x080011cc   Section        0  cdc_device.o(.text.cdcd_control_xfer_cb)
    [Anonymous Symbol]                       0x08001294   Section        0  cdc_device.o(.text.cdcd_init)
    [Anonymous Symbol]                       0x080012e8   Section        0  cdc_device.o(.text.cdcd_open)
    [Anonymous Symbol]                       0x08001430   Section        0  cdc_device.o(.text.cdcd_reset)
    [Anonymous Symbol]                       0x0800145c   Section        0  cdc_device.o(.text.cdcd_xfer_cb)
    [Anonymous Symbol]                       0x08001578   Section        0  tud_dcd_port.o(.text.dcd_edpt_clear_stall)
    [Anonymous Symbol]                       0x08001590   Section        0  tud_dcd_port.o(.text.dcd_edpt_open)
    [Anonymous Symbol]                       0x080015dc   Section        0  tud_dcd_port.o(.text.dcd_edpt_stall)
    [Anonymous Symbol]                       0x080015f4   Section        0  tud_dcd_port.o(.text.dcd_edpt_xfer)
    [Anonymous Symbol]                       0x0800169c   Section        0  usbd.o(.text.dcd_event_bus_reset)
    [Anonymous Symbol]                       0x080016c0   Section        0  usbd.o(.text.dcd_event_bus_signal)
    [Anonymous Symbol]                       0x080016e0   Section        0  usbd.o(.text.dcd_event_handler)
    [Anonymous Symbol]                       0x080017a8   Section        0  usbd.o(.text.dcd_event_setup_received)
    [Anonymous Symbol]                       0x080017cc   Section        0  usbd.o(.text.dcd_event_xfer_complete)
    [Anonymous Symbol]                       0x080017f8   Section        0  tud_dcd_port.o(.text.dcd_init)
    [Anonymous Symbol]                       0x08001824   Section        0  tud_dcd_port.o(.text.dcd_int_disable)
    [Anonymous Symbol]                       0x08001838   Section        0  tud_dcd_port.o(.text.dcd_int_enable)
    [Anonymous Symbol]                       0x08001850   Section        0  tud_dcd_port.o(.text.dcd_int_handler)
    [Anonymous Symbol]                       0x08001924   Section        0  tud_dcd_port.o(.text.dcd_set_address)
    get_driver                               0x08001941   Thumb Code    74  usbd.o(.text.get_driver)
    [Anonymous Symbol]                       0x08001940   Section        0  usbd.o(.text.get_driver)
    get_relative_pointer                     0x0800198d   Thumb Code    14  tusb_fifo.o(.text.get_relative_pointer)
    [Anonymous Symbol]                       0x0800198c   Section        0  tusb_fifo.o(.text.get_relative_pointer)
    invoke_class_control                     0x0800199d   Thumb Code    28  usbd.o(.text.invoke_class_control)
    [Anonymous Symbol]                       0x0800199c   Section        0  usbd.o(.text.invoke_class_control)
    [Anonymous Symbol]                       0x080019b8   Section        0  main.o(.text.main)
    mark_interface_endpoint                  0x080019d5   Thumb Code    96  usbd.o(.text.mark_interface_endpoint)
    [Anonymous Symbol]                       0x080019d4   Section        0  usbd.o(.text.mark_interface_endpoint)
    osal_queue_create                        0x08001a35   Thumb Code    18  usbd.o(.text.osal_queue_create)
    [Anonymous Symbol]                       0x08001a34   Section        0  usbd.o(.text.osal_queue_create)
    osal_queue_receive                       0x08001a49   Thumb Code    30  usbd.o(.text.osal_queue_receive)
    [Anonymous Symbol]                       0x08001a48   Section        0  usbd.o(.text.osal_queue_receive)
    osal_queue_send                          0x08001a69   Thumb Code    64  usbd.o(.text.osal_queue_send)
    [Anonymous Symbol]                       0x08001a68   Section        0  usbd.o(.text.osal_queue_send)
    process_control_request                  0x08001aa9   Thumb Code   800  usbd.o(.text.process_control_request)
    [Anonymous Symbol]                       0x08001aa8   Section        0  usbd.o(.text.process_control_request)
    process_get_descriptor                   0x08001dc9   Thumb Code   190  usbd.o(.text.process_get_descriptor)
    [Anonymous Symbol]                       0x08001dc8   Section        0  usbd.o(.text.process_get_descriptor)
    process_set_config                       0x08001e89   Thumb Code   500  usbd.o(.text.process_set_config)
    [Anonymous Symbol]                       0x08001e88   Section        0  usbd.o(.text.process_set_config)
    tu_desc_len                              0x0800207d   Thumb Code     4  usbd.o(.text.tu_desc_len)
    [Anonymous Symbol]                       0x0800207c   Section        0  usbd.o(.text.tu_desc_len)
    tu_desc_len                              0x08002081   Thumb Code     4  cdc_device.o(.text.tu_desc_len)
    [Anonymous Symbol]                       0x08002080   Section        0  cdc_device.o(.text.tu_desc_len)
    tu_desc_next                             0x08002085   Thumb Code     6  usbd.o(.text.tu_desc_next)
    [Anonymous Symbol]                       0x08002084   Section        0  usbd.o(.text.tu_desc_next)
    tu_desc_next                             0x0800208d   Thumb Code     6  cdc_device.o(.text.tu_desc_next)
    [Anonymous Symbol]                       0x0800208c   Section        0  cdc_device.o(.text.tu_desc_next)
    tu_desc_type                             0x08002095   Thumb Code     4  usbd.o(.text.tu_desc_type)
    [Anonymous Symbol]                       0x08002094   Section        0  usbd.o(.text.tu_desc_type)
    tu_desc_type                             0x08002099   Thumb Code     4  cdc_device.o(.text.tu_desc_type)
    [Anonymous Symbol]                       0x08002098   Section        0  cdc_device.o(.text.tu_desc_type)
    tu_edpt_dir                              0x0800209d   Thumb Code     4  usbd.o(.text.tu_edpt_dir)
    [Anonymous Symbol]                       0x0800209c   Section        0  usbd.o(.text.tu_edpt_dir)
    tu_edpt_dir                              0x080020a1   Thumb Code     4  usbd_control.o(.text.tu_edpt_dir)
    [Anonymous Symbol]                       0x080020a0   Section        0  usbd_control.o(.text.tu_edpt_dir)
    tu_edpt_number                           0x080020a5   Thumb Code     6  usbd.o(.text.tu_edpt_number)
    [Anonymous Symbol]                       0x080020a4   Section        0  usbd.o(.text.tu_edpt_number)
    [Anonymous Symbol]                       0x080020ac   Section        0  tusb_fifo.o(.text.tu_fifo_clear)
    [Anonymous Symbol]                       0x080020cc   Section        0  tusb_fifo.o(.text.tu_fifo_config)
    [Anonymous Symbol]                       0x08002104   Section        0  tusb_fifo.o(.text.tu_fifo_count)
    [Anonymous Symbol]                       0x0800211c   Section        0  tusb_fifo.o(.text.tu_fifo_empty)
    [Anonymous Symbol]                       0x0800212c   Section        0  tusb_fifo.o(.text.tu_fifo_read)
    [Anonymous Symbol]                       0x0800214c   Section        0  tusb_fifo.o(.text.tu_fifo_read_n)
    [Anonymous Symbol]                       0x08002158   Section        0  tusb_fifo.o(.text.tu_fifo_remaining)
    [Anonymous Symbol]                       0x08002164   Section        0  tusb_fifo.o(.text.tu_fifo_set_overwritable)
    [Anonymous Symbol]                       0x0800216c   Section        0  tusb_fifo.o(.text.tu_fifo_write)
    [Anonymous Symbol]                       0x080021ac   Section        0  tusb_fifo.o(.text.tu_fifo_write_n)
    tud_cdc_available                        0x080021b9   Thumb Code    10  drv_usb.o(.text.tud_cdc_available)
    [Anonymous Symbol]                       0x080021b8   Section        0  drv_usb.o(.text.tud_cdc_available)
    [Anonymous Symbol]                       0x080021c4   Section        0  cdc_device.o(.text.tud_cdc_n_available)
    [Anonymous Symbol]                       0x080021e0   Section        0  cdc_device.o(.text.tud_cdc_n_read)
    [Anonymous Symbol]                       0x08002208   Section        0  cdc_device.o(.text.tud_cdc_n_write)
    [Anonymous Symbol]                       0x08002240   Section        0  cdc_device.o(.text.tud_cdc_n_write_flush)
    tud_cdc_read                             0x080022d1   Thumb Code    14  drv_usb.o(.text.tud_cdc_read)
    [Anonymous Symbol]                       0x080022d0   Section        0  drv_usb.o(.text.tud_cdc_read)
    tud_cdc_write                            0x080022e1   Thumb Code    14  drv_usb.o(.text.tud_cdc_write)
    [Anonymous Symbol]                       0x080022e0   Section        0  drv_usb.o(.text.tud_cdc_write)
    tud_cdc_write_flush                      0x080022f1   Thumb Code    10  drv_usb.o(.text.tud_cdc_write_flush)
    [Anonymous Symbol]                       0x080022f0   Section        0  drv_usb.o(.text.tud_cdc_write_flush)
    [Anonymous Symbol]                       0x080022fc   Section        0  usbd_control.o(.text.tud_control_status)
    [Anonymous Symbol]                       0x08002320   Section        0  usbd_control.o(.text.tud_control_xfer)
    [Anonymous Symbol]                       0x080023a8   Section        0  tud_usb_descriptors.o(.text.tud_descriptor_configuration_cb)
    [Anonymous Symbol]                       0x080023b4   Section        0  tud_usb_descriptors.o(.text.tud_descriptor_device_cb)
    [Anonymous Symbol]                       0x080023c0   Section        0  tud_usb_descriptors.o(.text.tud_descriptor_string_cb)
    [Anonymous Symbol]                       0x0800243c   Section        0  usbd.o(.text.tud_init)
    [Anonymous Symbol]                       0x080024c8   Section        0  usbd.o(.text.tud_inited)
    [Anonymous Symbol]                       0x080024d4   Section        0  usbd.o(.text.tud_mounted)
    [Anonymous Symbol]                       0x080024e8   Section        0  usbd.o(.text.tud_suspended)
    [Anonymous Symbol]                       0x080024f8   Section        0  usbd.o(.text.tud_task)
    [Anonymous Symbol]                       0x080026dc   Section        0  tusb.o(.text.tusb_init)
    [Anonymous Symbol]                       0x080026fc   Section        0  tusb.o(.text.tusb_inited)
    [Anonymous Symbol]                       0x08002704   Section        0  usbd_control.o(.text.usbd_control_reset)
    [Anonymous Symbol]                       0x0800271c   Section        0  usbd_control.o(.text.usbd_control_set_complete_callback)
    [Anonymous Symbol]                       0x08002728   Section        0  usbd_control.o(.text.usbd_control_set_request)
    [Anonymous Symbol]                       0x08002740   Section        0  usbd_control.o(.text.usbd_control_xfer_cb)
    [Anonymous Symbol]                       0x08002854   Section        0  usbd.o(.text.usbd_edpt_claim)
    [Anonymous Symbol]                       0x0800289c   Section        0  usbd.o(.text.usbd_edpt_clear_stall)
    [Anonymous Symbol]                       0x080028e0   Section        0  usbd.o(.text.usbd_edpt_open)
    [Anonymous Symbol]                       0x080029c8   Section        0  usbd.o(.text.usbd_edpt_release)
    [Anonymous Symbol]                       0x08002a08   Section        0  usbd.o(.text.usbd_edpt_stall)
    [Anonymous Symbol]                       0x08002a4c   Section        0  usbd.o(.text.usbd_edpt_stalled)
    [Anonymous Symbol]                       0x08002a74   Section        0  usbd.o(.text.usbd_edpt_xfer)
    [Anonymous Symbol]                       0x08002b08   Section        0  usbd.o(.text.usbd_open_edpt_pair)
    usbd_reset                               0x08002ba1   Thumb Code    92  usbd.o(.text.usbd_reset)
    [Anonymous Symbol]                       0x08002ba0   Section        0  usbd.o(.text.usbd_reset)
    .compoundliteral                         0x08002bfc   Data           2  tud_usb_descriptors.o(.rodata..compoundliteral)
    [Anonymous Symbol]                       0x08002bfc   Section        0  tud_usb_descriptors.o(.rodata..compoundliteral)
    _usbd_driver                             0x08002c00   Data          24  usbd.o(.rodata._usbd_driver)
    [Anonymous Symbol]                       0x08002c00   Section        0  usbd.o(.rodata._usbd_driver)
    .L.str.2                                 0x08002c75   Data           7  tud_usb_descriptors.o(.rodata.str1.1)
    [Anonymous Symbol]                       0x08002c75   Section        0  tud_usb_descriptors.o(.rodata.str1.1)
    .L.str                                   0x08002c7c   Data           8  tud_usb_descriptors.o(.rodata.str1.1)
    .L.str.3                                 0x08002c84   Data          12  tud_usb_descriptors.o(.rodata.str1.1)
    .L.str.1                                 0x08002c90   Data          15  tud_usb_descriptors.o(.rodata.str1.1)
    SystemClockFreq                          0x20000000   Data           4  drv_sysclk.o(.data.SystemClockFreq)
    [Anonymous Symbol]                       0x20000000   Section        0  drv_sysclk.o(.data.SystemClockFreq)
    _app_driver                              0x20000200   Data           4  usbd.o(.bss._app_driver)
    [Anonymous Symbol]                       0x20000200   Section        0  usbd.o(.bss._app_driver)
    _app_driver_count                        0x20000204   Data           1  usbd.o(.bss._app_driver_count)
    [Anonymous Symbol]                       0x20000204   Section        0  usbd.o(.bss._app_driver_count)
    _cdcd_itf                                0x20000208   Data         312  cdc_device.o(.bss._cdcd_itf)
    [Anonymous Symbol]                       0x20000208   Section        0  cdc_device.o(.bss._cdcd_itf)
    _ctrl_xfer                               0x20000340   Data          20  usbd_control.o(.bss._ctrl_xfer)
    [Anonymous Symbol]                       0x20000340   Section        0  usbd_control.o(.bss._ctrl_xfer)
    _desc_str                                0x20000354   Data          64  tud_usb_descriptors.o(.bss._desc_str)
    [Anonymous Symbol]                       0x20000354   Section        0  tud_usb_descriptors.o(.bss._desc_str)
    _usbd_ctrl_buf                           0x20000394   Data          64  usbd_control.o(.bss._usbd_ctrl_buf)
    [Anonymous Symbol]                       0x20000394   Section        0  usbd_control.o(.bss._usbd_ctrl_buf)
    _usbd_dev                                0x200003d4   Data          39  usbd.o(.bss._usbd_dev)
    [Anonymous Symbol]                       0x200003d4   Section        0  usbd.o(.bss._usbd_dev)
    _usbd_initialized                        0x200003fb   Data           1  usbd.o(.bss._usbd_initialized)
    [Anonymous Symbol]                       0x200003fb   Section        0  usbd.o(.bss._usbd_initialized)
    _usbd_q                                  0x200003fc   Data           4  usbd.o(.bss._usbd_q)
    [Anonymous Symbol]                       0x200003fc   Section        0  usbd.o(.bss._usbd_q)
    usb_bd_tbl                               0x20000600   Data         512  tud_dcd_port.o(.bss.usb_bd_tbl)
    [Anonymous Symbol]                       0x20000600   Section        0  tud_dcd_port.o(.bss.usb_bd_tbl)
    usb_device_addr                          0x20000800   Data           1  tud_dcd_port.o(.bss.usb_device_addr)
    [Anonymous Symbol]                       0x20000800   Section        0  tud_dcd_port.o(.bss.usb_device_addr)
    usb_epmng_tbl                            0x20000804   Data         256  tud_dcd_port.o(.bss.usb_epmng_tbl)
    [Anonymous Symbol]                       0x20000804   Section        0  tud_dcd_port.o(.bss.usb_epmng_tbl)
    usb_setup_buff                           0x20000904   Data           8  tud_dcd_port.o(.bss.usb_setup_buff)
    [Anonymous Symbol]                       0x20000904   Section        0  tud_dcd_port.o(.bss.usb_setup_buff)
    uwTick                                   0x2000090c   Data           4  drv_systick.o(.bss.uwTick)
    [Anonymous Symbol]                       0x2000090c   Section        0  drv_systick.o(.bss.uwTick)

    Global Symbols

    Symbol Name                              Value     Ov Type        Size  Object(Section)

    BuildAttributes$$THM_ISAv4$P$D$K$B$S$PE$A:L22UL41UL21$X:L11$S22US41US21$IEEE1$IW$~IW$USESV6$~STKCKD$USESV7$~SHL$OTIME$ROPI$EBA8$UX$STANDARDLIB$REQ8$PRES8$EABIv2 0x00000000   Number         0  anon$$obj.o ABSOLUTE
    __fp_init_empty                          0x00000000   Number         0  fpinit_empty.o ABSOLUTE
    Image$$ZI$$Limit                          - Undefined Weak Reference
    __ARM_exceptions_init                     - Undefined Weak Reference
    __alloca_initialize                       - Undefined Weak Reference
    __arm_preinit_                            - Undefined Weak Reference
    __cpp_initialize__aeabi_                  - Undefined Weak Reference
    __cxa_finalize                            - Undefined Weak Reference
    __decompress                              - Undefined Weak Reference
    __rt_locale                               - Undefined Weak Reference
    __sigvec_lookup                           - Undefined Weak Reference
    _atexit_init                              - Undefined Weak Reference
    _call_atexit_fns                          - Undefined Weak Reference
    _clock_init                               - Undefined Weak Reference
    _fp_trap_init                             - Undefined Weak Reference
    _fp_trap_shutdown                         - Undefined Weak Reference
    _get_lc_collate                           - Undefined Weak Reference
    _get_lc_ctype                             - Undefined Weak Reference
    _get_lc_monetary                          - Undefined Weak Reference
    _get_lc_numeric                           - Undefined Weak Reference
    _get_lc_time                              - Undefined Weak Reference
    _getenv_init                              - Undefined Weak Reference
    _handle_redirection                       - Undefined Weak Reference
    _init_alloc                               - Undefined Weak Reference
    _init_user_alloc                          - Undefined Weak Reference
    _initio                                   - Undefined Weak Reference
    _rand_init                                - Undefined Weak Reference
    _signal_finish                            - Undefined Weak Reference
    _signal_init                              - Undefined Weak Reference
    _terminate_alloc                          - Undefined Weak Reference
    _terminate_user_alloc                     - Undefined Weak Reference
    _terminateio                              - Undefined Weak Reference
    dcd_connect                               - Undefined Weak Reference
    dcd_disconnect                            - Undefined Weak Reference
    dcd_edpt0_status_complete                 - Undefined Weak Reference
    dcd_edpt_xfer_fifo                        - Undefined Weak Reference
    tud_cdc_line_coding_cb                    - Undefined Weak Reference
    tud_cdc_rx_wanted_cb                      - Undefined Weak Reference
    tud_cdc_send_break_cb                     - Undefined Weak Reference
    tud_cdc_tx_complete_cb                    - Undefined Weak Reference
    tud_descriptor_bos_cb                     - Undefined Weak Reference
    tud_descriptor_device_qualifier_cb        - Undefined Weak Reference
    tud_vendor_control_xfer_cb                - Undefined Weak Reference
    usbd_app_driver_get_cb                    - Undefined Weak Reference
    __Vectors_Size                           0x00000190   Number         0  startup_mm32f3277g.o ABSOLUTE
    __Vectors                                0x08000000   Data           4  startup_mm32f3277g.o(RESET)
    __Vectors_End                            0x08000190   Data           0  startup_mm32f3277g.o(RESET)
    __main                                   0x08000401   Thumb Code     8  __main.o(!!!main)
    __scatterload                            0x08000409   Thumb Code     0  __scatter.o(!!!scatter)
    __scatterload_rt2                        0x08000409   Thumb Code    44  __scatter.o(!!!scatter)
    __scatterload_rt2_thumb_only             0x08000409   Thumb Code     0  __scatter.o(!!!scatter)
    __scatterload_null                       0x08000417   Thumb Code     0  __scatter.o(!!!scatter)
    __scatterload_copy                       0x0800043d   Thumb Code    26  __scatter_copy.o(!!handler_copy)
    __scatterload_zeroinit                   0x08000459   Thumb Code    28  __scatter_zi.o(!!handler_zi)
    __rt_lib_init                            0x08000475   Thumb Code     0  libinit.o(.ARM.Collect$$libinit$$00000000)
    __rt_lib_init_alloca_1                   0x08000477   Thumb Code     0  libinit2.o(.ARM.Collect$$libinit$$0000002E)
    __rt_lib_init_argv_1                     0x08000477   Thumb Code     0  libinit2.o(.ARM.Collect$$libinit$$0000002C)
    __rt_lib_init_atexit_1                   0x08000477   Thumb Code     0  libinit2.o(.ARM.Collect$$libinit$$0000001B)
    __rt_lib_init_clock_1                    0x08000477   Thumb Code     0  libinit2.o(.ARM.Collect$$libinit$$00000021)
    __rt_lib_init_cpp_1                      0x08000477   Thumb Code     0  libinit2.o(.ARM.Collect$$libinit$$00000032)
    __rt_lib_init_exceptions_1               0x08000477   Thumb Code     0  libinit2.o(.ARM.Collect$$libinit$$00000030)
    __rt_lib_init_fp_1                       0x08000477   Thumb Code     0  libinit2.o(.ARM.Collect$$libinit$$00000002)
    __rt_lib_init_fp_trap_1                  0x08000477   Thumb Code     0  libinit2.o(.ARM.Collect$$libinit$$0000001F)
    __rt_lib_init_getenv_1                   0x08000477   Thumb Code     0  libinit2.o(.ARM.Collect$$libinit$$00000023)
    __rt_lib_init_heap_1                     0x08000477   Thumb Code     0  libinit2.o(.ARM.Collect$$libinit$$0000000A)
    __rt_lib_init_lc_collate_1               0x08000477   Thumb Code     0  libinit2.o(.ARM.Collect$$libinit$$00000011)
    __rt_lib_init_lc_ctype_1                 0x08000477   Thumb Code     0  libinit2.o(.ARM.Collect$$libinit$$00000013)
    __rt_lib_init_lc_monetary_1              0x08000477   Thumb Code     0  libinit2.o(.ARM.Collect$$libinit$$00000015)
    __rt_lib_init_lc_numeric_1               0x08000477   Thumb Code     0  libinit2.o(.ARM.Collect$$libinit$$00000017)
    __rt_lib_init_lc_time_1                  0x08000477   Thumb Code     0  libinit2.o(.ARM.Collect$$libinit$$00000019)
    __rt_lib_init_preinit_1                  0x08000477   Thumb Code     0  libinit2.o(.ARM.Collect$$libinit$$00000004)
    __rt_lib_init_rand_1                     0x08000477   Thumb Code     0  libinit2.o(.ARM.Collect$$libinit$$0000000E)
    __rt_lib_init_return                     0x08000477   Thumb Code     0  libinit2.o(.ARM.Collect$$libinit$$00000033)
    __rt_lib_init_signal_1                   0x08000477   Thumb Code     0  libinit2.o(.ARM.Collect$$libinit$$0000001D)
    __rt_lib_init_stdio_1                    0x08000477   Thumb Code     0  libinit2.o(.ARM.Collect$$libinit$$00000025)
    __rt_lib_init_user_alloc_1               0x08000477   Thumb Code     0  libinit2.o(.ARM.Collect$$libinit$$0000000C)
    __rt_lib_shutdown                        0x08000479   Thumb Code     0  libshutdown.o(.ARM.Collect$$libshutdown$$00000000)
    __rt_lib_shutdown_cpp_1                  0x0800047b   Thumb Code     0  libshutdown2.o(.ARM.Collect$$libshutdown$$00000002)
    __rt_lib_shutdown_fp_trap_1              0x0800047b   Thumb Code     0  libshutdown2.o(.ARM.Collect$$libshutdown$$00000007)
    __rt_lib_shutdown_heap_1                 0x0800047b   Thumb Code     0  libshutdown2.o(.ARM.Collect$$libshutdown$$0000000F)
    __rt_lib_shutdown_return                 0x0800047b   Thumb Code     0  libshutdown2.o(.ARM.Collect$$libshutdown$$00000010)
    __rt_lib_shutdown_signal_1               0x0800047b   Thumb Code     0  libshutdown2.o(.ARM.Collect$$libshutdown$$0000000A)
    __rt_lib_shutdown_stdio_1                0x0800047b   Thumb Code     0  libshutdown2.o(.ARM.Collect$$libshutdown$$00000004)
    __rt_lib_shutdown_user_alloc_1           0x0800047b   Thumb Code     0  libshutdown2.o(.ARM.Collect$$libshutdown$$0000000C)
    __rt_entry                               0x0800047d   Thumb Code     0  __rtentry.o(.ARM.Collect$$rtentry$$00000000)
    __rt_entry_presh_1                       0x0800047d   Thumb Code     0  __rtentry2.o(.ARM.Collect$$rtentry$$00000002)
    __rt_entry_sh                            0x0800047d   Thumb Code     0  __rtentry7.o(.ARM.Collect$$rtentry$$00000007)
    __rt_entry_li                            0x08000481   Thumb Code     0  __rtentry2.o(.ARM.Collect$$rtentry$$0000000A)
    __rt_entry_postsh_1                      0x08000481   Thumb Code     0  __rtentry2.o(.ARM.Collect$$rtentry$$00000009)
    __rt_entry_main                          0x08000485   Thumb Code     0  __rtentry2.o(.ARM.Collect$$rtentry$$0000000D)
    __rt_entry_postli_1                      0x08000485   Thumb Code     0  __rtentry2.o(.ARM.Collect$$rtentry$$0000000C)
    __rt_exit                                0x08000491   Thumb Code     0  rtexit.o(.ARM.Collect$$rtexit$$00000000)
    __rt_exit_ls                             0x08000493   Thumb Code     0  rtexit2.o(.ARM.Collect$$rtexit$$00000003)
    __rt_exit_prels_1                        0x08000493   Thumb Code     0  rtexit2.o(.ARM.Collect$$rtexit$$00000002)
    __rt_exit_exit                           0x08000497   Thumb Code     0  rtexit2.o(.ARM.Collect$$rtexit$$00000004)
    Reset_Handler                            0x0800049d   Thumb Code     8  startup_mm32f3277g.o(.text)
    NMI_Handler                              0x080004a5   Thumb Code     2  startup_mm32f3277g.o(.text)
    HardFault_Handler                        0x080004a7   Thumb Code     2  startup_mm32f3277g.o(.text)
    MemManage_Handler                        0x080004a9   Thumb Code     2  startup_mm32f3277g.o(.text)
    BusFault_Handler                         0x080004ab   Thumb Code     2  startup_mm32f3277g.o(.text)
    UsageFault_Handler                       0x080004ad   Thumb Code     2  startup_mm32f3277g.o(.text)
    SVC_Handler                              0x080004af   Thumb Code     2  startup_mm32f3277g.o(.text)
    DebugMon_Handler                         0x080004b1   Thumb Code     2  startup_mm32f3277g.o(.text)
    PendSV_Handler                           0x080004b3   Thumb Code     2  startup_mm32f3277g.o(.text)
    ADC1_2_IRQHandler                        0x080004b7   Thumb Code     0  startup_mm32f3277g.o(.text)
    ADC3_IRQHandler                          0x080004b7   Thumb Code     0  startup_mm32f3277g.o(.text)
    CAN1_RX_IRQHandler                       0x080004b7   Thumb Code     0  startup_mm32f3277g.o(.text)
    COMP1_2_IRQHandler                       0x080004b7   Thumb Code     0  startup_mm32f3277g.o(.text)
    DMA1_Channel1_IRQHandler                 0x080004b7   Thumb Code     0  startup_mm32f3277g.o(.text)
    DMA1_Channel2_IRQHandler                 0x080004b7   Thumb Code     0  startup_mm32f3277g.o(.text)
    DMA1_Channel3_IRQHandler                 0x080004b7   Thumb Code     0  startup_mm32f3277g.o(.text)
    DMA1_Channel4_IRQHandler                 0x080004b7   Thumb Code     0  startup_mm32f3277g.o(.text)
    DMA1_Channel5_IRQHandler                 0x080004b7   Thumb Code     0  startup_mm32f3277g.o(.text)
    DMA1_Channel6_IRQHandler                 0x080004b7   Thumb Code     0  startup_mm32f3277g.o(.text)
    DMA1_Channel7_IRQHandler                 0x080004b7   Thumb Code     0  startup_mm32f3277g.o(.text)
    DMA2_Channel1_IRQHandler                 0x080004b7   Thumb Code     0  startup_mm32f3277g.o(.text)
    DMA2_Channel2_IRQHandler                 0x080004b7   Thumb Code     0  startup_mm32f3277g.o(.text)
    DMA2_Channel3_IRQHandler                 0x080004b7   Thumb Code     0  startup_mm32f3277g.o(.text)
    DMA2_Channel4_IRQHandler                 0x080004b7   Thumb Code     0  startup_mm32f3277g.o(.text)
    DMA2_Channel5_IRQHandler                 0x080004b7   Thumb Code     0  startup_mm32f3277g.o(.text)
    ETH_IRQHandler                           0x080004b7   Thumb Code     0  startup_mm32f3277g.o(.text)
    EXTI0_IRQHandler                         0x080004b7   Thumb Code     0  startup_mm32f3277g.o(.text)
    EXTI15_10_IRQHandler                     0x080004b7   Thumb Code     0  startup_mm32f3277g.o(.text)
    EXTI1_IRQHandler                         0x080004b7   Thumb Code     0  startup_mm32f3277g.o(.text)
    EXTI2_IRQHandler                         0x080004b7   Thumb Code     0  startup_mm32f3277g.o(.text)
    EXTI3_IRQHandler                         0x080004b7   Thumb Code     0  startup_mm32f3277g.o(.text)
    EXTI4_IRQHandler                         0x080004b7   Thumb Code     0  startup_mm32f3277g.o(.text)
    EXTI9_5_IRQHandler                       0x080004b7   Thumb Code     0  startup_mm32f3277g.o(.text)
    FLASH_IRQHandler                         0x080004b7   Thumb Code     0  startup_mm32f3277g.o(.text)
    FlashCache_IRQHandler                    0x080004b7   Thumb Code     0  startup_mm32f3277g.o(.text)
    I2C1_IRQHandler                          0x080004b7   Thumb Code     0  startup_mm32f3277g.o(.text)
    I2C2_IRQHandler                          0x080004b7   Thumb Code     0  startup_mm32f3277g.o(.text)
    OTG_FS_WKUP_IRQHandler                   0x080004b7   Thumb Code     0  startup_mm32f3277g.o(.text)
    PVD_IRQHandler                           0x080004b7   Thumb Code     0  startup_mm32f3277g.o(.text)
    RCC_CRS_IRQHandler                       0x080004b7   Thumb Code     0  startup_mm32f3277g.o(.text)
    RTCAlarm_IRQHandler                      0x080004b7   Thumb Code     0  startup_mm32f3277g.o(.text)
    RTC_IRQHandler                           0x080004b7   Thumb Code     0  startup_mm32f3277g.o(.text)
    SDIO_IRQHandler                          0x080004b7   Thumb Code     0  startup_mm32f3277g.o(.text)
    SPI1_IRQHandler                          0x080004b7   Thumb Code     0  startup_mm32f3277g.o(.text)
    SPI2_IRQHandler                          0x080004b7   Thumb Code     0  startup_mm32f3277g.o(.text)
    SPI3_IRQHandler                          0x080004b7   Thumb Code     0  startup_mm32f3277g.o(.text)
    TAMPER_IRQHandler                        0x080004b7   Thumb Code     0  startup_mm32f3277g.o(.text)
    TIM1_BRK_IRQHandler                      0x080004b7   Thumb Code     0  startup_mm32f3277g.o(.text)
    TIM1_CC_IRQHandler                       0x080004b7   Thumb Code     0  startup_mm32f3277g.o(.text)
    TIM1_TRG_COM_IRQHandler                  0x080004b7   Thumb Code     0  startup_mm32f3277g.o(.text)
    TIM1_UP_IRQHandler                       0x080004b7   Thumb Code     0  startup_mm32f3277g.o(.text)
    TIM2_IRQHandler                          0x080004b7   Thumb Code     0  startup_mm32f3277g.o(.text)
    TIM3_IRQHandler                          0x080004b7   Thumb Code     0  startup_mm32f3277g.o(.text)
    TIM4_IRQHandler                          0x080004b7   Thumb Code     0  startup_mm32f3277g.o(.text)
    TIM5_IRQHandler                          0x080004b7   Thumb Code     0  startup_mm32f3277g.o(.text)
    TIM6_IRQHandler                          0x080004b7   Thumb Code     0  startup_mm32f3277g.o(.text)
    TIM7_IRQHandler                          0x080004b7   Thumb Code     0  startup_mm32f3277g.o(.text)
    TIM8_BRK_IRQHandler                      0x080004b7   Thumb Code     0  startup_mm32f3277g.o(.text)
    TIM8_CC_IRQHandler                       0x080004b7   Thumb Code     0  startup_mm32f3277g.o(.text)
    TIM8_TRG_COM_IRQHandler                  0x080004b7   Thumb Code     0  startup_mm32f3277g.o(.text)
    TIM8_UP_IRQHandler                       0x080004b7   Thumb Code     0  startup_mm32f3277g.o(.text)
    UART1_IRQHandler                         0x080004b7   Thumb Code     0  startup_mm32f3277g.o(.text)
    UART2_IRQHandler                         0x080004b7   Thumb Code     0  startup_mm32f3277g.o(.text)
    UART3_IRQHandler                         0x080004b7   Thumb Code     0  startup_mm32f3277g.o(.text)
    UART4_IRQHandler                         0x080004b7   Thumb Code     0  startup_mm32f3277g.o(.text)
    UART5_IRQHandler                         0x080004b7   Thumb Code     0  startup_mm32f3277g.o(.text)
    UART6_IRQHandler                         0x080004b7   Thumb Code     0  startup_mm32f3277g.o(.text)
    UART7_IRQHandler                         0x080004b7   Thumb Code     0  startup_mm32f3277g.o(.text)
    UART8_IRQHandler                         0x080004b7   Thumb Code     0  startup_mm32f3277g.o(.text)
    WWDG_IRQHandler                          0x080004b7   Thumb Code     0  startup_mm32f3277g.o(.text)
    strlen                                   0x080004c1   Thumb Code    62  strlen.o(.text)
    __aeabi_memcpy                           0x080004ff   Thumb Code     0  rt_memcpy_v6.o(.text)
    __rt_memcpy                              0x080004ff   Thumb Code   138  rt_memcpy_v6.o(.text)
    _memcpy_lastbytes                        0x08000565   Thumb Code     0  rt_memcpy_v6.o(.text)
    __aeabi_memclr4                          0x08000589   Thumb Code     0  rt_memclr_w.o(.text)
    __aeabi_memclr8                          0x08000589   Thumb Code     0  rt_memclr_w.o(.text)
    __rt_memclr_w                            0x08000589   Thumb Code    78  rt_memclr_w.o(.text)
    _memset_w                                0x0800058d   Thumb Code     0  rt_memclr_w.o(.text)
    __aeabi_memcpy4                          0x080005d7   Thumb Code     0  rt_memcpy_w.o(.text)
    __aeabi_memcpy8                          0x080005d7   Thumb Code     0  rt_memcpy_w.o(.text)
    __rt_memcpy_w                            0x080005d7   Thumb Code   100  rt_memcpy_w.o(.text)
    _memcpy_lastbytes_aligned                0x0800061f   Thumb Code     0  rt_memcpy_w.o(.text)
    exit                                     0x0800063b   Thumb Code    18  exit.o(.text)
    __I$use$semihosting                      0x0800064d   Thumb Code     0  use_no_semi.o(.text)
    __use_no_semihosting_swi                 0x0800064d   Thumb Code     2  use_no_semi.o(.text)
    __semihosting_library_function           0x0800064f   Thumb Code     0  indicate_semi.o(.text)
    _sys_exit                                0x08000651   Thumb Code     8  sys_exit.o(.text)
    CLOCK_BootToHSE96MHz                     0x0800065d   Thumb Code   128  drv_sysclk.o(.text.CLOCK_BootToHSE96MHz)
    Drv_SysTick_Config                       0x080006dd   Thumb Code    66  drv_systick.o(.text.Drv_SysTick_Config)
    HAL_GetSysClockFreq                      0x08000721   Thumb Code    12  drv_sysclk.o(.text.HAL_GetSysClockFreq)
    OTG_FS_IRQHandler                        0x08000751   Thumb Code    10  tud_dcd_port.o(.text.OTG_FS_IRQHandler)
    RCC_EnableAHB2Periphs                    0x0800075d   Thumb Code    24  hal_rcc.o(.text.RCC_EnableAHB2Periphs)
    SysTick_Handler                          0x080007a1   Thumb Code    16  drv_systick.o(.text.SysTick_Handler)
    SystemInit                               0x080007b1   Thumb Code     2  system_mm32f3277g.o(.text.SystemInit)
    USB_BufDesp_GetPacketAddr                0x080007b5   Thumb Code     4  hal_usb.o(.text.USB_BufDesp_GetPacketAddr)
    USB_BufDesp_GetPacketSize                0x080007b9   Thumb Code     8  hal_usb.o(.text.USB_BufDesp_GetPacketSize)
    USB_BufDesp_GetTokenPid                  0x080007c1   Thumb Code     8  hal_usb.o(.text.USB_BufDesp_GetTokenPid)
    USB_BufDesp_IsBusy                       0x080007c9   Thumb Code     6  hal_usb.o(.text.USB_BufDesp_IsBusy)
    USB_BufDesp_Reset                        0x080007d1   Thumb Code    12  hal_usb.o(.text.USB_BufDesp_Reset)
    USB_BufDesp_Xfer                         0x080007dd   Thumb Code    52  hal_usb.o(.text.USB_BufDesp_Xfer)
    USB_BusResetHandler                      0x08000811   Thumb Code   152  tud_dcd_port.o(.text.USB_BusResetHandler)
    USB_ClearInterruptStatus                 0x080008a9   Thumb Code    12  hal_usb.o(.text.USB_ClearInterruptStatus)
    USB_Enable                               0x080008b5   Thumb Code    16  hal_usb.o(.text.USB_Enable)
    USB_EnableEndPoint                       0x080008c5   Thumb Code   110  hal_usb.o(.text.USB_EnableEndPoint)
    USB_EnableEndPointStall                  0x08000935   Thumb Code   140  hal_usb.o(.text.USB_EnableEndPointStall)
    USB_EnableInterrupts                     0x080009c1   Thumb Code    20  hal_usb.o(.text.USB_EnableInterrupts)
    USB_EnableOddEvenReset                   0x080009d5   Thumb Code    18  hal_usb.o(.text.USB_EnableOddEvenReset)
    USB_EnableSuspend                        0x080009e9   Thumb Code    18  hal_usb.o(.text.USB_EnableSuspend)
    USB_GetBufDesp                           0x080009fd   Thumb Code    24  hal_usb.o(.text.USB_GetBufDesp)
    USB_GetBufDespOddEven                    0x08000a15   Thumb Code    10  hal_usb.o(.text.USB_GetBufDespOddEven)
    USB_GetBufDespTableAddr                  0x08000a21   Thumb Code    30  hal_usb.o(.text.USB_GetBufDespTableAddr)
    USB_GetEndPointIndex                     0x08000a41   Thumb Code    10  hal_usb.o(.text.USB_GetEndPointIndex)
    USB_GetInterruptStatus                   0x08000a4d   Thumb Code    12  hal_usb.o(.text.USB_GetInterruptStatus)
    USB_GetXferDirection                     0x08000a59   Thumb Code    10  hal_usb.o(.text.USB_GetXferDirection)
    USB_InitDevice                           0x08000a65   Thumb Code    38  hal_usb.o(.text.USB_InitDevice)
    USB_SetBufDespTableAddr                  0x08000a8d   Thumb Code    26  hal_usb.o(.text.USB_SetBufDespTableAddr)
    USB_SetDeviceAddr                        0x08000aa9   Thumb Code    14  hal_usb.o(.text.USB_SetDeviceAddr)
    USB_TokenDoneHandler                     0x08000ab9   Thumb Code   346  tud_dcd_port.o(.text.USB_TokenDoneHandler)
    cdc_task                                 0x080011a9   Thumb Code    34  drv_usb.o(.text.cdc_task)
    cdcd_control_xfer_cb                     0x080011cd   Thumb Code   198  cdc_device.o(.text.cdcd_control_xfer_cb)
    cdcd_init                                0x08001295   Thumb Code    84  cdc_device.o(.text.cdcd_init)
    cdcd_open                                0x080012e9   Thumb Code   328  cdc_device.o(.text.cdcd_open)
    cdcd_reset                               0x08001431   Thumb Code    42  cdc_device.o(.text.cdcd_reset)
    cdcd_xfer_cb                             0x0800145d   Thumb Code   282  cdc_device.o(.text.cdcd_xfer_cb)
    dcd_edpt_clear_stall                     0x08001579   Thumb Code    22  tud_dcd_port.o(.text.dcd_edpt_clear_stall)
    dcd_edpt_open                            0x08001591   Thumb Code    76  tud_dcd_port.o(.text.dcd_edpt_open)
    dcd_edpt_stall                           0x080015dd   Thumb Code    22  tud_dcd_port.o(.text.dcd_edpt_stall)
    dcd_edpt_xfer                            0x080015f5   Thumb Code   166  tud_dcd_port.o(.text.dcd_edpt_xfer)
    dcd_event_bus_reset                      0x0800169d   Thumb Code    36  usbd.o(.text.dcd_event_bus_reset)
    dcd_event_bus_signal                     0x080016c1   Thumb Code    30  usbd.o(.text.dcd_event_bus_signal)
    dcd_event_handler                        0x080016e1   Thumb Code   200  usbd.o(.text.dcd_event_handler)
    dcd_event_setup_received                 0x080017a9   Thumb Code    34  usbd.o(.text.dcd_event_setup_received)
    dcd_event_xfer_complete                  0x080017cd   Thumb Code    44  usbd.o(.text.dcd_event_xfer_complete)
    dcd_init                                 0x080017f9   Thumb Code    42  tud_dcd_port.o(.text.dcd_init)
    dcd_int_disable                          0x08001825   Thumb Code    20  tud_dcd_port.o(.text.dcd_int_disable)
    dcd_int_enable                           0x08001839   Thumb Code    24  tud_dcd_port.o(.text.dcd_int_enable)
    dcd_int_handler                          0x08001851   Thumb Code   212  tud_dcd_port.o(.text.dcd_int_handler)
    dcd_set_address                          0x08001925   Thumb Code    26  tud_dcd_port.o(.text.dcd_set_address)
    main                                     0x080019b9   Thumb Code    26  main.o(.text.main)
    tu_fifo_clear                            0x080020ad   Thumb Code    30  tusb_fifo.o(.text.tu_fifo_clear)
    tu_fifo_config                           0x080020cd   Thumb Code    54  tusb_fifo.o(.text.tu_fifo_config)
    tu_fifo_count                            0x08002105   Thumb Code    22  tusb_fifo.o(.text.tu_fifo_count)
    tu_fifo_empty                            0x0800211d   Thumb Code    14  tusb_fifo.o(.text.tu_fifo_empty)
    tu_fifo_read                             0x0800212d   Thumb Code    32  tusb_fifo.o(.text.tu_fifo_read)
    tu_fifo_read_n                           0x0800214d   Thumb Code    10  tusb_fifo.o(.text.tu_fifo_read_n)
    tu_fifo_remaining                        0x08002159   Thumb Code    12  tusb_fifo.o(.text.tu_fifo_remaining)
    tu_fifo_set_overwritable                 0x08002165   Thumb Code     8  tusb_fifo.o(.text.tu_fifo_set_overwritable)
    tu_fifo_write                            0x0800216d   Thumb Code    62  tusb_fifo.o(.text.tu_fifo_write)
    tu_fifo_write_n                          0x080021ad   Thumb Code    10  tusb_fifo.o(.text.tu_fifo_write_n)
    tud_cdc_n_available                      0x080021c5   Thumb Code    26  cdc_device.o(.text.tud_cdc_n_available)
    tud_cdc_n_read                           0x080021e1   Thumb Code    40  cdc_device.o(.text.tud_cdc_n_read)
    tud_cdc_n_write                          0x08002209   Thumb Code    54  cdc_device.o(.text.tud_cdc_n_write)
    tud_cdc_n_write_flush                    0x08002241   Thumb Code   142  cdc_device.o(.text.tud_cdc_n_write_flush)
    tud_control_status                       0x080022fd   Thumb Code    34  usbd_control.o(.text.tud_control_status)
    tud_control_xfer                         0x08002321   Thumb Code   136  usbd_control.o(.text.tud_control_xfer)
    tud_descriptor_configuration_cb          0x080023a9   Thumb Code    10  tud_usb_descriptors.o(.text.tud_descriptor_configuration_cb)
    tud_descriptor_device_cb                 0x080023b5   Thumb Code    10  tud_usb_descriptors.o(.text.tud_descriptor_device_cb)
    tud_descriptor_string_cb                 0x080023c1   Thumb Code   122  tud_usb_descriptors.o(.text.tud_descriptor_string_cb)
    tud_init                                 0x0800243d   Thumb Code   138  usbd.o(.text.tud_init)
    tud_inited                               0x080024c9   Thumb Code    12  usbd.o(.text.tud_inited)
    tud_mounted                              0x080024d5   Thumb Code    18  usbd.o(.text.tud_mounted)
    tud_suspended                            0x080024e9   Thumb Code    16  usbd.o(.text.tud_suspended)
    tud_task                                 0x080024f9   Thumb Code   484  usbd.o(.text.tud_task)
    tusb_init                                0x080026dd   Thumb Code    30  tusb.o(.text.tusb_init)
    tusb_inited                              0x080026fd   Thumb Code     8  tusb.o(.text.tusb_inited)
    usbd_control_reset                       0x08002705   Thumb Code    22  usbd_control.o(.text.usbd_control_reset)
    usbd_control_set_complete_callback       0x0800271d   Thumb Code    12  usbd_control.o(.text.usbd_control_set_complete_callback)
    usbd_control_set_request                 0x08002729   Thumb Code    24  usbd_control.o(.text.usbd_control_set_request)
    usbd_control_xfer_cb                     0x08002741   Thumb Code   276  usbd_control.o(.text.usbd_control_xfer_cb)
    usbd_edpt_claim                          0x08002855   Thumb Code    72  usbd.o(.text.usbd_edpt_claim)
    usbd_edpt_clear_stall                    0x0800289d   Thumb Code    66  usbd.o(.text.usbd_edpt_clear_stall)
    usbd_edpt_open                           0x080028e1   Thumb Code   230  usbd.o(.text.usbd_edpt_open)
    usbd_edpt_release                        0x080029c9   Thumb Code    64  usbd.o(.text.usbd_edpt_release)
    usbd_edpt_stall                          0x08002a09   Thumb Code    66  usbd.o(.text.usbd_edpt_stall)
    usbd_edpt_stalled                        0x08002a4d   Thumb Code    40  usbd.o(.text.usbd_edpt_stalled)
    usbd_edpt_xfer                           0x08002a75   Thumb Code   146  usbd.o(.text.usbd_edpt_xfer)
    usbd_open_edpt_pair                      0x08002b09   Thumb Code   152  usbd.o(.text.usbd_open_edpt_pair)
    desc_device                              0x08002c18   Data          18  tud_usb_descriptors.o(.rodata.desc_device)
    desc_fs_configuration                    0x08002c2a   Data          75  tud_usb_descriptors.o(.rodata.desc_fs_configuration)
    Region$$Table$$Base                      0x08002ca0   Number         0  anon$$obj.o(Region$$Table)
    Region$$Table$$Limit                     0x08002cc0   Number         0  anon$$obj.o(Region$$Table)
    _usbd_qdef                               0x20000004   Data          24  usbd.o(.data._usbd_qdef)
    string_desc_arr                          0x2000001c   Data          20  tud_usb_descriptors.o(.data.string_desc_arr)
    _usbd_qdef_buf                           0x20000400   Data         192  usbd.o(.bss._usbd_qdef_buf)
    Image$$ARM_LIB_HEAP$$ZI$$Base            0x20000910   Number         0  anon$$obj.o ABSOLUTE
    Image$$ARM_LIB_HEAP$$ZI$$Limit           0x20000d10   Number         0  anon$$obj.o ABSOLUTE
    Image$$ARM_LIB_STACK$$ZI$$Limit          0x20020000   Number         0  anon$$obj.o ABSOLUTE



==============================================================================

Memory Map of the image

  Image Entry point : 0x08000401

  Load Region LR_m_text (Base: 0x08000000, Size: 0x00003000, Max: 0x00080000, ABSOLUTE)

    Execution Region VECTOR_ROM (Exec base: 0x08000000, Load base: 0x08000000, Size: 0x00000190, Max: 0x00000400, ABSOLUTE)

    Exec Addr    Load Addr    Size         Type   Attr      Idx    E Section Name        Object

    0x08000000   0x08000000   0x00000190   Data   RO          465    RESET               startup_mm32f3277g.o


    Execution Region ER_m_text (Exec base: 0x08000400, Load base: 0x08000400, Size: 0x000028c0, Max: 0x0007fc00, ABSOLUTE, FIXED)

    Exec Addr    Load Addr    Size         Type   Attr      Idx    E Section Name        Object

    0x08000400   0x08000400   0x00000008   Code   RO         1270  * !!!main             c_w.l(__main.o)
    0x08000408   0x08000408   0x00000034   Code   RO         1448    !!!scatter          c_w.l(__scatter.o)
    0x0800043c   0x0800043c   0x0000001a   Code   RO         1450    !!handler_copy      c_w.l(__scatter_copy.o)
    0x08000456   0x08000456   0x00000002   PAD
    0x08000458   0x08000458   0x0000001c   Code   RO         1452    !!handler_zi        c_w.l(__scatter_zi.o)
    0x08000474   0x08000474   0x00000002   Code   RO         1304    .ARM.Collect$$libinit$$00000000  c_w.l(libinit.o)
    0x08000476   0x08000476   0x00000000   Code   RO         1315    .ARM.Collect$$libinit$$00000002  c_w.l(libinit2.o)
    0x08000476   0x08000476   0x00000000   Code   RO         1317    .ARM.Collect$$libinit$$00000004  c_w.l(libinit2.o)
    0x08000476   0x08000476   0x00000000   Code   RO         1320    .ARM.Collect$$libinit$$0000000A  c_w.l(libinit2.o)
    0x08000476   0x08000476   0x00000000   Code   RO         1322    .ARM.Collect$$libinit$$0000000C  c_w.l(libinit2.o)
    0x08000476   0x08000476   0x00000000   Code   RO         1324    .ARM.Collect$$libinit$$0000000E  c_w.l(libinit2.o)
    0x08000476   0x08000476   0x00000000   Code   RO         1327    .ARM.Collect$$libinit$$00000011  c_w.l(libinit2.o)
    0x08000476   0x08000476   0x00000000   Code   RO         1329    .ARM.Collect$$libinit$$00000013  c_w.l(libinit2.o)
    0x08000476   0x08000476   0x00000000   Code   RO         1331    .ARM.Collect$$libinit$$00000015  c_w.l(libinit2.o)
    0x08000476   0x08000476   0x00000000   Code   RO         1333    .ARM.Collect$$libinit$$00000017  c_w.l(libinit2.o)
    0x08000476   0x08000476   0x00000000   Code   RO         1335    .ARM.Collect$$libinit$$00000019  c_w.l(libinit2.o)
    0x08000476   0x08000476   0x00000000   Code   RO         1337    .ARM.Collect$$libinit$$0000001B  c_w.l(libinit2.o)
    0x08000476   0x08000476   0x00000000   Code   RO         1339    .ARM.Collect$$libinit$$0000001D  c_w.l(libinit2.o)
    0x08000476   0x08000476   0x00000000   Code   RO         1341    .ARM.Collect$$libinit$$0000001F  c_w.l(libinit2.o)
    0x08000476   0x08000476   0x00000000   Code   RO         1343    .ARM.Collect$$libinit$$00000021  c_w.l(libinit2.o)
    0x08000476   0x08000476   0x00000000   Code   RO         1345    .ARM.Collect$$libinit$$00000023  c_w.l(libinit2.o)
    0x08000476   0x08000476   0x00000000   Code   RO         1347    .ARM.Collect$$libinit$$00000025  c_w.l(libinit2.o)
    0x08000476   0x08000476   0x00000000   Code   RO         1351    .ARM.Collect$$libinit$$0000002C  c_w.l(libinit2.o)
    0x08000476   0x08000476   0x00000000   Code   RO         1353    .ARM.Collect$$libinit$$0000002E  c_w.l(libinit2.o)
    0x08000476   0x08000476   0x00000000   Code   RO         1355    .ARM.Collect$$libinit$$00000030  c_w.l(libinit2.o)
    0x08000476   0x08000476   0x00000000   Code   RO         1357    .ARM.Collect$$libinit$$00000032  c_w.l(libinit2.o)
    0x08000476   0x08000476   0x00000002   Code   RO         1358    .ARM.Collect$$libinit$$00000033  c_w.l(libinit2.o)
    0x08000478   0x08000478   0x00000002   Code   RO         1387    .ARM.Collect$$libshutdown$$00000000  c_w.l(libshutdown.o)
    0x0800047a   0x0800047a   0x00000000   Code   RO         1399    .ARM.Collect$$libshutdown$$00000002  c_w.l(libshutdown2.o)
    0x0800047a   0x0800047a   0x00000000   Code   RO         1401    .ARM.Collect$$libshutdown$$00000004  c_w.l(libshutdown2.o)
    0x0800047a   0x0800047a   0x00000000   Code   RO         1404    .ARM.Collect$$libshutdown$$00000007  c_w.l(libshutdown2.o)
    0x0800047a   0x0800047a   0x00000000   Code   RO         1407    .ARM.Collect$$libshutdown$$0000000A  c_w.l(libshutdown2.o)
    0x0800047a   0x0800047a   0x00000000   Code   RO         1409    .ARM.Collect$$libshutdown$$0000000C  c_w.l(libshutdown2.o)
    0x0800047a   0x0800047a   0x00000000   Code   RO         1412    .ARM.Collect$$libshutdown$$0000000F  c_w.l(libshutdown2.o)
    0x0800047a   0x0800047a   0x00000002   Code   RO         1413    .ARM.Collect$$libshutdown$$00000010  c_w.l(libshutdown2.o)
    0x0800047c   0x0800047c   0x00000000   Code   RO         1272    .ARM.Collect$$rtentry$$00000000  c_w.l(__rtentry.o)
    0x0800047c   0x0800047c   0x00000000   Code   RO         1276    .ARM.Collect$$rtentry$$00000002  c_w.l(__rtentry2.o)
    0x0800047c   0x0800047c   0x00000004   Code   RO         1290    .ARM.Collect$$rtentry$$00000007  c_w.l(__rtentry7.o)
    0x08000480   0x08000480   0x00000000   Code   RO         1278    .ARM.Collect$$rtentry$$00000009  c_w.l(__rtentry2.o)
    0x08000480   0x08000480   0x00000004   Code   RO         1279    .ARM.Collect$$rtentry$$0000000A  c_w.l(__rtentry2.o)
    0x08000484   0x08000484   0x00000000   Code   RO         1281    .ARM.Collect$$rtentry$$0000000C  c_w.l(__rtentry2.o)
    0x08000484   0x08000484   0x00000008   Code   RO         1282    .ARM.Collect$$rtentry$$0000000D  c_w.l(__rtentry2.o)
    0x0800048c   0x0800048c   0x00000004   Code   RO         1291    .ARM.Collect$$rtentry$$00002718  c_w.l(__rtentry7.o)
    0x08000490   0x08000490   0x00000002   Code   RO         1312    .ARM.Collect$$rtexit$$00000000  c_w.l(rtexit.o)
    0x08000492   0x08000492   0x00000000   Code   RO         1367    .ARM.Collect$$rtexit$$00000002  c_w.l(rtexit2.o)
    0x08000492   0x08000492   0x00000004   Code   RO         1368    .ARM.Collect$$rtexit$$00000003  c_w.l(rtexit2.o)
    0x08000496   0x08000496   0x00000006   Code   RO         1369    .ARM.Collect$$rtexit$$00000004  c_w.l(rtexit2.o)
    0x0800049c   0x0800049c   0x00000024   Code   RO          466    .text               startup_mm32f3277g.o
    0x080004c0   0x080004c0   0x0000003e   Code   RO         1264    .text               c_w.l(strlen.o)
    0x080004fe   0x080004fe   0x0000008a   Code   RO         1266    .text               c_w.l(rt_memcpy_v6.o)
    0x08000588   0x08000588   0x0000004e   Code   RO         1268    .text               c_w.l(rt_memclr_w.o)
    0x080005d6   0x080005d6   0x00000064   Code   RO         1273    .text               c_w.l(rt_memcpy_w.o)
    0x0800063a   0x0800063a   0x00000012   Code   RO         1297    .text               c_w.l(exit.o)
    0x0800064c   0x0800064c   0x00000002   Code   RO         1363    .text               c_w.l(use_no_semi.o)
    0x0800064e   0x0800064e   0x00000000   Code   RO         1365    .text               c_w.l(indicate_semi.o)
    0x0800064e   0x0800064e   0x00000002   PAD
    0x08000650   0x08000650   0x0000000c   Code   RO         1377    .text               c_w.l(sys_exit.o)
    0x0800065c   0x0800065c   0x00000080   Code   RO          321    .text.CLOCK_BootToHSE96MHz  drv_sysclk.o
    0x080006dc   0x080006dc   0x00000042   Code   RO          335    .text.Drv_SysTick_Config  drv_systick.o
    0x0800071e   0x0800071e   0x00000002   PAD
    0x08000720   0x08000720   0x0000000c   Code   RO          313    .text.HAL_GetSysClockFreq  drv_sysclk.o
    0x0800072c   0x0800072c   0x00000024   Code   RO          343    .text.NVIC_EncodePriority  drv_systick.o
    0x08000750   0x08000750   0x0000000a   Code   RO          424    .text.OTG_FS_IRQHandler  tud_dcd_port.o
    0x0800075a   0x0800075a   0x00000002   PAD
    0x0800075c   0x0800075c   0x00000018   Code   RO          754    .text.RCC_EnableAHB2Periphs  hal_rcc.o
    0x08000774   0x08000774   0x0000002a   Code   RO          337    .text.SysTick_Config  drv_systick.o
    0x0800079e   0x0800079e   0x00000002   PAD
    0x080007a0   0x080007a0   0x00000010   Code   RO          345    .text.SysTick_Handler  drv_systick.o
    0x080007b0   0x080007b0   0x00000002   Code   RO          458    .text.SystemInit    system_mm32f3277g.o
    0x080007b2   0x080007b2   0x00000002   PAD
    0x080007b4   0x080007b4   0x00000004   Code   RO         1213    .text.USB_BufDesp_GetPacketAddr  hal_usb.o
    0x080007b8   0x080007b8   0x00000008   Code   RO         1215    .text.USB_BufDesp_GetPacketSize  hal_usb.o
    0x080007c0   0x080007c0   0x00000008   Code   RO         1211    .text.USB_BufDesp_GetTokenPid  hal_usb.o
    0x080007c8   0x080007c8   0x00000006   Code   RO         1227    .text.USB_BufDesp_IsBusy  hal_usb.o
    0x080007ce   0x080007ce   0x00000002   PAD
    0x080007d0   0x080007d0   0x0000000c   Code   RO         1217    .text.USB_BufDesp_Reset  hal_usb.o
    0x080007dc   0x080007dc   0x00000034   Code   RO         1225    .text.USB_BufDesp_Xfer  hal_usb.o
    0x08000810   0x08000810   0x00000098   Code   RO          390    .text.USB_BusResetHandler  tud_dcd_port.o
    0x080008a8   0x080008a8   0x0000000c   Code   RO         1185    .text.USB_ClearInterruptStatus  hal_usb.o
    0x080008b4   0x080008b4   0x00000010   Code   RO         1177    .text.USB_Enable    hal_usb.o
    0x080008c4   0x080008c4   0x0000006e   Code   RO         1229    .text.USB_EnableEndPoint  hal_usb.o
    0x08000932   0x08000932   0x00000002   PAD
    0x08000934   0x08000934   0x0000008c   Code   RO         1231    .text.USB_EnableEndPointStall  hal_usb.o
    0x080009c0   0x080009c0   0x00000014   Code   RO         1179    .text.USB_EnableInterrupts  hal_usb.o
    0x080009d4   0x080009d4   0x00000012   Code   RO         1197    .text.USB_EnableOddEvenReset  hal_usb.o
    0x080009e6   0x080009e6   0x00000002   PAD
    0x080009e8   0x080009e8   0x00000012   Code   RO         1201    .text.USB_EnableSuspend  hal_usb.o
    0x080009fa   0x080009fa   0x00000002   PAD
    0x080009fc   0x080009fc   0x00000018   Code   RO         1209    .text.USB_GetBufDesp  hal_usb.o
    0x08000a14   0x08000a14   0x0000000a   Code   RO         1223    .text.USB_GetBufDespOddEven  hal_usb.o
    0x08000a1e   0x08000a1e   0x00000002   PAD
    0x08000a20   0x08000a20   0x0000001e   Code   RO         1205    .text.USB_GetBufDespTableAddr  hal_usb.o
    0x08000a3e   0x08000a3e   0x00000002   PAD
    0x08000a40   0x08000a40   0x0000000a   Code   RO         1219    .text.USB_GetEndPointIndex  hal_usb.o
    0x08000a4a   0x08000a4a   0x00000002   PAD
    0x08000a4c   0x08000a4c   0x0000000c   Code   RO         1183    .text.USB_GetInterruptStatus  hal_usb.o
    0x08000a58   0x08000a58   0x0000000a   Code   RO         1221    .text.USB_GetXferDirection  hal_usb.o
    0x08000a62   0x08000a62   0x00000002   PAD
    0x08000a64   0x08000a64   0x00000026   Code   RO         1173    .text.USB_InitDevice  hal_usb.o
    0x08000a8a   0x08000a8a   0x00000002   PAD
    0x08000a8c   0x08000a8c   0x0000001a   Code   RO         1171    .text.USB_SetBufDespTableAddr  hal_usb.o
    0x08000aa6   0x08000aa6   0x00000002   PAD
    0x08000aa8   0x08000aa8   0x0000000e   Code   RO         1175    .text.USB_SetDeviceAddr  hal_usb.o
    0x08000ab6   0x08000ab6   0x00000002   PAD
    0x08000ab8   0x08000ab8   0x0000015a   Code   RO          392    .text.USB_TokenDoneHandler  tud_dcd_port.o
    0x08000c12   0x08000c12   0x00000002   PAD
    0x08000c14   0x08000c14   0x0000000e   Code   RO          396    .text.__NVIC_ClearPendingIRQ  tud_dcd_port.o
    0x08000c22   0x08000c22   0x00000002   PAD
    0x08000c24   0x08000c24   0x00000016   Code   RO          408    .text.__NVIC_DisableIRQ  tud_dcd_port.o
    0x08000c3a   0x08000c3a   0x00000002   PAD
    0x08000c3c   0x08000c3c   0x0000000e   Code   RO          404    .text.__NVIC_EnableIRQ  tud_dcd_port.o
    0x08000c4a   0x08000c4a   0x00000002   PAD
    0x08000c4c   0x08000c4c   0x00000010   Code   RO          339    .text.__NVIC_GetPriorityGrouping  drv_systick.o
    0x08000c5c   0x08000c5c   0x0000000e   Code   RO          341    .text.__NVIC_SetPriority  drv_systick.o
    0x08000c6a   0x08000c6a   0x00000002   PAD
    0x08000c6c   0x08000c6c   0x0000000e   Code   RO          402    .text.__NVIC_SetPriority  tud_dcd_port.o
    0x08000c7a   0x08000c7a   0x00000002   PAD
    0x08000c7c   0x08000c7c   0x0000005a   Code   RO          230    .text._data_stage_xact  usbd_control.o
    0x08000cd6   0x08000cd6   0x00000002   PAD
    0x08000cd8   0x08000cd8   0x0000000e   Code   RO          101    .text._ff_mod       tusb_fifo.o
    0x08000ce6   0x08000ce6   0x00000002   PAD
    0x08000ce8   0x08000ce8   0x00000018   Code   RO           95    .text._ff_pull      tusb_fifo.o
    0x08000d00   0x08000d00   0x00000034   Code   RO           99    .text._ff_pull_const_addr  tusb_fifo.o
    0x08000d34   0x08000d34   0x000000fa   Code   RO           97    .text._ff_pull_n    tusb_fifo.o
    0x08000e2e   0x08000e2e   0x00000002   PAD
    0x08000e30   0x08000e30   0x00000014   Code   RO           73    .text._ff_push      tusb_fifo.o
    0x08000e44   0x08000e44   0x00000036   Code   RO          105    .text._ff_push_const_addr  tusb_fifo.o
    0x08000e7a   0x08000e7a   0x00000002   PAD
    0x08000e7c   0x08000e7c   0x000000f4   Code   RO          103    .text._ff_push_n    tusb_fifo.o
    0x08000f70   0x08000f70   0x00000012   Code   RO          191    .text._osal_q_lock  usbd.o
    0x08000f82   0x08000f82   0x00000002   PAD
    0x08000f84   0x08000f84   0x00000012   Code   RO          193    .text._osal_q_unlock  usbd.o
    0x08000f96   0x08000f96   0x00000002   PAD
    0x08000f98   0x08000f98   0x00000042   Code   RO          264    .text._prep_out_transaction  cdc_device.o
    0x08000fda   0x08000fda   0x00000002   PAD
    0x08000fdc   0x08000fdc   0x00000014   Code   RO          226    .text._status_stage_xact  usbd_control.o
    0x08000ff0   0x08000ff0   0x0000000e   Code   RO           49    .text._tu_fifo_correct_read_pointer  tusb_fifo.o
    0x08000ffe   0x08000ffe   0x00000002   PAD
    0x08001000   0x08001000   0x0000000c   Code   RO           29    .text._tu_fifo_count  tusb_fifo.o
    0x0800100c   0x0800100c   0x0000000a   Code   RO           33    .text._tu_fifo_empty  tusb_fifo.o
    0x08001016   0x08001016   0x00000002   PAD
    0x08001018   0x08001018   0x00000014   Code   RO           37    .text._tu_fifo_full  tusb_fifo.o
    0x0800102c   0x0800102c   0x00000046   Code   RO           53    .text._tu_fifo_peek  tusb_fifo.o
    0x08001072   0x08001072   0x00000002   PAD
    0x08001074   0x08001074   0x00000056   Code   RO           67    .text._tu_fifo_peek_n  tusb_fifo.o
    0x080010ca   0x080010ca   0x00000002   PAD
    0x080010cc   0x080010cc   0x0000002e   Code   RO           59    .text._tu_fifo_read_n  tusb_fifo.o
    0x080010fa   0x080010fa   0x00000002   PAD
    0x080010fc   0x080010fc   0x0000000e   Code   RO           41    .text._tu_fifo_remaining  tusb_fifo.o
    0x0800110a   0x0800110a   0x00000002   PAD
    0x0800110c   0x0800110c   0x0000006a   Code   RO           77    .text._tu_fifo_write_n  tusb_fifo.o
    0x08001176   0x08001176   0x00000002   PAD
    0x08001178   0x08001178   0x00000016   Code   RO           55    .text.advance_pointer  tusb_fifo.o
    0x0800118e   0x0800118e   0x00000002   PAD
    0x08001190   0x08001190   0x00000016   Code   RO           93    .text.backward_pointer  tusb_fifo.o
    0x080011a6   0x080011a6   0x00000002   PAD
    0x080011a8   0x080011a8   0x00000022   Code   RO          368    .text.cdc_task      drv_usb.o
    0x080011ca   0x080011ca   0x00000002   PAD
    0x080011cc   0x080011cc   0x000000c6   Code   RO          290    .text.cdcd_control_xfer_cb  cdc_device.o
    0x08001292   0x08001292   0x00000002   PAD
    0x08001294   0x08001294   0x00000054   Code   RO          278    .text.cdcd_init     cdc_device.o
    0x080012e8   0x080012e8   0x00000148   Code   RO          282    .text.cdcd_open     cdc_device.o
    0x08001430   0x08001430   0x0000002a   Code   RO          280    .text.cdcd_reset    cdc_device.o
    0x0800145a   0x0800145a   0x00000002   PAD
    0x0800145c   0x0800145c   0x0000011a   Code   RO          292    .text.cdcd_xfer_cb  cdc_device.o
    0x08001576   0x08001576   0x00000002   PAD
    0x08001578   0x08001578   0x00000016   Code   RO          422    .text.dcd_edpt_clear_stall  tud_dcd_port.o
    0x0800158e   0x0800158e   0x00000002   PAD
    0x08001590   0x08001590   0x0000004c   Code   RO          416    .text.dcd_edpt_open  tud_dcd_port.o
    0x080015dc   0x080015dc   0x00000016   Code   RO          420    .text.dcd_edpt_stall  tud_dcd_port.o
    0x080015f2   0x080015f2   0x00000002   PAD
    0x080015f4   0x080015f4   0x000000a6   Code   RO          412    .text.dcd_edpt_xfer  tud_dcd_port.o
    0x0800169a   0x0800169a   0x00000002   PAD
    0x0800169c   0x0800169c   0x00000024   Code   RO          159    .text.dcd_event_bus_reset  usbd.o
    0x080016c0   0x080016c0   0x0000001e   Code   RO          157    .text.dcd_event_bus_signal  usbd.o
    0x080016de   0x080016de   0x00000002   PAD
    0x080016e0   0x080016e0   0x000000c8   Code   RO          153    .text.dcd_event_handler  usbd.o
    0x080017a8   0x080017a8   0x00000022   Code   RO          161    .text.dcd_event_setup_received  usbd.o
    0x080017ca   0x080017ca   0x00000002   PAD
    0x080017cc   0x080017cc   0x0000002c   Code   RO          163    .text.dcd_event_xfer_complete  usbd.o
    0x080017f8   0x080017f8   0x0000002a   Code   RO          394    .text.dcd_init      tud_dcd_port.o
    0x08001822   0x08001822   0x00000002   PAD
    0x08001824   0x08001824   0x00000014   Code   RO          406    .text.dcd_int_disable  tud_dcd_port.o
    0x08001838   0x08001838   0x00000018   Code   RO          400    .text.dcd_int_enable  tud_dcd_port.o
    0x08001850   0x08001850   0x000000d4   Code   RO          398    .text.dcd_int_handler  tud_dcd_port.o
    0x08001924   0x08001924   0x0000001a   Code   RO          410    .text.dcd_set_address  tud_dcd_port.o
    0x0800193e   0x0800193e   0x00000002   PAD
    0x08001940   0x08001940   0x0000004a   Code   RO          135    .text.get_driver    usbd.o
    0x0800198a   0x0800198a   0x00000002   PAD
    0x0800198c   0x0800198c   0x0000000e   Code   RO           71    .text.get_relative_pointer  tusb_fifo.o
    0x0800199a   0x0800199a   0x00000002   PAD
    0x0800199c   0x0800199c   0x0000001c   Code   RO          195    .text.invoke_class_control  usbd.o
    0x080019b8   0x080019b8   0x0000001a   Code   RO            4    .text.main          main.o
    0x080019d2   0x080019d2   0x00000002   PAD
    0x080019d4   0x080019d4   0x00000060   Code   RO          203    .text.mark_interface_endpoint  usbd.o
    0x08001a34   0x08001a34   0x00000012   Code   RO          133    .text.osal_queue_create  usbd.o
    0x08001a46   0x08001a46   0x00000002   PAD
    0x08001a48   0x08001a48   0x0000001e   Code   RO          143    .text.osal_queue_receive  usbd.o
    0x08001a66   0x08001a66   0x00000002   PAD
    0x08001a68   0x08001a68   0x00000040   Code   RO          155    .text.osal_queue_send  usbd.o
    0x08001aa8   0x08001aa8   0x00000320   Code   RO          147    .text.process_control_request  usbd.o
    0x08001dc8   0x08001dc8   0x000000be   Code   RO          199    .text.process_get_descriptor  usbd.o
    0x08001e86   0x08001e86   0x00000002   PAD
    0x08001e88   0x08001e88   0x000001f4   Code   RO          197    .text.process_set_config  usbd.o
    0x0800207c   0x0800207c   0x00000004   Code   RO          205    .text.tu_desc_len   usbd.o
    0x08002080   0x08002080   0x00000004   Code   RO          288    .text.tu_desc_len   cdc_device.o
    0x08002084   0x08002084   0x00000006   Code   RO          169    .text.tu_desc_next  usbd.o
    0x0800208a   0x0800208a   0x00000002   PAD
    0x0800208c   0x0800208c   0x00000006   Code   RO          284    .text.tu_desc_next  cdc_device.o
    0x08002092   0x08002092   0x00000002   PAD
    0x08002094   0x08002094   0x00000004   Code   RO          201    .text.tu_desc_type  usbd.o
    0x08002098   0x08002098   0x00000004   Code   RO          286    .text.tu_desc_type  cdc_device.o
    0x0800209c   0x0800209c   0x00000004   Code   RO          151    .text.tu_edpt_dir   usbd.o
    0x080020a0   0x080020a0   0x00000004   Code   RO          240    .text.tu_edpt_dir   usbd_control.o
    0x080020a4   0x080020a4   0x00000006   Code   RO          149    .text.tu_edpt_number  usbd.o
    0x080020aa   0x080020aa   0x00000002   PAD
    0x080020ac   0x080020ac   0x0000001e   Code   RO           81    .text.tu_fifo_clear  tusb_fifo.o
    0x080020ca   0x080020ca   0x00000002   PAD
    0x080020cc   0x080020cc   0x00000036   Code   RO           25    .text.tu_fifo_config  tusb_fifo.o
    0x08002102   0x08002102   0x00000002   PAD
    0x08002104   0x08002104   0x00000016   Code   RO           27    .text.tu_fifo_count  tusb_fifo.o
    0x0800211a   0x0800211a   0x00000002   PAD
    0x0800211c   0x0800211c   0x0000000e   Code   RO           31    .text.tu_fifo_empty  tusb_fifo.o
    0x0800212a   0x0800212a   0x00000002   PAD
    0x0800212c   0x0800212c   0x00000020   Code   RO           51    .text.tu_fifo_read  tusb_fifo.o
    0x0800214c   0x0800214c   0x0000000a   Code   RO           57    .text.tu_fifo_read_n  tusb_fifo.o
    0x08002156   0x08002156   0x00000002   PAD
    0x08002158   0x08002158   0x0000000c   Code   RO           39    .text.tu_fifo_remaining  tusb_fifo.o
    0x08002164   0x08002164   0x00000008   Code   RO           83    .text.tu_fifo_set_overwritable  tusb_fifo.o
    0x0800216c   0x0800216c   0x0000003e   Code   RO           69    .text.tu_fifo_write  tusb_fifo.o
    0x080021aa   0x080021aa   0x00000002   PAD
    0x080021ac   0x080021ac   0x0000000a   Code   RO           75    .text.tu_fifo_write_n  tusb_fifo.o
    0x080021b6   0x080021b6   0x00000002   PAD
    0x080021b8   0x080021b8   0x0000000a   Code   RO          370    .text.tud_cdc_available  drv_usb.o
    0x080021c2   0x080021c2   0x00000002   PAD
    0x080021c4   0x080021c4   0x0000001a   Code   RO          260    .text.tud_cdc_n_available  cdc_device.o
    0x080021de   0x080021de   0x00000002   PAD
    0x080021e0   0x080021e0   0x00000028   Code   RO          262    .text.tud_cdc_n_read  cdc_device.o
    0x08002208   0x08002208   0x00000036   Code   RO          270    .text.tud_cdc_n_write  cdc_device.o
    0x0800223e   0x0800223e   0x00000002   PAD
    0x08002240   0x08002240   0x0000008e   Code   RO          272    .text.tud_cdc_n_write_flush  cdc_device.o
    0x080022ce   0x080022ce   0x00000002   PAD
    0x080022d0   0x080022d0   0x0000000e   Code   RO          372    .text.tud_cdc_read  drv_usb.o
    0x080022de   0x080022de   0x00000002   PAD
    0x080022e0   0x080022e0   0x0000000e   Code   RO          374    .text.tud_cdc_write  drv_usb.o
    0x080022ee   0x080022ee   0x00000002   PAD
    0x080022f0   0x080022f0   0x0000000a   Code   RO          376    .text.tud_cdc_write_flush  drv_usb.o
    0x080022fa   0x080022fa   0x00000002   PAD
    0x080022fc   0x080022fc   0x00000022   Code   RO          224    .text.tud_control_status  usbd_control.o
    0x0800231e   0x0800231e   0x00000002   PAD
    0x08002320   0x08002320   0x00000088   Code   RO          228    .text.tud_control_xfer  usbd_control.o
    0x080023a8   0x080023a8   0x0000000a   Code   RO          440    .text.tud_descriptor_configuration_cb  tud_usb_descriptors.o
    0x080023b2   0x080023b2   0x00000002   PAD
    0x080023b4   0x080023b4   0x0000000a   Code   RO          438    .text.tud_descriptor_device_cb  tud_usb_descriptors.o
    0x080023be   0x080023be   0x00000002   PAD
    0x080023c0   0x080023c0   0x0000007a   Code   RO          442    .text.tud_descriptor_string_cb  tud_usb_descriptors.o
    0x0800243a   0x0800243a   0x00000002   PAD
    0x0800243c   0x0800243c   0x0000008a   Code   RO          131    .text.tud_init      usbd.o
    0x080024c6   0x080024c6   0x00000002   PAD
    0x080024c8   0x080024c8   0x0000000c   Code   RO          129    .text.tud_inited    usbd.o
    0x080024d4   0x080024d4   0x00000012   Code   RO          119    .text.tud_mounted   usbd.o
    0x080024e6   0x080024e6   0x00000002   PAD
    0x080024e8   0x080024e8   0x00000010   Code   RO          121    .text.tud_suspended  usbd.o
    0x080024f8   0x080024f8   0x000001e4   Code   RO          141    .text.tud_task      usbd.o
    0x080026dc   0x080026dc   0x0000001e   Code   RO           13    .text.tusb_init     tusb.o
    0x080026fa   0x080026fa   0x00000002   PAD
    0x080026fc   0x080026fc   0x00000008   Code   RO           15    .text.tusb_inited   tusb.o
    0x08002704   0x08002704   0x00000016   Code   RO          232    .text.usbd_control_reset  usbd_control.o
    0x0800271a   0x0800271a   0x00000002   PAD
    0x0800271c   0x0800271c   0x0000000c   Code   RO          234    .text.usbd_control_set_complete_callback  usbd_control.o
    0x08002728   0x08002728   0x00000018   Code   RO          236    .text.usbd_control_set_request  usbd_control.o
    0x08002740   0x08002740   0x00000114   Code   RO          238    .text.usbd_control_xfer_cb  usbd_control.o
    0x08002854   0x08002854   0x00000048   Code   RO          173    .text.usbd_edpt_claim  usbd.o
    0x0800289c   0x0800289c   0x00000042   Code   RO          185    .text.usbd_edpt_clear_stall  usbd.o
    0x080028de   0x080028de   0x00000002   PAD
    0x080028e0   0x080028e0   0x000000e6   Code   RO          167    .text.usbd_edpt_open  usbd.o
    0x080029c6   0x080029c6   0x00000002   PAD
    0x080029c8   0x080029c8   0x00000040   Code   RO          175    .text.usbd_edpt_release  usbd.o
    0x08002a08   0x08002a08   0x00000042   Code   RO          183    .text.usbd_edpt_stall  usbd.o
    0x08002a4a   0x08002a4a   0x00000002   PAD
    0x08002a4c   0x08002a4c   0x00000028   Code   RO          187    .text.usbd_edpt_stalled  usbd.o
    0x08002a74   0x08002a74   0x00000092   Code   RO          177    .text.usbd_edpt_xfer  usbd.o
    0x08002b06   0x08002b06   0x00000002   PAD
    0x08002b08   0x08002b08   0x00000098   Code   RO          165    .text.usbd_open_edpt_pair  usbd.o
    0x08002ba0   0x08002ba0   0x0000005c   Code   RO          145    .text.usbd_reset    usbd.o
    0x08002bfc   0x08002bfc   0x00000002   Data   RO          446    .rodata..compoundliteral  tud_usb_descriptors.o
    0x08002bfe   0x08002bfe   0x00000002   PAD
    0x08002c00   0x08002c00   0x00000018   Data   RO          215    .rodata._usbd_driver  usbd.o
    0x08002c18   0x08002c18   0x00000012   Data   RO          444    .rodata.desc_device  tud_usb_descriptors.o
    0x08002c2a   0x08002c2a   0x0000004b   Data   RO          445    .rodata.desc_fs_configuration  tud_usb_descriptors.o
    0x08002c75   0x08002c75   0x0000002a   Data   RO          447    .rodata.str1.1      tud_usb_descriptors.o
    0x08002c9f   0x08002c9f   0x00000001   PAD
    0x08002ca0   0x08002ca0   0x00000020   Data   RO         1447    Region$$Table       anon$$obj.o


    Execution Region RW_m_data (Exec base: 0x20000000, Load base: 0x08002e00, Size: 0x00000910, Max: 0x0001f800, ABSOLUTE)

    Exec Addr    Load Addr    Size         Type   Attr      Idx    E Section Name        Object

    0x20000000   0x08002e00   0x00000004   Data   RW          323    .data.SystemClockFreq  drv_sysclk.o
    0x20000004   0x08002e04   0x00000018   Data   RW          208    .data._usbd_qdef    usbd.o
    0x2000001c   0x08002e1c   0x00000014   Data   RW          448    .data.string_desc_arr  tud_usb_descriptors.o
    0x20000030   0x08002e30   0x000001d0   PAD
    0x20000200        -       0x00000004   Zero   RW          213    .bss._app_driver    usbd.o
    0x20000204        -       0x00000001   Zero   RW          212    .bss._app_driver_count  usbd.o
    0x20000205   0x08002e30   0x00000003   PAD
    0x20000208        -       0x00000138   Zero   RW          294    .bss._cdcd_itf      cdc_device.o
    0x20000340        -       0x00000014   Zero   RW          242    .bss._ctrl_xfer     usbd_control.o
    0x20000354        -       0x00000040   Zero   RW          449    .bss._desc_str      tud_usb_descriptors.o
    0x20000394        -       0x00000040   Zero   RW          243    .bss._usbd_ctrl_buf  usbd_control.o
    0x200003d4        -       0x00000027   Zero   RW          209    .bss._usbd_dev      usbd.o
    0x200003fb        -       0x00000001   Zero   RW          210    .bss._usbd_initialized  usbd.o
    0x200003fc        -       0x00000004   Zero   RW          211    .bss._usbd_q        usbd.o
    0x20000400        -       0x000000c0   Zero   RW          207    .bss._usbd_qdef_buf  usbd.o
    0x200004c0   0x08002e30   0x00000140   PAD
    0x20000600        -       0x00000200   Zero   RW          427    .bss.usb_bd_tbl     tud_dcd_port.o
    0x20000800        -       0x00000001   Zero   RW          429    .bss.usb_device_addr  tud_dcd_port.o
    0x20000801   0x08002e30   0x00000003   PAD
    0x20000804        -       0x00000100   Zero   RW          426    .bss.usb_epmng_tbl  tud_dcd_port.o
    0x20000904        -       0x00000008   Zero   RW          428    .bss.usb_setup_buff  tud_dcd_port.o
    0x2000090c        -       0x00000004   Zero   RW          351    .bss.uwTick         drv_systick.o


    Execution Region ARM_LIB_HEAP (Exec base: 0x20000910, Load base: 0x08003000, Size: 0x00000400, Max: 0x00000400, ABSOLUTE)

    Exec Addr    Load Addr    Size         Type   Attr      Idx    E Section Name        Object

    0x20000910        -       0x00000400   Zero   RW            1    ARM_LIB_HEAP.bss    anon$$obj.o


    Execution Region ARM_LIB_STACK (Exec base: 0x2001fc00, Load base: 0x08003000, Size: 0x00000400, Max: 0x00000400, ABSOLUTE)

    Exec Addr    Load Addr    Size         Type   Attr      Idx    E Section Name        Object

    0x2001fc00        -       0x00000400   Zero   RW            2    ARM_LIB_STACK.bss   anon$$obj.o


==============================================================================

Image component sizes


      Code (inc. data)   RO Data    RW Data    ZI Data      Debug   Object Name

      1276          4          0          0        312      12457   cdc_device.o
       140          0          0          4          0       3652   drv_sysclk.o
       190          0          0          0          4       4850   drv_systick.o
        82          0          0          0          0       2099   drv_usb.o
        24          0          0          0          0       3154   hal_rcc.o
       598          4          0          0          0       8858   hal_usb.o
        26          0          0          0          0        376   main.o
        36          8        400          0          0        824   startup_mm32f3277g.o
         2          0          0          0          0        381   system_mm32f3277g.o
      1182          0          0          0        777      11237   tud_dcd_port.o
       142          0        137         20         64       2799   tud_usb_descriptors.o
        38          0          0          0          0        828   tusb.o
      1348          0          0          0          0      16102   tusb_fifo.o
      3800         38         24         24        241      22286   usbd.o
       618          0          0          0         84       5164   usbd_control.o

    ----------------------------------------------------------------------
      9668         54        596         48       4320      95067   Object Totals
         0          0         32          0       2048          0   (incl. Generated)
       166          0          3          0        790          0   (incl. Padding)

    ----------------------------------------------------------------------

      Code (inc. data)   RO Data    RW Data    ZI Data      Debug   Library Member Name

         8          0          0          0          0         68   __main.o
         0          0          0          0          0          0   __rtentry.o
        12          0          0          0          0          0   __rtentry2.o
         8          4          0          0          0          0   __rtentry7.o
        52          8          0          0          0          0   __scatter.o
        26          0          0          0          0          0   __scatter_copy.o
        28          0          0          0          0          0   __scatter_zi.o
        18          0          0          0          0         80   exit.o
         0          0          0          0          0          0   indicate_semi.o
         2          0          0          0          0          0   libinit.o
         2          0          0          0          0          0   libinit2.o
         2          0          0          0          0          0   libshutdown.o
         2          0          0          0          0          0   libshutdown2.o
        78          0          0          0          0         80   rt_memclr_w.o
       138          0          0          0          0         68   rt_memcpy_v6.o
       100          0          0          0          0         80   rt_memcpy_w.o
         2          0          0          0          0          0   rtexit.o
        10          0          0          0          0          0   rtexit2.o
        62          0          0          0          0         76   strlen.o
        12          4          0          0          0         68   sys_exit.o
         2          0          0          0          0         68   use_no_semi.o

    ----------------------------------------------------------------------
       568         16          0          0          0        588   Library Totals
         4          0          0          0          0          0   (incl. Padding)

    ----------------------------------------------------------------------

      Code (inc. data)   RO Data    RW Data    ZI Data      Debug   Library Name

       564         16          0          0          0        588   c_w.l

    ----------------------------------------------------------------------
       568         16          0          0          0        588   Library Totals

    ----------------------------------------------------------------------

==============================================================================


      Code (inc. data)   RO Data    RW Data    ZI Data      Debug   

     10236         70        596         48       4320      95287   Grand Totals
     10236         70        596         48       4320      95287   ELF Image Totals
     10236         70        596         48          0          0   ROM Totals

==============================================================================

    Total RO  Size (Code + RO Data)                10832 (  10.58kB)
    Total RW  Size (RW Data + ZI Data)              4368 (   4.27kB)
    Total ROM Size (Code + RO Data + RW Data)      10880 (  10.63kB)

==============================================================================

