:020000040800F2
:10000000000002209D040008A5040008A7040008C1
:10001000A9040008AB040008AD04000800000000BB
:10002000000000000000000000000000AF04000815
:10003000B104000800000000B304000849070008EC
:10004000B7040008B7040008B7040008B7040008A4
:10005000B7040008B7040008B7040008B704000894
:10006000B7040008B7040008B7040008B704000884
:10007000B7040008B7040008B7040008B704000874
:10008000B7040008B7040008B7040008B704000864
:1000900000000000B704000800000000B7040008DA
:1000A000B7040008B7040008B7040008B704000844
:1000B000B7040008B7040008B7040008B704000834
:1000C00000000000B704000800000000B7040008AA
:1000D000B7040008B7040008B7040008B704000814
:1000E000B7040008B7040008B7040008B704000804
:1000F000B7040008B7040008B7040008B7040008F4
:1001000000000000B7040008B7040008B7040008A6
:10011000B7040008B7040008B7040008B7040008D3
:10012000B7040008B7040008B7040008B7040008C3
:10013000B7040008B7040008000000000000000039
:10014000B704000800000000000000008D06000851
:10015000000000000000000000000000B7040008DC
:10016000000000000000000000000000000000008F
:10017000000000000000000000000000000000007F
:100180000000000000000000B7040008B7040008E9
:10019000000000000000000000000000000000005F
:1001A000000000000000000000000000000000004F
:1001B000000000000000000000000000000000003F
:1001C000000000000000000000000000000000002F
:1004000000F002F800F03AF80AA090E8000C8244EC
:100410008344AAF10107DA4501D100F02FF8AFF2C9
:10042000090EBAE80F0013F0010F18BFFB1A43F0D2
:10043000010318474409000064090000103A24BF72
:1004400078C878C1FAD8520724BF30C830C144BF39
:1004500004680C607047000000230024002500267B
:10046000103A28BF78C1FBD8520728BF30C148BF17
:100470000B6070471FB51FBD10B510BDDFF80CD065
:10048000FFF7F8FF00F02EFC00F041F8000002201A
:1004900003B4FFF7F1FF03BC00F044F806488047BF
:1004A00006480047FEE7FEE7FEE7FEE7FEE7FEE759
:1004B000FEE7FEE7FEE7FEE7590700080104000833
:1004C0004FF0000200B5134694469646203922BFED
:1004D000A0E80C50A0E80C50B1F12001BFF4F7AF38
:1004E000090728BFA0E80C5048BF0CC05DF804EB1A
:1004F000890028BF40F8042B08BF704748BF20F888
:10050000022B11F0804F18BF00F8012B704710B577
:100510000446AFF300802046BDE81040FFF7B8BFA7
:100520007047000001491820ABBEFEE7260002001C
:1005300041F20000C4F20200016B012341F080513E
:10054000016347F20001C4F200010A6863F38F32CD
:100550000A60016841F48031016000BF01688903CD
:10056000FCD540F21D11C0F20F018164016841F019
:100570008071016001688901FCD5816A132241F410
:100580000051816242F20001C4F202010A6042F2AB
:100590000041C0F2407141604168022262F30101F2
:1005A000416000BF416801F00C010829FAD1704791
:1005B00080B582B00020019000F050F800900098C3
:1005C00044F6D351C1F26201A0FB0101880900F099
:1005D000A5F818B14FF0FF3002B080BD00F0F8F977
:1005E0000190019800F040F800F0FAF9002002B004
:1005F00080BD000010B582B040F20044C2F2000499
:1006000020464FF40071FFF75BFF80200121019429
:1006100000F078F801A94FF0A04000F09FF94FF0EA
:10062000A040012100F0C8F800F0C2F94FF0A0404E
:100630000121012200F046F94FF0A04008210122DB
:1006400000F040F94FF0A0408021012200F03AF97B
:1006500000F0CEF900F0B4F902B010BD40F2000095
:10066000C2F200000068704700F0070080F0070148
:10067000032928BF03214FF0FF32043802FA01F1A9
:1006800038BF0020C94301FA00F0704780B54FF031
:10069000A04000F05DF9C10723D101072ED4000668
:1006A00058BF80BD4FF0A040802100F07FF84FF090
:1006B000A0400121002200F0BFF840F20020C2F269
:1006C0000000006840F20041C2F2000140F209223D
:1006D00001EBC000C2F200020121082300F04CF837
:1006E00080BD4FF0A040012100F060F840F20920E9
:1006F000C2F20000082100F083F980BD00F0A8FAE2
:1007000080BD0000002941F22401C4F202010A6800
:100710000CBF22EA000010430860704770B5013832
:100720000024B4EB106F1CBF012070BD4EF2100509
:10073000CEF2000568600720072600F051F9204638
:10074000AC602E6070BD000040F20060C2F200009C
:1007500001680131016070477047000040886FF305
:100760009F2070470068C0F383007047017801F054
:10077000C30108310170704790F900C0BCF1000F4F
:100780000ED442600CF03F0242EA811142886FF3BE
:100790009F2302F47C421A4441F0800142800170A0
:1007A0000020BCF1FF3FC8BF01207047D0F8842073
:1007B0001140C0F880107047D0F8942022F0010258
:1007C0001144C0F894107047B0B50C4693B1511E57
:1007D000032988BFB0BD0FF20602DFE801F01A025C
:1007E000022300EB8400D0F8C01041F01D01C0F8D6
:1007F000C010B0BD00EB84010025C1F8C05000F06E
:1008000091F800EB4411620185508D600D618D619E
:10081000B0BD00EB8400D0F8C01041F00D01C0F86D
:10082000C010B0BD00EB8400D0F8C01041F01C0136
:10083000C0F8C010B0BD0000F0B581B01746054645
:1008400000F070F8103005F1C00100221DE000BF7B
:1008500023F0020341F82230057A10F8103C10F81A
:10086000086C047805F07B05057204F07B0506F042
:100870007B0603F07B03057000F8086C013200F87A
:10088000103C102A00F120001AD051F82230002F1D
:10089000DED043F0020341F82230067810F8085CFD
:1008A000047A10F8103C46F0040644F00404067084
:1008B00045F00406047200F8086C43F00403DDE719
:1008C00001B0F0BD002AD0F884200CBF22EA01015B
:1008D0001143C0F884107047D0F8942022F002022F
:1008E00061F34102C0F8942070470000D0F89420D2
:1008F00022F0200261F34512C0F8942070470000F6
:1009000010B5044600F00EF8D4F890106FF006020F
:1009100002EA4101084410BDD0F89000C0F3800005
:1009200070470000D0F89C1040F2FF12090291437A
:10093000D0F8B020D0F8B40041EA024141EA0060AA
:1009400070470000D0F89000C0F30310704700001B
:10095000D0F88010D0F8840008407047B0B50D463C
:100960000988C90518BFB0BD0021044600F018F879
:100970002968204600F006F820460121FFF71CFFF9
:10098000B0BD0000FE2202EA1122C0F89C20C1F393
:100990000742090EC0F8B020C0F8B410704700003C
:1009A000D0F8982061F30602C0F898207047000044
:1009B0004EF28820CEF2000008210160704700004E
:1009C0004EF20810CEF200000821016070470000CE
:1009D0004EF60C50CEF200000068C0F302207047C3
:1009E0004EF623514001CEF200010870704700001E
:1009F0004EF24340CEF200006021017070470000CB
:100A0000F0B581B040F200270546C2F2000700268B
:100A100002200C46C7E900604FF0A0400121FFF71B
:100A20005BFF4FF0A0400021FFF756FF4FF0A040C2
:100A30000021FFF7B5FF40F20820C2F20000067067
:100A40004FF0A040314605220023FFF7BDFE0136DE
:100A5000102EF5D14FF0A040002101220123FFF715
:100A6000B3FE386840F20041C2F2000101EBC00061
:100A700001212A462346FFF77FFE01B0F0BD0000AA
:100A80002DE9F04F81B040F20925C2F200056878E7
:100A900005282CD0092831D0062836D1E878002442
:100AA0000138212832D8DFE800F011648031319913
:100AB0003131313131313131313131313131313126
:100AC0003131313131313131313131A240F61850CB
:100AD000C0F6000090E84E0040F21424008AC2F2F2
:100AE000000484E80E00E660208212240EE0A8785C
:100AF00040F20821C2F20001087006E04FF0A04069
:100B0000012102220123FFF75FFE0024E88840F262
:100B10000025C2F20005A04238BF0446286840F212
:100B20000046C2F2000664B180F0010040F20922E2
:100B300006EBC000C2F2000201210823FFF71CFEF1
:100B4000286840F2092206EBC000C2F2000201212F
:100B50000823FFF711FE686840F2142206EBC0007C
:100B6000C2F2000201212346FFF706FE01B0BDE8F4
:100B7000F08F40F6F440C0F6000090E84E0000F11F
:100B8000100E40F214279EE81050D0F81C80C2F2DC
:100B90000007008C87E84E0007F1100181E8105033
:100BA000C7F81C8038842224B0E7A8780328ACD882
:100BB000DFE800F04302020240F66050C0F6000099
:100BC00090E88E00066940F21424808AC2F2000484
:100BD00084E88E002661A082162497E74FF0A0409B
:100BE00001210122FFF728FE01B0BDE8F08F40F699
:100BF0002C50C0F60000D0E905B190E80007D0E91C
:100C00000376009140F21421C2F20001D0F81CE0FA
:100C100000F1200C81E80007C1E90376009E9CE802
:100C20001C10006BC1F814B0C1E9066E01F1200E72
:100C30008EE81C100863342468E740F2142040F268
:100C40000431C2F20000C0F20941016004245DE7F2
:100C5000F0B581B04FF0A040FFF774FE05464FF0AD
:100C6000A040FFF759FE06464FF0A040FFF748FEB0
:100C70000446FFF777FD07462046FFF777FD4FF064
:100C8000A0400821FFF792FD86F001006900092FBE
:100C900040F2002204BF01310230C2F200020D2FE7
:100CA00042F8210008D1FFF7EBFE4FF0A0400021F1
:100CB000FFF71CFE01B0F0BD40F20825C2F20005AE
:100CC000287818B12046FFF749FD08B101B0F0BD02
:100CD00029784FF0A040FFF763FE0020287001B094
:100CE000F0BD0000FFF724FCFFF762FCFFF782FC79
:100CF000FEE7000009022200010100803209040021
:100D00000001030102000921100121012234000722
:100D100005810340000A00001201000200000040AB
:100D2000812F0100000101020301000005010902F9
:100D3000A1010901A10005091901290315002501D7
:100D4000950375018102950175058103050109303F
:100D5000093109381581257F750895038106C0C0C2
:100D600016034D0069006E0064004D006F007400B2
:100D700069006F006E000000000E000800000020F7
:100D8000000200003C0400080010000800020020DF
:100D900004040000580400080000000000000000E7
:100DA0000000000000000000000000000000000043
:100DB0000000000000000000000000000000000033
:100DC0000000000000000000000000000000000023
:100DD0000000000000000000000000000000000013
:100DE0000000000000000000000000000000000003
:100DF00000000000000000000000000000000000F3
:100E000000127A0000000000000000000000000056
:100E100000000000000000000000000000000000D2
:100E200000000000000000000000000000000000C2
:100E300000000000000000000000000000000000B2
:100E400000000000000000000000000000000000A2
:100E50000000000000000000000000000000000092
:100E60000000000000000000000000000000000082
:100E70000000000000000000000000000000000072
:100E80000000000000000000000000000000000062
:100E90000000000000000000000000000000000052
:100EA0000000000000000000000000000000000042
:100EB0000000000000000000000000000000000032
:100EC0000000000000000000000000000000000022
:100ED0000000000000000000000000000000000012
:100EE0000000000000000000000000000000000002
:100EF00000000000000000000000000000000000F2
:100F000000000000000000000000000000000000E1
:100F100000000000000000000000000000000000D1
:100F200000000000000000000000000000000000C1
:100F300000000000000000000000000000000000B1
:100F400000000000000000000000000000000000A1
:100F50000000000000000000000000000000000091
:100F60000000000000000000000000000000000081
:100F70000000000000000000000000000000000071
:100F80000000000000000000000000000000000061
:100F90000000000000000000000000000000000051
:100FA0000000000000000000000000000000000041
:100FB0000000000000000000000000000000000031
:100FC0000000000000000000000000000000000021
:100FD0000000000000000000000000000000000011
:100FE0000000000000000000000000000000000001
:100FF00000000000000000000000000000000000F1
:0400000508000401EA
:00000001FF
