Component: ARM Compiler 6.15 Tool: armlink [5dd79300]

==============================================================================

Section Cross References

    main.o(.text.main) refers to drv_sysclk.o(.text.CLOCK_BootToHSE96MHz) for CLOCK_BootToHSE96MHz
    main.o(.text.main) refers to drv_systick.o(.text.Drv_SysTick_Config) for Drv_SysTick_Config
    main.o(.text.main) refers to drv_usb.o(.text.Drv_USB_Init) for Drv_USB_Init
    main.o(.ARM.exidx.text.main) refers to main.o(.text.main) for [Anonymous Symbol]
    drv_sysclk.o(.text.SystemClockConfig) refers to drv_sysclk.o(.text.update_systemclock) for update_systemclock
    drv_sysclk.o(.text.SystemClockConfig) refers to drv_sysclk.o(.text.update_ahb_clock) for update_ahb_clock
    drv_sysclk.o(.text.SystemClockConfig) refers to drv_sysclk.o(.text.update_apb1_clock) for update_apb1_clock
    drv_sysclk.o(.text.SystemClockConfig) refers to drv_sysclk.o(.text.update_apb2_clock) for update_apb2_clock
    drv_sysclk.o(.ARM.exidx.text.SystemClockConfig) refers to drv_sysclk.o(.text.SystemClockConfig) for [Anonymous Symbol]
    drv_sysclk.o(.text.update_systemclock) refers to drv_sysclk.o(.data.SystemClockFreq) for SystemClockFreq
    drv_sysclk.o(.ARM.exidx.text.update_systemclock) refers to drv_sysclk.o(.text.update_systemclock) for [Anonymous Symbol]
    drv_sysclk.o(.text.update_ahb_clock) refers to drv_sysclk.o(.data.SystemClockFreq) for SystemClockFreq
    drv_sysclk.o(.text.update_ahb_clock) refers to drv_sysclk.o(.data.AHBClockFreq) for AHBClockFreq
    drv_sysclk.o(.ARM.exidx.text.update_ahb_clock) refers to drv_sysclk.o(.text.update_ahb_clock) for [Anonymous Symbol]
    drv_sysclk.o(.text.update_apb1_clock) refers to drv_sysclk.o(.data.AHBClockFreq) for AHBClockFreq
    drv_sysclk.o(.text.update_apb1_clock) refers to drv_sysclk.o(.data.APB1ClockFreq) for APB1ClockFreq
    drv_sysclk.o(.ARM.exidx.text.update_apb1_clock) refers to drv_sysclk.o(.text.update_apb1_clock) for [Anonymous Symbol]
    drv_sysclk.o(.text.update_apb2_clock) refers to drv_sysclk.o(.data.AHBClockFreq) for AHBClockFreq
==============================================================================

Removing Unused input sections from the image.

    Removing main.o(.text), (0 bytes).
    Removing main.o(.ARM.exidx.text.main), (8 bytes).
    Removing main.o(.ARM.use_no_argv), (4 bytes).
    Removing drv_sysclk.o(.text), (0 bytes).
    Removing drv_sysclk.o(.text.SystemClockConfig), (240 bytes).
    Removing drv_sysclk.o(.ARM.exidx.text.SystemClockConfig), (8 bytes).
    Removing drv_sysclk.o(.text.update_systemclock), (110 bytes).
    Removing drv_sysclk.o(.ARM.exidx.text.update_systemclock), (8 bytes).
    Removing drv_sysclk.o(.text.update_ahb_clock), (58 bytes).
    Removing drv_sysclk.o(.ARM.exidx.text.update_ahb_clock), (8 bytes).
    Removing drv_sysclk.o(.text.update_apb1_clock), (58 bytes).
    Removing drv_sysclk.o(.ARM.exidx.text.update_apb1_clock), (8 bytes).
    Removing drv_sysclk.o(.text.update_apb2_clock), (58 bytes).
    Removing drv_sysclk.o(.ARM.exidx.text.update_apb2_clock), (8 bytes).
    Removing drv_sysclk.o(.ARM.exidx.text.HAL_GetSysClockFreq), (8 bytes).
    Removing drv_sysclk.o(.text.HAL_Get_AHB_Clock), (12 bytes).
    Removing drv_sysclk.o(.ARM.exidx.text.HAL_Get_AHB_Clock), (8 bytes).
    Removing drv_sysclk.o(.text.HAL_Get_APB1_Clock), (12 bytes).
==============================================================================

Image Symbol Table

    Local Symbols

    Symbol Name                              Value     Ov Type        Size  Object(Section)

    ../3_MM32F327x/mdk/startup_mm32f3277g.s  0x00000000   Number         0  startup_mm32f3277g.o ABSOLUTE
    ../clib/angel/boardlib.s                 0x00000000   Number         0  boardinit1.o ABSOLUTE
    ../clib/angel/boardlib.s                 0x00000000   Number         0  boardinit2.o ABSOLUTE
    ../clib/angel/boardlib.s                 0x00000000   Number         0  boardinit3.o ABSOLUTE
    ../clib/angel/boardlib.s                 0x00000000   Number         0  boardshut.o ABSOLUTE
    ../clib/angel/handlers.s                 0x00000000   Number         0  __scatter_copy.o ABSOLUTE
    ../clib/angel/handlers.s                 0x00000000   Number         0  __scatter_zi.o ABSOLUTE
    ../clib/angel/kernel.s                   0x00000000   Number         0  __rtentry.o ABSOLUTE
    ../clib/angel/kernel.s                   0x00000000   Number         0  __rtentry2.o ABSOLUTE
    ../clib/angel/kernel.s                   0x00000000   Number         0  __rtentry4.o ABSOLUTE
    ../clib/angel/kernel.s                   0x00000000   Number         0  __rtentry7.o ABSOLUTE
    ../clib/angel/kernel.s                   0x00000000   Number         0  rtexit.o ABSOLUTE
    ../clib/angel/kernel.s                   0x00000000   Number         0  rtexit2.o ABSOLUTE
    ../clib/angel/rt.s                       0x00000000   Number         0  rt_raise.o ABSOLUTE
    ../clib/angel/scatter.s                  0x00000000   Number         0  __scatter.o ABSOLUTE
    ../clib/angel/startup.s                  0x00000000   Number         0  __main.o ABSOLUTE
    ../clib/angel/sys.s                      0x00000000   Number         0  sys_stackheap_outer.o ABSOLUTE
    ../clib/angel/sys.s                      0x00000000   Number         0  libspace.o ABSOLUTE
    ../clib/angel/sys.s                      0x00000000   Number         0  sys_stackheap.o ABSOLUTE
    ../clib/angel/sys.s                      0x00000000   Number         0  sys_stackheap_hlt.o ABSOLUTE
    ../clib/angel/sys.s                      0x00000000   Number         0  use_no_semi.o ABSOLUTE
    ../clib/angel/sys.s                      0x00000000   Number         0  indicate_semi.o ABSOLUTE
    ../clib/angel/sysapp.c                   0x00000000   Number         0  sys_exit.o ABSOLUTE
    ../clib/angel/sysapp.c                   0x00000000   Number         0  sys_exit_hlt.o ABSOLUTE
    ../clib/angel/sysapp.c                   0x00000000   Number         0  sys_command.o ABSOLUTE
    ../clib/angel/sysapp.c                   0x00000000   Number         0  sys_command_hlt.o ABSOLUTE
    ../clib/angel/sysapp.c                   0x00000000   Number         0  sys_wrch.o ABSOLUTE
    ../clib/angel/sysapp.c                   0x00000000   Number         0  sys_wrch_hlt.o ABSOLUTE
    ../clib/armsys.c                         0x00000000   Number         0  argv_veneer.o ABSOLUTE
    ../clib/armsys.c                         0x00000000   Number         0  argv_veneer.o ABSOLUTE
    ../clib/armsys.c                         0x00000000   Number         0  _get_argv_nomalloc.o ABSOLUTE
    ../clib/armsys.c                         0x00000000   Number         0  no_argv.o ABSOLUTE
    ../clib/heapalloc.c                      0x00000000   Number         0  hrguard.o ABSOLUTE
    ../clib/libinit.s                        0x00000000   Number         0  libinit.o ABSOLUTE
    ../clib/libinit.s                        0x00000000   Number         0  libinit2.o ABSOLUTE
    ../clib/libinit.s                        0x00000000   Number         0  libinit5.o ABSOLUTE
    ../clib/libinit.s                        0x00000000   Number         0  libshutdown.o ABSOLUTE
    ../clib/libinit.s                        0x00000000   Number         0  libshutdown2.o ABSOLUTE
    ../clib/memcpset.s                       0x00000000   Number         0  rt_memclr_w.o ABSOLUTE
    ../clib/signal.c                         0x00000000   Number         0  defsig_rtmem_outer.o ABSOLUTE
    ../clib/signal.c                         0x00000000   Number         0  defsig_rtmem_formal.o ABSOLUTE
    ../clib/signal.c                         0x00000000   Number         0  defsig_exit.o ABSOLUTE
    ../clib/signal.c                         0x00000000   Number         0  defsig_rtmem_inner.o ABSOLUTE
    ../clib/signal.c                         0x00000000   Number         0  __raise.o ABSOLUTE
    ../clib/signal.c                         0x00000000   Number         0  defsig_general.o ABSOLUTE
    ../clib/signal.c                         0x00000000   Number         0  defsig_abrt_inner.o ABSOLUTE
    ../clib/signal.c                         0x00000000   Number         0  defsig_fpe_inner.o ABSOLUTE
    ../clib/signal.c                         0x00000000   Number         0  defsig_rtred_inner.o ABSOLUTE
    ../clib/signal.c                         0x00000000   Number         0  defsig_stak_inner.o ABSOLUTE
    ../clib/signal.c                         0x00000000   Number         0  defsig_pvfn_inner.o ABSOLUTE
    ../clib/signal.c                         0x00000000   Number         0  defsig_cppl_inner.o ABSOLUTE
    ../clib/signal.c                         0x00000000   Number         0  defsig_segv_inner.o ABSOLUTE
    ../clib/signal.c                         0x00000000   Number         0  defsig_other.o ABSOLUTE
    ../clib/signal.s                         0x00000000   Number         0  defsig.o ABSOLUTE
    ../clib/stdlib.c                         0x00000000   Number         0  exit.o ABSOLUTE
    ../fplib/fpinit.s                        0x00000000   Number         0  fpinit.o ABSOLUTE
    ../fplib/fpinit_empty.s                  0x00000000   Number         0  fpinit_empty.o ABSOLUTE
    dc.s                                     0x00000000   Number         0  dc.o ABSOLUTE
    drv_sysclk.c                             0x00000000   Number         0  drv_sysclk.o ABSOLUTE
    drv_systick.c                            0x00000000   Number         0  drv_systick.o ABSOLUTE
    drv_usb.c                                0x00000000   Number         0  drv_usb.o ABSOLUTE
    hal_adc.c                                0x00000000   Number         0  hal_adc.o ABSOLUTE
    hal_comp.c                               0x00000000   Number         0  hal_comp.o ABSOLUTE
    hal_dac.c                                0x00000000   Number         0  hal_dac.o ABSOLUTE
    hal_dma.c                                0x00000000   Number         0  hal_dma.o ABSOLUTE
    hal_exti.c                               0x00000000   Number         0  hal_exti.o ABSOLUTE
    hal_fsmc.c                               0x00000000   Number         0  hal_fsmc.o ABSOLUTE
    hal_gpio.c                               0x00000000   Number         0  hal_gpio.o ABSOLUTE
    hal_i2c.c                                0x00000000   Number         0  hal_i2c.o ABSOLUTE
    hal_iwdg.c                               0x00000000   Number         0  hal_iwdg.o ABSOLUTE
    hal_rcc.c                                0x00000000   Number         0  hal_rcc.o ABSOLUTE
    hal_rtc.c                                0x00000000   Number         0  hal_rtc.o ABSOLUTE
    hal_sdio.c                               0x00000000   Number         0  hal_sdio.o ABSOLUTE
    hal_spi.c                                0x00000000   Number         0  hal_spi.o ABSOLUTE
    hal_syscfg.c                             0x00000000   Number         0  hal_syscfg.o ABSOLUTE
    hal_tim_16b.c                            0x00000000   Number         0  hal_tim_16b.o ABSOLUTE
    hal_tim_32b.c                            0x00000000   Number         0  hal_tim_32b.o ABSOLUTE
    hal_tim_adv.c                            0x00000000   Number         0  hal_tim_adv.o ABSOLUTE
    hal_tim_basic.c                          0x00000000   Number         0  hal_tim_basic.o ABSOLUTE
    hal_uart.c                               0x00000000   Number         0  hal_uart.o ABSOLUTE
    hal_usb.c                                0x00000000   Number         0  hal_usb.o ABSOLUTE
    hal_wwdg.c                               0x00000000   Number         0  hal_wwdg.o ABSOLUTE
    main.c                                   0x00000000   Number         0  main.o ABSOLUTE
    system_mm32f3277g.c                      0x00000000   Number         0  system_mm32f3277g.o ABSOLUTE
    RESET                                    0x08000000   Section      400  startup_mm32f3277g.o(RESET)
    !!!main                                  0x08000400   Section        8  __main.o(!!!main)
    !!!scatter                               0x08000408   Section       52  __scatter.o(!!!scatter)
    !!handler_copy                           0x0800043c   Section       26  __scatter_copy.o(!!handler_copy)
    !!handler_zi                             0x08000458   Section       28  __scatter_zi.o(!!handler_zi)
    .ARM.Collect$$libinit$$00000000          0x08000474   Section        2  libinit.o(.ARM.Collect$$libinit$$00000000)
    .ARM.Collect$$libinit$$00000002          0x08000476   Section        0  libinit2.o(.ARM.Collect$$libinit$$00000002)
    .ARM.Collect$$libinit$$00000004          0x08000476   Section        0  libinit2.o(.ARM.Collect$$libinit$$00000004)
    .ARM.Collect$$libinit$$0000000A          0x08000476   Section        0  libinit2.o(.ARM.Collect$$libinit$$0000000A)
    .ARM.Collect$$libinit$$0000000C          0x08000476   Section        0  libinit2.o(.ARM.Collect$$libinit$$0000000C)
    .ARM.Collect$$libinit$$0000000E          0x08000476   Section        0  libinit2.o(.ARM.Collect$$libinit$$0000000E)
    .ARM.Collect$$libinit$$00000011          0x08000476   Section        0  libinit2.o(.ARM.Collect$$libinit$$00000011)
    .ARM.Collect$$libinit$$00000013          0x08000476   Section        0  libinit2.o(.ARM.Collect$$libinit$$00000013)
    .ARM.Collect$$libinit$$00000015          0x08000476   Section        0  libinit2.o(.ARM.Collect$$libinit$$00000015)
    .ARM.Collect$$libinit$$00000017          0x08000476   Section        0  libinit2.o(.ARM.Collect$$libinit$$00000017)
    .ARM.Collect$$libinit$$00000019          0x08000476   Section        0  libinit2.o(.ARM.Collect$$libinit$$00000019)
    .ARM.Collect$$libinit$$0000001B          0x08000476   Section        0  libinit2.o(.ARM.Collect$$libinit$$0000001B)
    .ARM.Collect$$libinit$$0000001D          0x08000476   Section        0  libinit2.o(.ARM.Collect$$libinit$$0000001D)
    .ARM.Collect$$libinit$$0000001F          0x08000476   Section        0  libinit2.o(.ARM.Collect$$libinit$$0000001F)
    .ARM.Collect$$libinit$$00000021          0x08000476   Section        0  libinit2.o(.ARM.Collect$$libinit$$00000021)
    .ARM.Collect$$libinit$$00000023          0x08000476   Section        0  libinit2.o(.ARM.Collect$$libinit$$00000023)
    .ARM.Collect$$libinit$$00000025          0x08000476   Section        0  libinit2.o(.ARM.Collect$$libinit$$00000025)
    .ARM.Collect$$libinit$$0000002C          0x08000476   Section        0  libinit2.o(.ARM.Collect$$libinit$$0000002C)
    .ARM.Collect$$libinit$$0000002E          0x08000476   Section        0  libinit2.o(.ARM.Collect$$libinit$$0000002E)
    .ARM.Collect$$libinit$$00000030          0x08000476   Section        0  libinit2.o(.ARM.Collect$$libinit$$00000030)
    .ARM.Collect$$libinit$$00000032          0x08000476   Section        0  libinit2.o(.ARM.Collect$$libinit$$00000032)
    .ARM.Collect$$libinit$$00000033          0x08000476   Section        2  libinit2.o(.ARM.Collect$$libinit$$00000033)
    .ARM.Collect$$libshutdown$$00000000      0x08000478   Section        2  libshutdown.o(.ARM.Collect$$libshutdown$$00000000)
    .ARM.Collect$$libshutdown$$00000002      0x0800047a   Section        0  libshutdown2.o(.ARM.Collect$$libshutdown$$00000002)
    .ARM.Collect$$libshutdown$$00000004      0x0800047a   Section        0  libshutdown2.o(.ARM.Collect$$libshutdown$$00000004)
    .ARM.Collect$$libshutdown$$00000007      0x0800047a   Section        0  libshutdown2.o(.ARM.Collect$$libshutdown$$00000007)
    .ARM.Collect$$libshutdown$$0000000A      0x0800047a   Section        0  libshutdown2.o(.ARM.Collect$$libshutdown$$0000000A)
    .ARM.Collect$$libshutdown$$0000000C      0x0800047a   Section        0  libshutdown2.o(.ARM.Collect$$libshutdown$$0000000C)
    .ARM.Collect$$libshutdown$$0000000F      0x0800047a   Section        0  libshutdown2.o(.ARM.Collect$$libshutdown$$0000000F)
    .ARM.Collect$$libshutdown$$00000010      0x0800047a   Section        2  libshutdown2.o(.ARM.Collect$$libshutdown$$00000010)
    .ARM.Collect$$rtentry$$00000000          0x0800047c   Section        0  __rtentry.o(.ARM.Collect$$rtentry$$00000000)
    .ARM.Collect$$rtentry$$00000002          0x0800047c   Section        0  __rtentry2.o(.ARM.Collect$$rtentry$$00000002)
    .ARM.Collect$$rtentry$$00000007          0x0800047c   Section        4  __rtentry7.o(.ARM.Collect$$rtentry$$00000007)
    .ARM.Collect$$rtentry$$00000009          0x08000480   Section        0  __rtentry2.o(.ARM.Collect$$rtentry$$00000009)
    .ARM.Collect$$rtentry$$0000000A          0x08000480   Section        4  __rtentry2.o(.ARM.Collect$$rtentry$$0000000A)
    .ARM.Collect$$rtentry$$0000000C          0x08000484   Section        0  __rtentry2.o(.ARM.Collect$$rtentry$$0000000C)
    .ARM.Collect$$rtentry$$0000000D          0x08000484   Section        8  __rtentry2.o(.ARM.Collect$$rtentry$$0000000D)
    __lit__00000000                          0x0800048c   Data           4  __rtentry7.o(.ARM.Collect$$rtentry$$00002718)
    .ARM.Collect$$rtentry$$00002718          0x0800048c   Section        4  __rtentry7.o(.ARM.Collect$$rtentry$$00002718)
    .ARM.Collect$$rtexit$$00000000           0x08000490   Section        2  rtexit.o(.ARM.Collect$$rtexit$$00000000)
    .ARM.Collect$$rtexit$$00000002           0x08000492   Section        0  rtexit2.o(.ARM.Collect$$rtexit$$00000002)
    .ARM.Collect$$rtexit$$00000003           0x08000492   Section        4  rtexit2.o(.ARM.Collect$$rtexit$$00000003)
    .ARM.Collect$$rtexit$$00000004           0x08000496   Section        6  rtexit2.o(.ARM.Collect$$rtexit$$00000004)
    .text                                    0x0800049c   Section       36  startup_mm32f3277g.o(.text)
    .text                                    0x080004c0   Section       78  rt_memclr_w.o(.text)
    .text                                    0x0800050e   Section        0  exit.o(.text)
    .text                                    0x08000520   Section        2  use_no_semi.o(.text)
    .text                                    0x08000522   Section        0  indicate_semi.o(.text)
    .text                                    0x08000524   Section        0  sys_exit.o(.text)
    [Anonymous Symbol]                       0x08000530   Section        0  drv_sysclk.o(.text.CLOCK_BootToHSE96MHz)
    [Anonymous Symbol]                       0x080005b0   Section        0  drv_systick.o(.text.Drv_SysTick_Config)
    [Anonymous Symbol]                       0x080005f4   Section        0  drv_usb.o(.text.Drv_USB_Init)
    [Anonymous Symbol]                       0x0800065c   Section        0  drv_sysclk.o(.text.HAL_GetSysClockFreq)
    NVIC_EncodePriority                      0x08000669   Thumb Code    36  drv_systick.o(.text.NVIC_EncodePriority)
    [Anonymous Symbol]                       0x08000668   Section        0  drv_systick.o(.text.NVIC_EncodePriority)
    [Anonymous Symbol]                       0x0800068c   Section        0  drv_usb.o(.text.OTG_FS_IRQHandler)
    [Anonymous Symbol]                       0x08000704   Section        0  hal_rcc.o(.text.RCC_EnableAHB2Periphs)
    SysTick_Config                           0x0800071d   Thumb Code    42  drv_systick.o(.text.SysTick_Config)
    [Anonymous Symbol]                       0x0800071c   Section        0  drv_systick.o(.text.SysTick_Config)
    [Anonymous Symbol]                       0x08000748   Section        0  drv_systick.o(.text.SysTick_Handler)
    [Anonymous Symbol]                       0x08000758   Section        0  system_mm32f3277g.o(.text.SystemInit)
    [Anonymous Symbol]                       0x0800075c   Section        0  hal_usb.o(.text.USB_BufDesp_GetPacketSize)
    [Anonymous Symbol]                       0x08000764   Section        0  hal_usb.o(.text.USB_BufDesp_GetTokenPid)
    [Anonymous Symbol]                       0x0800076c   Section        0  hal_usb.o(.text.USB_BufDesp_Reset)
    [Anonymous Symbol]                       0x08000778   Section        0  hal_usb.o(.text.USB_BufDesp_Xfer)
    [Anonymous Symbol]                       0x080007ac   Section        0  hal_usb.o(.text.USB_ClearInterruptStatus)
    [Anonymous Symbol]                       0x080007b8   Section        0  hal_usb.o(.text.USB_Enable)
    [Anonymous Symbol]                       0x080007c8   Section        0  hal_usb.o(.text.USB_EnableEndPoint)
    [Anonymous Symbol]                       0x08000838   Section        0  hal_usb.o(.text.USB_EnableEndPointStall)
    [Anonymous Symbol]                       0x080008c4   Section        0  hal_usb.o(.text.USB_EnableInterrupts)
    [Anonymous Symbol]                       0x080008d8   Section        0  hal_usb.o(.text.USB_EnableOddEvenReset)
    [Anonymous Symbol]                       0x080008ec   Section        0  hal_usb.o(.text.USB_EnableSuspend)
    [Anonymous Symbol]                       0x08000900   Section        0  hal_usb.o(.text.USB_GetBufDesp)
    [Anonymous Symbol]                       0x08000918   Section        0  hal_usb.o(.text.USB_GetBufDespOddEven)
    [Anonymous Symbol]                       0x08000924   Section        0  hal_usb.o(.text.USB_GetBufDespTableAddr)
    [Anonymous Symbol]                       0x08000944   Section        0  hal_usb.o(.text.USB_GetEndPointIndex)
    [Anonymous Symbol]                       0x08000950   Section        0  hal_usb.o(.text.USB_GetInterruptStatus)
    [Anonymous Symbol]                       0x0800095c   Section        0  hal_usb.o(.text.USB_InitDevice)
    [Anonymous Symbol]                       0x08000984   Section        0  hal_usb.o(.text.USB_SetBufDespTableAddr)
    [Anonymous Symbol]                       0x080009a0   Section        0  hal_usb.o(.text.USB_SetDeviceAddr)
    __NVIC_ClearPendingIRQ                   0x080009b1   Thumb Code    14  drv_usb.o(.text.__NVIC_ClearPendingIRQ)
    [Anonymous Symbol]                       0x080009b0   Section        0  drv_usb.o(.text.__NVIC_ClearPendingIRQ)
    __NVIC_EnableIRQ                         0x080009c1   Thumb Code    14  drv_usb.o(.text.__NVIC_EnableIRQ)
    [Anonymous Symbol]                       0x080009c0   Section        0  drv_usb.o(.text.__NVIC_EnableIRQ)
    __NVIC_GetPriorityGrouping               0x080009d1   Thumb Code    16  drv_systick.o(.text.__NVIC_GetPriorityGrouping)
    [Anonymous Symbol]                       0x080009d0   Section        0  drv_systick.o(.text.__NVIC_GetPriorityGrouping)
    __NVIC_SetPriority                       0x080009e1   Thumb Code    14  drv_systick.o(.text.__NVIC_SetPriority)
    [Anonymous Symbol]                       0x080009e0   Section        0  drv_systick.o(.text.__NVIC_SetPriority)
    __NVIC_SetPriority                       0x080009f1   Thumb Code    14  drv_usb.o(.text.__NVIC_SetPriority)
    [Anonymous Symbol]                       0x080009f0   Section        0  drv_usb.o(.text.__NVIC_SetPriority)
    [Anonymous Symbol]                       0x08000a00   Section        0  drv_usb.o(.text.app_usb_reset_handler)
    [Anonymous Symbol]                       0x08000a80   Section        0  drv_usb.o(.text.app_usb_setup_handler)
    [Anonymous Symbol]                       0x08000c50   Section        0  drv_usb.o(.text.app_usb_tokdne_handler)
    [Anonymous Symbol]                       0x08000ce4   Section        0  main.o(.text.main)
    SystemClockFreq                          0x20000000   Data           4  drv_sysclk.o(.data.SystemClockFreq)
    [Anonymous Symbol]                       0x20000000   Section        0  drv_sysclk.o(.data.SystemClockFreq)
    app_usb_bd_oddeven                       0x20000200   Data           8  drv_usb.o(.bss.app_usb_bd_oddeven)
    [Anonymous Symbol]                       0x20000200   Section        0  drv_usb.o(.bss.app_usb_bd_oddeven)
    app_usb_device_addr                      0x20000208   Data           1  drv_usb.o(.bss.app_usb_device_addr)
    [Anonymous Symbol]                       0x20000208   Section        0  drv_usb.o(.bss.app_usb_device_addr)
    app_usb_setup_buffer                     0x20000209   Data           8  drv_usb.o(.bss.app_usb_setup_buffer)
    [Anonymous Symbol]                       0x20000209   Section        0  drv_usb.o(.bss.app_usb_setup_buffer)
    app_usb_xfer_buffer                      0x20000214   Data          64  drv_usb.o(.bss.app_usb_xfer_buffer)
    [Anonymous Symbol]                       0x20000214   Section        0  drv_usb.o(.bss.app_usb_xfer_buffer)
    usb_bd_tbl                               0x20000400   Data         512  drv_usb.o(.bss.usb_bd_tbl)
    [Anonymous Symbol]                       0x20000400   Section        0  drv_usb.o(.bss.usb_bd_tbl)
    uwTick                                   0x20000600   Data           4  drv_systick.o(.bss.uwTick)
    [Anonymous Symbol]                       0x20000600   Section        0  drv_systick.o(.bss.uwTick)

    Global Symbols

    Symbol Name                              Value     Ov Type        Size  Object(Section)

    BuildAttributes$$THM_ISAv4$P$D$K$B$S$PE$A:L22UL41UL21$X:L11$S22US41US21$IEEE1$IW$~IW$USESV6$~STKCKD$USESV7$~SHL$OTIME$ROPI$EBA8$UX$STANDARDLIB$REQ8$PRES8$EABIv2 0x00000000   Number         0  anon$$obj.o ABSOLUTE
    __fp_init_empty                          0x00000000   Number         0  fpinit_empty.o ABSOLUTE
    Image$$ZI$$Limit                          - Undefined Weak Reference
    __ARM_exceptions_init                     - Undefined Weak Reference
    __alloca_initialize                       - Undefined Weak Reference
    __arm_preinit_                            - Undefined Weak Reference
    __cpp_initialize__aeabi_                  - Undefined Weak Reference
    __cxa_finalize                            - Undefined Weak Reference
    __decompress                              - Undefined Weak Reference
    __rt_locale                               - Undefined Weak Reference
    __sigvec_lookup                           - Undefined Weak Reference
    _atexit_init                              - Undefined Weak Reference
    _call_atexit_fns                          - Undefined Weak Reference
    _clock_init                               - Undefined Weak Reference
    _fp_trap_init                             - Undefined Weak Reference
    _fp_trap_shutdown                         - Undefined Weak Reference
    _get_lc_collate                           - Undefined Weak Reference
    _get_lc_ctype                             - Undefined Weak Reference
    _get_lc_monetary                          - Undefined Weak Reference
    _get_lc_numeric                           - Undefined Weak Reference
    _get_lc_time                              - Undefined Weak Reference
    _getenv_init                              - Undefined Weak Reference
    _handle_redirection                       - Undefined Weak Reference
    _init_alloc                               - Undefined Weak Reference
    _init_user_alloc                          - Undefined Weak Reference
    _initio                                   - Undefined Weak Reference
    _rand_init                                - Undefined Weak Reference
    _signal_finish                            - Undefined Weak Reference
    _signal_init                              - Undefined Weak Reference
    _terminate_alloc                          - Undefined Weak Reference
    _terminate_user_alloc                     - Undefined Weak Reference
    _terminateio                              - Undefined Weak Reference
    __Vectors_Size                           0x00000190   Number         0  startup_mm32f3277g.o ABSOLUTE
    __Vectors                                0x08000000   Data           4  startup_mm32f3277g.o(RESET)
    __Vectors_End                            0x08000190   Data           0  startup_mm32f3277g.o(RESET)
    __main                                   0x08000401   Thumb Code     8  __main.o(!!!main)
    __scatterload                            0x08000409   Thumb Code     0  __scatter.o(!!!scatter)
    __scatterload_rt2                        0x08000409   Thumb Code    44  __scatter.o(!!!scatter)
    __scatterload_rt2_thumb_only             0x08000409   Thumb Code     0  __scatter.o(!!!scatter)
    __scatterload_null                       0x08000417   Thumb Code     0  __scatter.o(!!!scatter)
    __scatterload_copy                       0x0800043d   Thumb Code    26  __scatter_copy.o(!!handler_copy)
    __scatterload_zeroinit                   0x08000459   Thumb Code    28  __scatter_zi.o(!!handler_zi)
    __rt_lib_init                            0x08000475   Thumb Code     0  libinit.o(.ARM.Collect$$libinit$$00000000)
    __rt_lib_init_alloca_1                   0x08000477   Thumb Code     0  libinit2.o(.ARM.Collect$$libinit$$0000002E)
    __rt_lib_init_argv_1                     0x08000477   Thumb Code     0  libinit2.o(.ARM.Collect$$libinit$$0000002C)
    __rt_lib_init_atexit_1                   0x08000477   Thumb Code     0  libinit2.o(.ARM.Collect$$libinit$$0000001B)
    __rt_lib_init_clock_1                    0x08000477   Thumb Code     0  libinit2.o(.ARM.Collect$$libinit$$00000021)
    __rt_lib_init_cpp_1                      0x08000477   Thumb Code     0  libinit2.o(.ARM.Collect$$libinit$$00000032)
    __rt_lib_init_exceptions_1               0x08000477   Thumb Code     0  libinit2.o(.ARM.Collect$$libinit$$00000030)
    __rt_lib_init_fp_1                       0x08000477   Thumb Code     0  libinit2.o(.ARM.Collect$$libinit$$00000002)
    __rt_lib_init_fp_trap_1                  0x08000477   Thumb Code     0  libinit2.o(.ARM.Collect$$libinit$$0000001F)
    __rt_lib_init_getenv_1                   0x08000477   Thumb Code     0  libinit2.o(.ARM.Collect$$libinit$$00000023)
    __rt_lib_init_heap_1                     0x08000477   Thumb Code     0  libinit2.o(.ARM.Collect$$libinit$$0000000A)
    __rt_lib_init_lc_collate_1               0x08000477   Thumb Code     0  libinit2.o(.ARM.Collect$$libinit$$00000011)
    __rt_lib_init_lc_ctype_1                 0x08000477   Thumb Code     0  libinit2.o(.ARM.Collect$$libinit$$00000013)
    __rt_lib_init_lc_monetary_1              0x08000477   Thumb Code     0  libinit2.o(.ARM.Collect$$libinit$$00000015)
    __rt_lib_init_lc_numeric_1               0x08000477   Thumb Code     0  libinit2.o(.ARM.Collect$$libinit$$00000017)
    __rt_lib_init_lc_time_1                  0x08000477   Thumb Code     0  libinit2.o(.ARM.Collect$$libinit$$00000019)
    __rt_lib_init_preinit_1                  0x08000477   Thumb Code     0  libinit2.o(.ARM.Collect$$libinit$$00000004)
    __rt_lib_init_rand_1                     0x08000477   Thumb Code     0  libinit2.o(.ARM.Collect$$libinit$$0000000E)
    __rt_lib_init_return                     0x08000477   Thumb Code     0  libinit2.o(.ARM.Collect$$libinit$$00000033)
    __rt_lib_init_signal_1                   0x08000477   Thumb Code     0  libinit2.o(.ARM.Collect$$libinit$$0000001D)
    __rt_lib_init_stdio_1                    0x08000477   Thumb Code     0  libinit2.o(.ARM.Collect$$libinit$$00000025)
    __rt_lib_init_user_alloc_1               0x08000477   Thumb Code     0  libinit2.o(.ARM.Collect$$libinit$$0000000C)
    __rt_lib_shutdown                        0x08000479   Thumb Code     0  libshutdown.o(.ARM.Collect$$libshutdown$$00000000)
    __rt_lib_shutdown_cpp_1                  0x0800047b   Thumb Code     0  libshutdown2.o(.ARM.Collect$$libshutdown$$00000002)
    __rt_lib_shutdown_fp_trap_1              0x0800047b   Thumb Code     0  libshutdown2.o(.ARM.Collect$$libshutdown$$00000007)
    __rt_lib_shutdown_heap_1                 0x0800047b   Thumb Code     0  libshutdown2.o(.ARM.Collect$$libshutdown$$0000000F)
    __rt_lib_shutdown_return                 0x0800047b   Thumb Code     0  libshutdown2.o(.ARM.Collect$$libshutdown$$00000010)
    __rt_lib_shutdown_signal_1               0x0800047b   Thumb Code     0  libshutdown2.o(.ARM.Collect$$libshutdown$$0000000A)
    __rt_lib_shutdown_stdio_1                0x0800047b   Thumb Code     0  libshutdown2.o(.ARM.Collect$$libshutdown$$00000004)
    __rt_lib_shutdown_user_alloc_1           0x0800047b   Thumb Code     0  libshutdown2.o(.ARM.Collect$$libshutdown$$0000000C)
    __rt_entry                               0x0800047d   Thumb Code     0  __rtentry.o(.ARM.Collect$$rtentry$$00000000)
    __rt_entry_presh_1                       0x0800047d   Thumb Code     0  __rtentry2.o(.ARM.Collect$$rtentry$$00000002)
    __rt_entry_sh                            0x0800047d   Thumb Code     0  __rtentry7.o(.ARM.Collect$$rtentry$$00000007)
    __rt_entry_li                            0x08000481   Thumb Code     0  __rtentry2.o(.ARM.Collect$$rtentry$$0000000A)
    __rt_entry_postsh_1                      0x08000481   Thumb Code     0  __rtentry2.o(.ARM.Collect$$rtentry$$00000009)
    __rt_entry_main                          0x08000485   Thumb Code     0  __rtentry2.o(.ARM.Collect$$rtentry$$0000000D)
    __rt_entry_postli_1                      0x08000485   Thumb Code     0  __rtentry2.o(.ARM.Collect$$rtentry$$0000000C)
    __rt_exit                                0x08000491   Thumb Code     0  rtexit.o(.ARM.Collect$$rtexit$$00000000)
    __rt_exit_ls                             0x08000493   Thumb Code     0  rtexit2.o(.ARM.Collect$$rtexit$$00000003)
    __rt_exit_prels_1                        0x08000493   Thumb Code     0  rtexit2.o(.ARM.Collect$$rtexit$$00000002)
    __rt_exit_exit                           0x08000497   Thumb Code     0  rtexit2.o(.ARM.Collect$$rtexit$$00000004)
    Reset_Handler                            0x0800049d   Thumb Code     8  startup_mm32f3277g.o(.text)
    NMI_Handler                              0x080004a5   Thumb Code     2  startup_mm32f3277g.o(.text)
    HardFault_Handler                        0x080004a7   Thumb Code     2  startup_mm32f3277g.o(.text)
    MemManage_Handler                        0x080004a9   Thumb Code     2  startup_mm32f3277g.o(.text)
    BusFault_Handler                         0x080004ab   Thumb Code     2  startup_mm32f3277g.o(.text)
    UsageFault_Handler                       0x080004ad   Thumb Code     2  startup_mm32f3277g.o(.text)
    SVC_Handler                              0x080004af   Thumb Code     2  startup_mm32f3277g.o(.text)
    DebugMon_Handler                         0x080004b1   Thumb Code     2  startup_mm32f3277g.o(.text)
    PendSV_Handler                           0x080004b3   Thumb Code     2  startup_mm32f3277g.o(.text)
    ADC1_2_IRQHandler                        0x080004b7   Thumb Code     0  startup_mm32f3277g.o(.text)
    ADC3_IRQHandler                          0x080004b7   Thumb Code     0  startup_mm32f3277g.o(.text)
    CAN1_RX_IRQHandler                       0x080004b7   Thumb Code     0  startup_mm32f3277g.o(.text)
    COMP1_2_IRQHandler                       0x080004b7   Thumb Code     0  startup_mm32f3277g.o(.text)
    DMA1_Channel1_IRQHandler                 0x080004b7   Thumb Code     0  startup_mm32f3277g.o(.text)
    DMA1_Channel2_IRQHandler                 0x080004b7   Thumb Code     0  startup_mm32f3277g.o(.text)
    DMA1_Channel3_IRQHandler                 0x080004b7   Thumb Code     0  startup_mm32f3277g.o(.text)
    DMA1_Channel4_IRQHandler                 0x080004b7   Thumb Code     0  startup_mm32f3277g.o(.text)
    DMA1_Channel5_IRQHandler                 0x080004b7   Thumb Code     0  startup_mm32f3277g.o(.text)
    DMA1_Channel6_IRQHandler                 0x080004b7   Thumb Code     0  startup_mm32f3277g.o(.text)
    DMA1_Channel7_IRQHandler                 0x080004b7   Thumb Code     0  startup_mm32f3277g.o(.text)
    DMA2_Channel1_IRQHandler                 0x080004b7   Thumb Code     0  startup_mm32f3277g.o(.text)
    DMA2_Channel2_IRQHandler                 0x080004b7   Thumb Code     0  startup_mm32f3277g.o(.text)
    DMA2_Channel3_IRQHandler                 0x080004b7   Thumb Code     0  startup_mm32f3277g.o(.text)
    DMA2_Channel4_IRQHandler                 0x080004b7   Thumb Code     0  startup_mm32f3277g.o(.text)
    DMA2_Channel5_IRQHandler                 0x080004b7   Thumb Code     0  startup_mm32f3277g.o(.text)
    ETH_IRQHandler                           0x080004b7   Thumb Code     0  startup_mm32f3277g.o(.text)
    EXTI0_IRQHandler                         0x080004b7   Thumb Code     0  startup_mm32f3277g.o(.text)
    EXTI15_10_IRQHandler                     0x080004b7   Thumb Code     0  startup_mm32f3277g.o(.text)
    EXTI1_IRQHandler                         0x080004b7   Thumb Code     0  startup_mm32f3277g.o(.text)
    EXTI2_IRQHandler                         0x080004b7   Thumb Code     0  startup_mm32f3277g.o(.text)
    EXTI3_IRQHandler                         0x080004b7   Thumb Code     0  startup_mm32f3277g.o(.text)
    EXTI4_IRQHandler                         0x080004b7   Thumb Code     0  startup_mm32f3277g.o(.text)
    EXTI9_5_IRQHandler                       0x080004b7   Thumb Code     0  startup_mm32f3277g.o(.text)
    FLASH_IRQHandler                         0x080004b7   Thumb Code     0  startup_mm32f3277g.o(.text)
    FlashCache_IRQHandler                    0x080004b7   Thumb Code     0  startup_mm32f3277g.o(.text)
    I2C1_IRQHandler                          0x080004b7   Thumb Code     0  startup_mm32f3277g.o(.text)
    I2C2_IRQHandler                          0x080004b7   Thumb Code     0  startup_mm32f3277g.o(.text)
    OTG_FS_WKUP_IRQHandler                   0x080004b7   Thumb Code     0  startup_mm32f3277g.o(.text)
    PVD_IRQHandler                           0x080004b7   Thumb Code     0  startup_mm32f3277g.o(.text)
    RCC_CRS_IRQHandler                       0x080004b7   Thumb Code     0  startup_mm32f3277g.o(.text)
    RTCAlarm_IRQHandler                      0x080004b7   Thumb Code     0  startup_mm32f3277g.o(.text)
    RTC_IRQHandler                           0x080004b7   Thumb Code     0  startup_mm32f3277g.o(.text)
    SDIO_IRQHandler                          0x080004b7   Thumb Code     0  startup_mm32f3277g.o(.text)
    SPI1_IRQHandler                          0x080004b7   Thumb Code     0  startup_mm32f3277g.o(.text)
    SPI2_IRQHandler                          0x080004b7   Thumb Code     0  startup_mm32f3277g.o(.text)
    SPI3_IRQHandler                          0x080004b7   Thumb Code     0  startup_mm32f3277g.o(.text)
    TAMPER_IRQHandler                        0x080004b7   Thumb Code     0  startup_mm32f3277g.o(.text)
    TIM1_BRK_IRQHandler                      0x080004b7   Thumb Code     0  startup_mm32f3277g.o(.text)
    TIM1_CC_IRQHandler                       0x080004b7   Thumb Code     0  startup_mm32f3277g.o(.text)
    TIM1_TRG_COM_IRQHandler                  0x080004b7   Thumb Code     0  startup_mm32f3277g.o(.text)
    TIM1_UP_IRQHandler                       0x080004b7   Thumb Code     0  startup_mm32f3277g.o(.text)
    TIM2_IRQHandler                          0x080004b7   Thumb Code     0  startup_mm32f3277g.o(.text)
    TIM3_IRQHandler                          0x080004b7   Thumb Code     0  startup_mm32f3277g.o(.text)
    TIM4_IRQHandler                          0x080004b7   Thumb Code     0  startup_mm32f3277g.o(.text)
    TIM5_IRQHandler                          0x080004b7   Thumb Code     0  startup_mm32f3277g.o(.text)
    TIM6_IRQHandler                          0x080004b7   Thumb Code     0  startup_mm32f3277g.o(.text)
    TIM7_IRQHandler                          0x080004b7   Thumb Code     0  startup_mm32f3277g.o(.text)
    TIM8_BRK_IRQHandler                      0x080004b7   Thumb Code     0  startup_mm32f3277g.o(.text)
    TIM8_CC_IRQHandler                       0x080004b7   Thumb Code     0  startup_mm32f3277g.o(.text)
    TIM8_TRG_COM_IRQHandler                  0x080004b7   Thumb Code     0  startup_mm32f3277g.o(.text)
    TIM8_UP_IRQHandler                       0x080004b7   Thumb Code     0  startup_mm32f3277g.o(.text)
    UART1_IRQHandler                         0x080004b7   Thumb Code     0  startup_mm32f3277g.o(.text)
    UART2_IRQHandler                         0x080004b7   Thumb Code     0  startup_mm32f3277g.o(.text)
    UART3_IRQHandler                         0x080004b7   Thumb Code     0  startup_mm32f3277g.o(.text)
    UART4_IRQHandler                         0x080004b7   Thumb Code     0  startup_mm32f3277g.o(.text)
    UART5_IRQHandler                         0x080004b7   Thumb Code     0  startup_mm32f3277g.o(.text)
    UART6_IRQHandler                         0x080004b7   Thumb Code     0  startup_mm32f3277g.o(.text)
    UART7_IRQHandler                         0x080004b7   Thumb Code     0  startup_mm32f3277g.o(.text)
    UART8_IRQHandler                         0x080004b7   Thumb Code     0  startup_mm32f3277g.o(.text)
    WWDG_IRQHandler                          0x080004b7   Thumb Code     0  startup_mm32f3277g.o(.text)
    __aeabi_memclr4                          0x080004c1   Thumb Code     0  rt_memclr_w.o(.text)
    __aeabi_memclr8                          0x080004c1   Thumb Code     0  rt_memclr_w.o(.text)
    __rt_memclr_w                            0x080004c1   Thumb Code    78  rt_memclr_w.o(.text)
    _memset_w                                0x080004c5   Thumb Code     0  rt_memclr_w.o(.text)
    exit                                     0x0800050f   Thumb Code    18  exit.o(.text)
    __I$use$semihosting                      0x08000521   Thumb Code     0  use_no_semi.o(.text)
    __use_no_semihosting_swi                 0x08000521   Thumb Code     2  use_no_semi.o(.text)
    __semihosting_library_function           0x08000523   Thumb Code     0  indicate_semi.o(.text)
    _sys_exit                                0x08000525   Thumb Code     8  sys_exit.o(.text)
    CLOCK_BootToHSE96MHz                     0x08000531   Thumb Code   128  drv_sysclk.o(.text.CLOCK_BootToHSE96MHz)
    Drv_SysTick_Config                       0x080005b1   Thumb Code    66  drv_systick.o(.text.Drv_SysTick_Config)
    Drv_USB_Init                             0x080005f5   Thumb Code   104  drv_usb.o(.text.Drv_USB_Init)
    HAL_GetSysClockFreq                      0x0800065d   Thumb Code    12  drv_sysclk.o(.text.HAL_GetSysClockFreq)
    OTG_FS_IRQHandler                        0x0800068d   Thumb Code   118  drv_usb.o(.text.OTG_FS_IRQHandler)
    RCC_EnableAHB2Periphs                    0x08000705   Thumb Code    24  hal_rcc.o(.text.RCC_EnableAHB2Periphs)
    SysTick_Handler                          0x08000749   Thumb Code    16  drv_systick.o(.text.SysTick_Handler)
    SystemInit                               0x08000759   Thumb Code     2  system_mm32f3277g.o(.text.SystemInit)
    USB_BufDesp_GetPacketSize                0x0800075d   Thumb Code     8  hal_usb.o(.text.USB_BufDesp_GetPacketSize)
    USB_BufDesp_GetTokenPid                  0x08000765   Thumb Code     8  hal_usb.o(.text.USB_BufDesp_GetTokenPid)
    USB_BufDesp_Reset                        0x0800076d   Thumb Code    12  hal_usb.o(.text.USB_BufDesp_Reset)
    USB_BufDesp_Xfer                         0x08000779   Thumb Code    52  hal_usb.o(.text.USB_BufDesp_Xfer)
    USB_ClearInterruptStatus                 0x080007ad   Thumb Code    12  hal_usb.o(.text.USB_ClearInterruptStatus)
    USB_Enable                               0x080007b9   Thumb Code    16  hal_usb.o(.text.USB_Enable)
    USB_EnableEndPoint                       0x080007c9   Thumb Code   110  hal_usb.o(.text.USB_EnableEndPoint)
    USB_EnableEndPointStall                  0x08000839   Thumb Code   140  hal_usb.o(.text.USB_EnableEndPointStall)
    USB_EnableInterrupts                     0x080008c5   Thumb Code    20  hal_usb.o(.text.USB_EnableInterrupts)
    USB_EnableOddEvenReset                   0x080008d9   Thumb Code    18  hal_usb.o(.text.USB_EnableOddEvenReset)
    USB_EnableSuspend                        0x080008ed   Thumb Code    18  hal_usb.o(.text.USB_EnableSuspend)
    USB_GetBufDesp                           0x08000901   Thumb Code    24  hal_usb.o(.text.USB_GetBufDesp)
    USB_GetBufDespOddEven                    0x08000919   Thumb Code    10  hal_usb.o(.text.USB_GetBufDespOddEven)
    USB_GetBufDespTableAddr                  0x08000925   Thumb Code    30  hal_usb.o(.text.USB_GetBufDespTableAddr)
    USB_GetEndPointIndex                     0x08000945   Thumb Code    10  hal_usb.o(.text.USB_GetEndPointIndex)
    USB_GetInterruptStatus                   0x08000951   Thumb Code    12  hal_usb.o(.text.USB_GetInterruptStatus)
    USB_InitDevice                           0x0800095d   Thumb Code    38  hal_usb.o(.text.USB_InitDevice)
    USB_SetBufDespTableAddr                  0x08000985   Thumb Code    26  hal_usb.o(.text.USB_SetBufDespTableAddr)
    USB_SetDeviceAddr                        0x080009a1   Thumb Code    14  hal_usb.o(.text.USB_SetDeviceAddr)
    app_usb_reset_handler                    0x08000a01   Thumb Code   126  drv_usb.o(.text.app_usb_reset_handler)
    app_usb_setup_handler                    0x08000a81   Thumb Code   464  drv_usb.o(.text.app_usb_setup_handler)
    app_usb_tokdne_handler                   0x08000c51   Thumb Code   146  drv_usb.o(.text.app_usb_tokdne_handler)
    main                                     0x08000ce5   Thumb Code    14  main.o(.text.main)
    usb_conf_desc                            0x08000cf4   Data          34  drv_usb.o(.rodata.usb_conf_desc)
    usb_dev_desc                             0x08000d18   Data          18  drv_usb.o(.rodata.usb_dev_desc)
    usb_rpt_desc                             0x08000d2c   Data          52  drv_usb.o(.rodata.usb_rpt_desc)
    usb_str_desc                             0x08000d60   Data          22  drv_usb.o(.rodata.usb_str_desc)
    Region$$Table$$Base                      0x08000d78   Number         0  anon$$obj.o(Region$$Table)
    Region$$Table$$Limit                     0x08000d98   Number         0  anon$$obj.o(Region$$Table)
    Image$$ARM_LIB_HEAP$$ZI$$Base            0x20000604   Number         0  anon$$obj.o ABSOLUTE
    Image$$ARM_LIB_HEAP$$ZI$$Limit           0x20000a04   Number         0  anon$$obj.o ABSOLUTE
    Image$$ARM_LIB_STACK$$ZI$$Limit          0x20020000   Number         0  anon$$obj.o ABSOLUTE



==============================================================================

Memory Map of the image

  Image Entry point : 0x08000401

  Load Region LR_m_text (Base: 0x08000000, Size: 0x00001000, Max: 0x00080000, ABSOLUTE)

    Execution Region VECTOR_ROM (Exec base: 0x08000000, Load base: 0x08000000, Size: 0x00000190, Max: 0x00000400, ABSOLUTE)

    Exec Addr    Load Addr    Size         Type   Attr      Idx    E Section Name        Object

    0x08000000   0x08000000   0x00000190   Data   RO          103    RESET               startup_mm32f3277g.o


    Execution Region ER_m_text (Exec base: 0x08000400, Load base: 0x08000400, Size: 0x00000998, Max: 0x0007fc00, ABSOLUTE, FIXED)

    Exec Addr    Load Addr    Size         Type   Attr      Idx    E Section Name        Object

    0x08000400   0x08000400   0x00000008   Code   RO          912  * !!!main             c_w.l(__main.o)
    0x08000408   0x08000408   0x00000034   Code   RO         1088    !!!scatter          c_w.l(__scatter.o)
    0x0800043c   0x0800043c   0x0000001a   Code   RO         1090    !!handler_copy      c_w.l(__scatter_copy.o)
    0x08000456   0x08000456   0x00000002   PAD
    0x08000458   0x08000458   0x0000001c   Code   RO         1092    !!handler_zi        c_w.l(__scatter_zi.o)
    0x08000474   0x08000474   0x00000002   Code   RO          944    .ARM.Collect$$libinit$$00000000  c_w.l(libinit.o)
    0x08000476   0x08000476   0x00000000   Code   RO          955    .ARM.Collect$$libinit$$00000002  c_w.l(libinit2.o)
    0x08000476   0x08000476   0x00000000   Code   RO          957    .ARM.Collect$$libinit$$00000004  c_w.l(libinit2.o)
    0x08000476   0x08000476   0x00000000   Code   RO          960    .ARM.Collect$$libinit$$0000000A  c_w.l(libinit2.o)
    0x08000476   0x08000476   0x00000000   Code   RO          962    .ARM.Collect$$libinit$$0000000C  c_w.l(libinit2.o)
    0x08000476   0x08000476   0x00000000   Code   RO          964    .ARM.Collect$$libinit$$0000000E  c_w.l(libinit2.o)
    0x08000476   0x08000476   0x00000000   Code   RO          967    .ARM.Collect$$libinit$$00000011  c_w.l(libinit2.o)
    0x08000476   0x08000476   0x00000000   Code   RO          969    .ARM.Collect$$libinit$$00000013  c_w.l(libinit2.o)
    0x08000476   0x08000476   0x00000000   Code   RO          971    .ARM.Collect$$libinit$$00000015  c_w.l(libinit2.o)
    0x08000476   0x08000476   0x00000000   Code   RO          973    .ARM.Collect$$libinit$$00000017  c_w.l(libinit2.o)
    0x08000476   0x08000476   0x00000000   Code   RO          975    .ARM.Collect$$libinit$$00000019  c_w.l(libinit2.o)
    0x08000476   0x08000476   0x00000000   Code   RO          977    .ARM.Collect$$libinit$$0000001B  c_w.l(libinit2.o)
    0x08000476   0x08000476   0x00000000   Code   RO          979    .ARM.Collect$$libinit$$0000001D  c_w.l(libinit2.o)
    0x08000476   0x08000476   0x00000000   Code   RO          981    .ARM.Collect$$libinit$$0000001F  c_w.l(libinit2.o)
    0x08000476   0x08000476   0x00000000   Code   RO          983    .ARM.Collect$$libinit$$00000021  c_w.l(libinit2.o)
    0x08000476   0x08000476   0x00000000   Code   RO          985    .ARM.Collect$$libinit$$00000023  c_w.l(libinit2.o)
    0x08000476   0x08000476   0x00000000   Code   RO          987    .ARM.Collect$$libinit$$00000025  c_w.l(libinit2.o)
    0x08000476   0x08000476   0x00000000   Code   RO          991    .ARM.Collect$$libinit$$0000002C  c_w.l(libinit2.o)
    0x08000476   0x08000476   0x00000000   Code   RO          993    .ARM.Collect$$libinit$$0000002E  c_w.l(libinit2.o)
    0x08000476   0x08000476   0x00000000   Code   RO          995    .ARM.Collect$$libinit$$00000030  c_w.l(libinit2.o)
    0x08000476   0x08000476   0x00000000   Code   RO          997    .ARM.Collect$$libinit$$00000032  c_w.l(libinit2.o)
    0x08000476   0x08000476   0x00000002   Code   RO          998    .ARM.Collect$$libinit$$00000033  c_w.l(libinit2.o)
    0x08000478   0x08000478   0x00000002   Code   RO         1027    .ARM.Collect$$libshutdown$$00000000  c_w.l(libshutdown.o)
    0x0800047a   0x0800047a   0x00000000   Code   RO         1039    .ARM.Collect$$libshutdown$$00000002  c_w.l(libshutdown2.o)
    0x0800047a   0x0800047a   0x00000000   Code   RO         1041    .ARM.Collect$$libshutdown$$00000004  c_w.l(libshutdown2.o)
    0x0800047a   0x0800047a   0x00000000   Code   RO         1044    .ARM.Collect$$libshutdown$$00000007  c_w.l(libshutdown2.o)
    0x0800047a   0x0800047a   0x00000000   Code   RO         1047    .ARM.Collect$$libshutdown$$0000000A  c_w.l(libshutdown2.o)
    0x0800047a   0x0800047a   0x00000000   Code   RO         1049    .ARM.Collect$$libshutdown$$0000000C  c_w.l(libshutdown2.o)
    0x0800047a   0x0800047a   0x00000000   Code   RO         1052    .ARM.Collect$$libshutdown$$0000000F  c_w.l(libshutdown2.o)
    0x0800047a   0x0800047a   0x00000002   Code   RO         1053    .ARM.Collect$$libshutdown$$00000010  c_w.l(libshutdown2.o)
    0x0800047c   0x0800047c   0x00000000   Code   RO          914    .ARM.Collect$$rtentry$$00000000  c_w.l(__rtentry.o)
    0x0800047c   0x0800047c   0x00000000   Code   RO          916    .ARM.Collect$$rtentry$$00000002  c_w.l(__rtentry2.o)
    0x0800047c   0x0800047c   0x00000004   Code   RO          930    .ARM.Collect$$rtentry$$00000007  c_w.l(__rtentry7.o)
    0x08000480   0x08000480   0x00000000   Code   RO          918    .ARM.Collect$$rtentry$$00000009  c_w.l(__rtentry2.o)
    0x08000480   0x08000480   0x00000004   Code   RO          919    .ARM.Collect$$rtentry$$0000000A  c_w.l(__rtentry2.o)
    0x08000484   0x08000484   0x00000000   Code   RO          921    .ARM.Collect$$rtentry$$0000000C  c_w.l(__rtentry2.o)
    0x08000484   0x08000484   0x00000008   Code   RO          922    .ARM.Collect$$rtentry$$0000000D  c_w.l(__rtentry2.o)
    0x0800048c   0x0800048c   0x00000004   Code   RO          931    .ARM.Collect$$rtentry$$00002718  c_w.l(__rtentry7.o)
    0x08000490   0x08000490   0x00000002   Code   RO          952    .ARM.Collect$$rtexit$$00000000  c_w.l(rtexit.o)
    0x08000492   0x08000492   0x00000000   Code   RO         1007    .ARM.Collect$$rtexit$$00000002  c_w.l(rtexit2.o)
    0x08000492   0x08000492   0x00000004   Code   RO         1008    .ARM.Collect$$rtexit$$00000003  c_w.l(rtexit2.o)
    0x08000496   0x08000496   0x00000006   Code   RO         1009    .ARM.Collect$$rtexit$$00000004  c_w.l(rtexit2.o)
    0x0800049c   0x0800049c   0x00000024   Code   RO          104    .text               startup_mm32f3277g.o
    0x080004c0   0x080004c0   0x0000004e   Code   RO          910    .text               c_w.l(rt_memclr_w.o)
    0x0800050e   0x0800050e   0x00000012   Code   RO          937    .text               c_w.l(exit.o)
    0x08000520   0x08000520   0x00000002   Code   RO         1003    .text               c_w.l(use_no_semi.o)
    0x08000522   0x08000522   0x00000000   Code   RO         1005    .text               c_w.l(indicate_semi.o)
    0x08000522   0x08000522   0x00000002   PAD
    0x08000524   0x08000524   0x0000000c   Code   RO         1017    .text               c_w.l(sys_exit.o)
    0x08000530   0x08000530   0x00000080   Code   RO           31    .text.CLOCK_BootToHSE96MHz  drv_sysclk.o
    0x080005b0   0x080005b0   0x00000042   Code   RO           45    .text.Drv_SysTick_Config  drv_systick.o
    0x080005f2   0x080005f2   0x00000002   PAD
    0x080005f4   0x080005f4   0x00000068   Code   RO           70    .text.Drv_USB_Init  drv_usb.o
    0x0800065c   0x0800065c   0x0000000c   Code   RO           23    .text.HAL_GetSysClockFreq  drv_sysclk.o
    0x08000668   0x08000668   0x00000024   Code   RO           53    .text.NVIC_EncodePriority  drv_systick.o
    0x0800068c   0x0800068c   0x00000076   Code   RO           84    .text.OTG_FS_IRQHandler  drv_usb.o
    0x08000702   0x08000702   0x00000002   PAD
    0x08000704   0x08000704   0x00000018   Code   RO          400    .text.RCC_EnableAHB2Periphs  hal_rcc.o
    0x0800071c   0x0800071c   0x0000002a   Code   RO           47    .text.SysTick_Config  drv_systick.o
    0x08000746   0x08000746   0x00000002   PAD
    0x08000748   0x08000748   0x00000010   Code   RO           55    .text.SysTick_Handler  drv_systick.o
    0x08000758   0x08000758   0x00000002   Code   RO          111    .text.SystemInit    system_mm32f3277g.o
    0x0800075a   0x0800075a   0x00000002   PAD
    0x0800075c   0x0800075c   0x00000008   Code   RO          861    .text.USB_BufDesp_GetPacketSize  hal_usb.o
    0x08000764   0x08000764   0x00000008   Code   RO          857    .text.USB_BufDesp_GetTokenPid  hal_usb.o
    0x0800076c   0x0800076c   0x0000000c   Code   RO          863    .text.USB_BufDesp_Reset  hal_usb.o
    0x08000778   0x08000778   0x00000034   Code   RO          871    .text.USB_BufDesp_Xfer  hal_usb.o
    0x080007ac   0x080007ac   0x0000000c   Code   RO          831    .text.USB_ClearInterruptStatus  hal_usb.o
    0x080007b8   0x080007b8   0x00000010   Code   RO          823    .text.USB_Enable    hal_usb.o
    0x080007c8   0x080007c8   0x0000006e   Code   RO          875    .text.USB_EnableEndPoint  hal_usb.o
    0x08000836   0x08000836   0x00000002   PAD
    0x08000838   0x08000838   0x0000008c   Code   RO          877    .text.USB_EnableEndPointStall  hal_usb.o
    0x080008c4   0x080008c4   0x00000014   Code   RO          825    .text.USB_EnableInterrupts  hal_usb.o
    0x080008d8   0x080008d8   0x00000012   Code   RO          843    .text.USB_EnableOddEvenReset  hal_usb.o
    0x080008ea   0x080008ea   0x00000002   PAD
    0x080008ec   0x080008ec   0x00000012   Code   RO          847    .text.USB_EnableSuspend  hal_usb.o
    0x080008fe   0x080008fe   0x00000002   PAD
    0x08000900   0x08000900   0x00000018   Code   RO          855    .text.USB_GetBufDesp  hal_usb.o
    0x08000918   0x08000918   0x0000000a   Code   RO          869    .text.USB_GetBufDespOddEven  hal_usb.o
    0x08000922   0x08000922   0x00000002   PAD
    0x08000924   0x08000924   0x0000001e   Code   RO          851    .text.USB_GetBufDespTableAddr  hal_usb.o
    0x08000942   0x08000942   0x00000002   PAD
    0x08000944   0x08000944   0x0000000a   Code   RO          865    .text.USB_GetEndPointIndex  hal_usb.o
    0x0800094e   0x0800094e   0x00000002   PAD
    0x08000950   0x08000950   0x0000000c   Code   RO          829    .text.USB_GetInterruptStatus  hal_usb.o
    0x0800095c   0x0800095c   0x00000026   Code   RO          819    .text.USB_InitDevice  hal_usb.o
    0x08000982   0x08000982   0x00000002   PAD
    0x08000984   0x08000984   0x0000001a   Code   RO          817    .text.USB_SetBufDespTableAddr  hal_usb.o
    0x0800099e   0x0800099e   0x00000002   PAD
    0x080009a0   0x080009a0   0x0000000e   Code   RO          821    .text.USB_SetDeviceAddr  hal_usb.o
    0x080009ae   0x080009ae   0x00000002   PAD
    0x080009b0   0x080009b0   0x0000000e   Code   RO           72    .text.__NVIC_ClearPendingIRQ  drv_usb.o
    0x080009be   0x080009be   0x00000002   PAD
    0x080009c0   0x080009c0   0x0000000e   Code   RO           76    .text.__NVIC_EnableIRQ  drv_usb.o
    0x080009ce   0x080009ce   0x00000002   PAD
    0x080009d0   0x080009d0   0x00000010   Code   RO           49    .text.__NVIC_GetPriorityGrouping  drv_systick.o
    0x080009e0   0x080009e0   0x0000000e   Code   RO           51    .text.__NVIC_SetPriority  drv_systick.o
    0x080009ee   0x080009ee   0x00000002   PAD
    0x080009f0   0x080009f0   0x0000000e   Code   RO           74    .text.__NVIC_SetPriority  drv_usb.o
    0x080009fe   0x080009fe   0x00000002   PAD
    0x08000a00   0x08000a00   0x0000007e   Code   RO           82    .text.app_usb_reset_handler  drv_usb.o
    0x08000a7e   0x08000a7e   0x00000002   PAD
    0x08000a80   0x08000a80   0x000001d0   Code   RO           78    .text.app_usb_setup_handler  drv_usb.o
    0x08000c50   0x08000c50   0x00000092   Code   RO           80    .text.app_usb_tokdne_handler  drv_usb.o
    0x08000ce2   0x08000ce2   0x00000002   PAD
    0x08000ce4   0x08000ce4   0x0000000e   Code   RO            4    .text.main          main.o
    0x08000cf2   0x08000cf2   0x00000002   PAD
    0x08000cf4   0x08000cf4   0x00000022   Data   RO           87    .rodata.usb_conf_desc  drv_usb.o
    0x08000d16   0x08000d16   0x00000002   PAD
    0x08000d18   0x08000d18   0x00000012   Data   RO           86    .rodata.usb_dev_desc  drv_usb.o
    0x08000d2a   0x08000d2a   0x00000002   PAD
    0x08000d2c   0x08000d2c   0x00000034   Data   RO           90    .rodata.usb_rpt_desc  drv_usb.o
    0x08000d60   0x08000d60   0x00000016   Data   RO           89    .rodata.usb_str_desc  drv_usb.o
    0x08000d76   0x08000d76   0x00000002   PAD
    0x08000d78   0x08000d78   0x00000020   Data   RO         1087    Region$$Table       anon$$obj.o


    Execution Region RW_m_data (Exec base: 0x20000000, Load base: 0x08000e00, Size: 0x00000604, Max: 0x0001f800, ABSOLUTE)

    Exec Addr    Load Addr    Size         Type   Attr      Idx    E Section Name        Object

    0x20000000   0x08000e00   0x00000004   Data   RW           33    .data.SystemClockFreq  drv_sysclk.o
    0x20000004   0x08000e04   0x000001fc   PAD
    0x20000200        -       0x00000008   Zero   RW           95    .bss.app_usb_bd_oddeven  drv_usb.o
    0x20000208        -       0x00000001   Zero   RW           94    .bss.app_usb_device_addr  drv_usb.o
    0x20000209        -       0x00000008   Zero   RW           92    .bss.app_usb_setup_buffer  drv_usb.o
    0x20000211   0x08000e04   0x00000003   PAD
    0x20000214        -       0x00000040   Zero   RW           93    .bss.app_usb_xfer_buffer  drv_usb.o
    0x20000254   0x08000e04   0x000001ac   PAD
    0x20000400        -       0x00000200   Zero   RW           91    .bss.usb_bd_tbl     drv_usb.o
    0x20000600        -       0x00000004   Zero   RW           61    .bss.uwTick         drv_systick.o


    Execution Region ARM_LIB_HEAP (Exec base: 0x20000604, Load base: 0x08001000, Size: 0x00000400, Max: 0x00000400, ABSOLUTE)

    Exec Addr    Load Addr    Size         Type   Attr      Idx    E Section Name        Object

    0x20000604        -       0x00000400   Zero   RW            1    ARM_LIB_HEAP.bss    anon$$obj.o


    Execution Region ARM_LIB_STACK (Exec base: 0x2001fc00, Load base: 0x08001000, Size: 0x00000400, Max: 0x00000400, ABSOLUTE)

    Exec Addr    Load Addr    Size         Type   Attr      Idx    E Section Name        Object

    0x2001fc00        -       0x00000400   Zero   RW            2    ARM_LIB_STACK.bss   anon$$obj.o


==============================================================================

Image component sizes


      Code (inc. data)   RO Data    RW Data    ZI Data      Debug   Object Name

       140          0          0          4          0       3650   drv_sysclk.o
       190          0          0          0          4       4848   drv_systick.o
      1000         38        126          0        593       7147   drv_usb.o
        24          0          0          0          0       3152   hal_rcc.o
       578          4          0          0          0       8856   hal_usb.o
        14          0          0          0          0        368   main.o
        36          8        400          0          0        824   startup_mm32f3277g.o
         2          0          0          0          0        379   system_mm32f3277g.o

    ----------------------------------------------------------------------
      2024         50        564          4       3584      29224   Object Totals
         0          0         32          0       2048          0   (incl. Generated)
        40          0          6          0        939          0   (incl. Padding)

    ----------------------------------------------------------------------

      Code (inc. data)   RO Data    RW Data    ZI Data      Debug   Library Member Name

         8          0          0          0          0         68   __main.o
         0          0          0          0          0          0   __rtentry.o
        12          0          0          0          0          0   __rtentry2.o
         8          4          0          0          0          0   __rtentry7.o
        52          8          0          0          0          0   __scatter.o
        26          0          0          0          0          0   __scatter_copy.o
        28          0          0          0          0          0   __scatter_zi.o
        18          0          0          0          0         80   exit.o
         0          0          0          0          0          0   indicate_semi.o
         2          0          0          0          0          0   libinit.o
         2          0          0          0          0          0   libinit2.o
         2          0          0          0          0          0   libshutdown.o
         2          0          0          0          0          0   libshutdown2.o
        78          0          0          0          0         80   rt_memclr_w.o
         2          0          0          0          0          0   rtexit.o
        10          0          0          0          0          0   rtexit2.o
        12          4          0          0          0         68   sys_exit.o
         2          0          0          0          0         68   use_no_semi.o

    ----------------------------------------------------------------------
       268         16          0          0          0        364   Library Totals
         4          0          0          0          0          0   (incl. Padding)

    ----------------------------------------------------------------------

      Code (inc. data)   RO Data    RW Data    ZI Data      Debug   Library Name

       264         16          0          0          0        364   c_w.l

    ----------------------------------------------------------------------
       268         16          0          0          0        364   Library Totals

    ----------------------------------------------------------------------

==============================================================================


      Code (inc. data)   RO Data    RW Data    ZI Data      Debug   

      2292         66        564          4       3584      29488   Grand Totals
      2292         66        564          4       3584      29488   ELF Image Totals
      2292         66        564          4          0          0   ROM Totals

==============================================================================

    Total RO  Size (Code + RO Data)                 2856 (   2.79kB)
    Total RW  Size (RW Data + ZI Data)              3588 (   3.50kB)
    Total ROM Size (Code + RO Data + RW Data)       2860 (   2.79kB)

==============================================================================

