:020000040800F2
:10000000000002209D040008A5040008A7040008C1
:10001000A9040008AB040008AD04000800000000BB
:10002000000000000000000000000000AF04000815
:10003000B104000800000000B3040008A107000894
:10004000B7040008B7040008B7040008B7040008A4
:10005000B7040008B7040008B7040008B704000894
:10006000B7040008B7040008B7040008B704000884
:10007000B7040008B7040008B7040008B704000874
:10008000B7040008B7040008B7040008B704000864
:1000900000000000B704000800000000B7040008DA
:1000A000B7040008B7040008B7040008B704000844
:1000B000B7040008B7040008B7040008B704000834
:1000C00000000000B704000800000000B7040008AA
:1000D000B7040008B7040008B7040008B704000814
:1000E000B7040008B7040008B7040008B704000804
:1000F000B7040008B7040008B7040008B7040008F4
:1001000000000000B7040008B7040008B7040008A6
:10011000B7040008B7040008B7040008B7040008D3
:10012000B7040008B7040008B7040008B7040008C3
:10013000B7040008B7040008000000000000000039
:10014000B70400080000000000000000510700088C
:10015000000000000000000000000000B7040008DC
:10016000000000000000000000000000000000008F
:10017000000000000000000000000000000000007F
:100180000000000000000000B7040008B7040008E9
:10019000000000000000000000000000000000005F
:1001A000000000000000000000000000000000004F
:1001B000000000000000000000000000000000003F
:1001C000000000000000000000000000000000002F
:1004000000F002F800F03AF80AA090E8000C8244EC
:100410008344AAF10107DA4501D100F02FF8AFF2C9
:10042000090EBAE80F0013F0010F18BFFB1A43F0D2
:10043000010318476C2800008C280000103A24BFE4
:1004400078C878C1FAD8520724BF30C830C144BF39
:1004500004680C607047000000230024002500267B
:10046000103A28BF78C1FBD8520728BF30C148BF17
:100470000B6070471FB51FBD10B510BDDFF80CD065
:10048000FFF7F8FF01F098FA00F0D7F8000002201B
:1004900003B4FFF7F1FF03BC00F0DAF80648804729
:1004A00006480047FEE7FEE7FEE7FEE7FEE7FEE759
:1004B000FEE7FEE7FEE7FEE7B107000801040008DB
:1004C00010B5431C02E010F8011B71B18107FAD18D
:1004D0004FF0013202C88C1A8C4314EAC211F9D0D1
:1004E000C01A0A0603D0C01E10BDC01A10BD0A04EF
:1004F00001D0801E10BD0902FCD0401E10BD032A91
:1005000040F2308010F0030C00F0158011F8013B30
:10051000BCF1020F624498BF11F801CB00F8013B17
:1005200038BF11F8013BA2F1040298BF00F801CBDB
:1005300038BF00F8013B11F0030300F04C80083A8B
:10054000C0F0088051F8043B083A51F804CBA0E809
:100550000810F5E7121D5CBF51F8043B40F8043B5E
:10056000AFF30080D20724BF11F8013B11F801CB93
:1005700048BF11F8012B24BF00F8013B00F801CB64
:1005800048BF00F8012B70474FF0000200B513463A
:1005900094469646203922BFA0E80C50A0E80C50A3
:1005A000B1F12001BFF4F7AF090728BFA0E80C5054
:1005B00048BF0CC05DF804EB890028BF40F8042B4D
:1005C00008BF704748BF20F8022B11F0804F18BFBA
:1005D00000F8012B704710B5203AC0F00B80B1E84D
:1005E0001850A0E81850B1E81850A0E81850203A68
:1005F000BFF4F5AF5FEA027C24BFB1E81850A0E871
:10060000185044BF18C918C0BDE810405FEA827C8A
:1006100024BF51F8043B40F8043B08BF7047D207A1
:1006200028BF31F8023B48BF11F8012B28BF20F842
:10063000023B48BF00F8012B704710B50446AFF3EA
:1006400000802046BDE81040FFF722BF7047000041
:1006500001491820ABBEFEE72600020041F200006F
:10066000C4F20200016B012341F08051016347F2A3
:100670000001C4F200010A6863F38F320A60016866
:1006800041F48031016000BF01688903FCD540F26C
:100690001D11C0F20F018164016841F08071016099
:1006A00001688901FCD5816A132241F400518162FD
:1006B00042F20001C4F202010A6042F20041C0F2BB
:1006C000407141604168022262F30101416000BF54
:1006D000416801F00C010829FAD1704780B582B059
:1006E0000020019000F01CF80090009844F6D351CF
:1006F000C1F26201A0FB0101880900F03BF818B1CA
:100700004FF0FF3002B080BD00F0A0FA01900198D8
:1007100000F00CF800F0A2FA002002B080BD00004A
:1007200040F20000C2F200000068704700F00700CD
:1007300080F00701032928BF03214FF0FF3204385E
:1007400002FA01F138BF0020C94301FA00F07047F6
:1007500080B5002001F07CF880BD0000002941F246
:100760002401C4F202010A680CBF22EA000010430F
:100770000860704770B501380024B4EB106F1CBFDF
:10078000012070BD4EF21005CEF200056860072012
:10079000072600F063FA2046AC602E6070BD0000B2
:1007A00040F60C10C2F20000016801310160704790
:1007B000704700004068704740886FF39F20704783
:1007C0000068C0F3830070470078C00970470000DC
:1007D000017801F0C30108310170704790F900C041
:1007E000BCF1000F0ED442600CF03F0242EA8111CE
:1007F00042886FF39F2302F47C421A4441F0800147
:10080000428001700020BCF1FF3FC8BF012070474B
:10081000F0B581B04FF0A040012100F0DBF84FF0BF
:10082000A0400021002400F0D5F84FF0A0400021A6
:1008300000F03AF94FF0A04021460522002300F0D5
:1008400041F80134102CF5D14FF0A04000210122D5
:100850000123012700F036F840F60404C2F2000438
:1008600020464FF48071FFF78FFE40F2006540F69E
:1008700004164FF040104021C2F20005C2F20006FB
:10088000C4E90001C4E902012846012132460823D7
:10089000FFF7A4FF05F10800012132460823FFF706
:1008A0009DFFE77301B0F0BDD0F884201140C0F87F
:1008B00080107047D0F8942022F001021144C0F853
:1008C00094107047B0B50C4693B1511E032988BFF0
:1008D000B0BD0FF20602DFE801F01A02022300EBBE
:1008E0008400D0F8C01041F01D01C0F8C010B0BDA8
:1008F00000EB84010025C1F8C05000F091F800EB36
:100900004411620185508D600D618D61B0BD00EBB9
:100910008400D0F8C01041F00D01C0F8C010B0BD87
:1009200000EB8400D0F8C01041F01C01C0F8C010EA
:10093000B0BD0000F0B581B01746054600F070F874
:10094000103005F1C00100221DE000BF23F00203BA
:1009500041F82230057A10F8103C10F8086C047841
:1009600005F07B05057204F07B0506F07B0603F0BD
:100970007B03057000F8086C013200F8103C102A67
:1009800000F120001AD051F82230002FDED043F0C1
:10099000020341F82230067810F8085C047A10F857
:1009A000103C46F0040644F00404067045F00406CA
:1009B000047200F8086C43F00403DDE701B0F0BDF9
:1009C000002AD0F884200CBF22EA01011143C0F8AC
:1009D00084107047D0F8942022F0020261F34102A3
:1009E000C0F8942070470000D0F8942022F0200234
:1009F00061F34512C0F894207047000010B504461A
:100A000000F00EF8D4F890106FF0060202EA4101EF
:100A1000084410BDD0F89000C0F38000704700007B
:100A2000D0F89C1040F2FF1209029143D0F8B02098
:100A3000D0F8B40041EA024141EA0060704700008A
:100A4000D0F89000C0F3031070470000D0F8801079
:100A5000D0F8840008407047D0F89000C0F3C00080
:100A600070470000B0B50D460988C90518BFB0BD74
:100A70000021044600F018F82968204600F006F826
:100A800020460121FFF716FFB0BD0000FE2202EA5A
:100A90001122C0F89C20C1F30742090EC0F8B02013
:100AA000C0F8B41070470000D0F8982061F3060237
:100AB000C0F89820704700002DE9F04F85B00490F1
:100AC0004FF0A040FFF79AFF0646FFF779FE03902C
:100AD0003046FFF771FE02903046FFF76BFE83460B
:100AE0004FF0A040FFF7ACFF05464FF0A040FFF7E6
:100AF000B3FF07464FF0A040FFF78CFF0446304697
:100B0000FFF766FE40F60400C2F2000000EB051A93
:100B100084F001090AEBC7084FF0A040082188F8CB
:100B20000690FFF7C1FE03980D282CD10498594672
:100B30000122012600F038FE40F20060C2F20000FF
:100B400000EB451040F6041500EB0717C2F2000554
:100B500007EBC90001212A460823FFF73FFE07EBF8
:100B6000C40001212A460823FFF738FE4FF0A040B9
:100B70000021FFF739FF40F60400C2F20000C673FF
:100B800005B0BDE8F08F424632F8040F029BDC4608
:100B9000C01ADDF81090B8F802B084B2E4B13AF8A7
:100BA00037108B4218D18C4210802FD9401A83B253
:100BB0000CEB41028B4288BF084698F8071083B2BD
:100BC0003046FFF70BFE98F8070080F0010088F828
:100BD000070005B0BDE8F08F5BB940F60006C2F231
:100BE0000006317829B14FF0A040FFF75DFF0020EB
:100BF0003070012F08BF45F08005ABEB04020127E0
:100C0000E9B248460023009700F0E0FD05B0BDE8DA
:100C1000F08F00004EF28820CEF200000821016023
:100C2000704700004EF28810CEF2000008210160EB
:100C3000BFF34F8FBFF36F8F704700004EF2081065
:100C4000CEF2000008210160704700004EF60C5003
:100C5000CEF200000068C0F3022070474EF6235128
:100C60004001CEF200010870704700004EF2434090
:100C7000CEF200006021017070470000B0B540F274
:100C80004031C2F200018A89CB890446D51AAAB242
:100C9000402A91F9002028BF4025B2F1FF3F01DD35
:100CA00000210CE0280409D0896840F29430AAB2EF
:100CB000C2F20000FFF723FC802100E0802140F217
:100CC0009432C2F20002ABB22046002B08BF1A4693
:100CD00001F0D0FEB0BD000082B28A42A0EB01005C
:100CE000FAD210467047000080B5D0F800C0C38823
:100CF000084603FB02C211461A46FFF700FC80BDFE
:100D0000B0B582B00023B3EB920F054606D0900831
:100D1000013851F8043B04042B60F9D112F00302AE
:100D200006D00020019001A8FFF7E9FB0198286098
:100D300002B0B0BD2DE9F04F81B0054680888946EC
:100D4000C11AE8882F680A9C561A00FB037B01FB36
:100D500000F8012C06FB00FA11D0002C4ED189B20C
:100D600091424ED21FFA88F7484659463A46FFF755
:100D7000C6FB296809EB07001FFA8AF244E089B232
:100D8000914246D24FF6FC7008EA000448465946A4
:100D90002246FFF7B5FF18F0030743D0C7F104065A
:100DA0001FFA8AF0B0424FF00000E8460BEB040156
:100DB00038BF5646009040463A46FFF7A0FBA8F1E0
:100DC000010000BF013F390600F10100FAD1296896
:100DD0003206AAEB060A06D011F8012B013E3306B3
:100DE00000F8012FF8D10098C9F800005FEA0A4026
:100DF00004D01FFA8AF24846FFF782FF01B0BDE82F
:100E0000F08F424348465946FFF779FB01B0BDE8F1
:100E1000F08F504382B248465946FFF771FF01B048
:100E2000BDE8F08F29685FEA0A40E2D1E6E70000FA
:100E300080B5D0F800C0C38803FB02C01A46FFF794
:100E40005EFB80BD80B582B00023B3EB920F0AD069
:100E50004FEA920ED1F800C0AEF1010E5FEA0E43E8
:100E600040F804CBF6D112F0030204D009680191D6
:100E700001A9FFF744FB02B080BD00002DE9F04F4F
:100E800081B0054680888946C11AE8882F680A9C87
:100E9000561A00FB037B01FB00F8012C06FB00FA4D
:100EA00011D0002C4BD189B291424BD21FFA88F756
:100EB000584649463A46FFF722FB286809EB0701E6
:100EC0001FFA8AF241E089B2914243D24FF6FC7098
:100ED00008EA0004584649462246FFF7B3FF18F0D7
:100EE000030740D0C7F104061FFA8AF1B142D9F8CE
:100EF0000010E8460BEB040038BF5646009141460F
:100F00003A46FFF7FCFAA8F1010100BF013F38069D
:100F100001F10101FAD128683206AAEB060A06D0CF
:100F200011F8012F013E330600F8012BF8D15FEADA
:100F30000A4104D01FFA8AF24946FFF783FF01B045
:100F4000BDE8F08F424358464946FFF7D8FA01B052
:100F5000BDE8F08F504382B258464946FFF772FF12
:100F600001B0BDE8F08F28685FEA0A41E2D1E6E708
:100F700080B50078012818BF80BD002000F052FC29
:100F800080BD000080B50078012818BF80BD00201A
:100F900000F052FC80BD0000B0B500F11005044621
:100FA000284601F0D9F8402816D3E178002001F056
:100FB00051FC002808BFB0BD284601F0CDF8E1780B
:100FC000402806D304F1B8020020402301F052FD6E
:100FD000B0BD002001F0F8FCB0BD000080B509787C
:100FE000802222EA01010022002301F043FD80BD9E
:100FF00010B58288044600F0CBF8208210BD0000B6
:10100000891A3CBF4089091A88B27047401AB0FA61
:1010100080F040097047000010B50446FFF7F0FF6C
:10102000A188401AB0FA80F0400910BD2DE9F041C6
:101030001446884611461A461E460546FFF7E0FF4D
:10104000A9880746884204D928462146FFF7D0FFE1
:10105000AF8847B12846314600F098FC0246284642
:101060004146FFF741FE002F18BF01273846BDE873
:10107000F08100002DE9F04182B0089F14468846B7
:1010800019463A461D460646FFF7BAFFB188884220
:1010900005D930462946FFF7ABFF378AB08878B1CB
:1010A000099DA04238BF04463046394600F06EFC28
:1010B00003463046414622460095FFF73BFE00E0DE
:1010C0000024204602B0BDE8F0810000B0B582B037
:1010D0009C460446C389008ACDF804C0009020468F
:1010E000FFF7C8FF218A054620462A4600F044F84B
:1010F00001462846218202B0B0BD000010B58488A8
:10110000FFF77EFF201A80B210BD00002DE9F041EC
:1011100082B08AB114460546C689028A007A98468A
:101120000F4658B1A888A0420FD8E988231A03FBBC
:1011300001771646044608E0002418E028463146A8
:10114000FFF7DCFFA04298BF04462846314600F076
:101150001DFC0346284639462246CDF80080FFF79D
:101160008DFE28463146224600F006F8E8812046EA
:1011700002B0BDE8F08100000A4493B28B4202D372
:1011800081898B4201D94089024490B270470000A6
:101190008A1A93B28B4202D881898B4201D9408945
:1011A000121A90B27047000010B590B001F004F828
:1011B00048B16C46204601F08BF80146204601F00C
:1011C0008FF801F095F810B010BD0000B0B513789D
:1011D00003F06003202B1FD140F20823C2F200036A
:1011E00095881C78A54217D15578203D032D13D83A
:1011F000DFE805F002141D2189B102294FF001003A
:101200002AD140F20001C0F2000129B3991D00204B
:10121000AFF300800120B0BD0020B0BDB9BB0633E4
:1012200011461A46072301F07BF80120B0BD0229C0
:1012300018D091B12BE081B102294FF001000BD100
:1012400040F20001C0F20001002908BFB0BD518882
:101250000020AFF300800120B0BD114601F04EF830
:101260000120B0BD558803F1240005F0010484F08D
:1012700001011D7100F076FF40F20000C0F2000095
:1012800028B1C5F3400200202146AFF300800120C1
:10129000B0BD0000B0B582B040F20824C2F2000434
:1012A00020464FF49C71FFF76FF9FF2060714FF4F7
:1012B000E130C4F80600002008216081217300900D
:1012C00004F1100004F1380140220123012500F04F
:1012D000FDFE04F1240004F1780140220123009571
:1012E00000F0F4FE02B0B0BD2DE9F04F83B04B79B1
:1012F000022B1BD1834688794FF0000802284FF05B
:10130000000414D140F20829C2F2000999F802A0A1
:10131000BAF1000F08BFC8460DD04EF6F050CEF21D
:1013200000000068C0073FD1002400E00024A0B204
:1013300003B0BDE8F08F8878174689F800000846AA
:1013400000F0A4FE064600F0A7FE092F4FF00904A6
:1013500011D324280FD10924304600F091FE044413
:101360003046A5B200F092FE064600F095FEBD4262
:1013700001D82428F0D0052822D15846314601F062
:10138000AFFA074698B1B0780121BAF1000F08BF53
:1013900009F101010870304600F072FE0444304645
:1013A00000F074FE06460AE000BE0024BFE74EF6D9
:1013B000F050CEF200000068C00700D000BE4FB36E
:1013C000304600F069FE042820D170790A281DD12A
:1013D000304600F055FE0746304600F057FE014605
:1013E0000320BAF1000F08BF09F103004FF0020615
:1013F00008BF09F102060090584602220223019616
:1014000001F082FB40B1E01900F10E044046FFF705
:10141000C3FD8CE700248AE74EF6F050CEF20000C0
:101420000068C00701D1002481E700BE00247EE7E8
:1014300010B540F20824C2F20004002020712060A0
:1014400004F1100000F032FE2434204600F02EFE9D
:101450002046012100F086FE10BD00002DE9F04F6E
:1014600081B040F20824C2F200040F46E178A2786D
:10147000C91BD21BB1FA81F1B2FA82F249095209B1
:1014800051EA020B55D00546E0789846B8428BF0F9
:10149000010A28D1009504F1100604F1B8051FFADD
:1014A00088F23046294600F081FE40F20000C0F28A
:1014B000000028B16079FF2818BFB8F1000F44D1AF
:1014C00040F20000C0F2000030B1304600F026FECD
:1014D00010B95046AFF3008040F20820C2F200007D
:1014E000FFF75AFD009DA078B8422AD140F20000D3
:1014F000C0F2000010B15046AFF30080504600F03B
:101500009FFEF0B904F1240000F0FCFD5FEA886161
:1015100017D1B8F1000F14D098B9A178284601F07E
:1015200099F970B1A17828460022002301F0A2FAAF
:1015300007E04EF6F050CEF200000068C00700D081
:1015400000BE584601B0BDE8F08FC14605E000BFBF
:10155000B9F1010905F10105B2D060792978884215
:10156000F6D1304600F0DAFD0028F1D1617950461D
:10157000AFF30080ECE7000080B501F00F0001211F
:1015800081404FF0A0400022FFF7D4F980BD000059
:1015900080B5CA78182303EAC20240F20233887881
:1015A00082F01002C0F2014323FA02FC082303EA8E
:1015B00010138A8800F00F0140F60400C2F2000008
:1015C0006FF3DF2200EB0110C2525FFA8CF24FF092
:1015D000A0400123FFF776F9012080BD80B501F01E
:1015E0000F00012181404FF0A0400122FFF7A2F936
:1015F00080BD00002DE9F04F83B0029240F6040256
:1016000001F00F00C2F20002C90902EB001202EB66
:10161000C104A04632F831A018F8072FA77901922B
:1016200040F20062C2F2000202EB401000EB01192E
:1016300009EBC70B58461E46FFF7C6F8054638BBF0
:10164000B2456680A68017D287F00100019F029CF8
:1016500009EBC00087F0010104EB0A025346B6EB28
:101660004A0F98BFF31AFFF7B9F858463946224691
:101670005346FFF7B3F80BE0DDE901125846334655
:10168000FFF7ACF898F8000080F0010088F800003F
:1016900085F0010003B0BDE8F08F000080B584B094
:1016A0008DF8040001208DF805000020CDE902002E
:1016B0008DF8081001A8114600F012F804B080BDA2
:1016C00080B584B08DF8040000208DF80510CDE9B8
:1016D000020001A8114600F003F804B080BD00002C
:1016E00080B584B0034640780A460238032832D8D1
:1016F000DFE800F0023A141F40F2D430C2F20000DA
:101700000178C90737D0017801F0FE010170017836
:1017100001F0FD0101700021417011E040F2D43070
:10172000C2F200000178C90725D0017841F0040118
:1017300009E040F2D430C2F200000178C9071AD0A3
:10174000017801F0FB01017040F2FC30C2F20000B0
:101750000068194624E040F2FC30C2F20000006844
:10176000194600F081F906E040F2D430C2F20000E0
:101770000178490701D404B080BD017801F0FB0174
:101780000170187800218DF8040005208DF80500FF
:1017900040F2FC30C2F2000000680391029101A9FE
:1017A00000F062F904B080BD80B584B08DF804000B
:1017B00006208DF8050048680968CDE9021001A8E7
:1017C0001146FFF78DFF04B080BD000080B584B0E6
:1017D000DDF818C08DF8040007208DF80500002002
:1017E00002908DF8081001A8614603928DF8093027
:1017F000FFF776FF04B080BD80B582B040F2006094
:10180000C2F20000019001A94FF0A040FFF72AF9B1
:101810004FF0A0400121FFF74DF8FFF7FBF902B0B0
:1018200080BD000080B5FFF7FDF94FF0A040BD215D
:101830000022FFF7C5F880BD80B54FF0A040BD2164
:101840000122FFF7BDF8FFF711FAFFF7F7F980BDA6
:1018500070B505464FF0A040FFF7F8F804460007C2
:101860000CD4E0070ED1E0061AD4A00624D420063A
:101870002ED460074ED400F03FFE70BD2846FFF71F
:101880001BF970BD4FF0A0400121FFF70DF8FEF7E6
:10189000BFFF284600210122FFF700FFE006E4D544
:1018A0004FF0A0401021FEF7FFFF2846042101223F
:1018B000FFF706FFA006DAD54FF0A0402021FEF783
:1018C000F3FF284605210122FFF7FAFE2006D0D5B6
:1018D0004FF0A04001210022FFF72CF840F20065F4
:1018E00040F60416C2F20005C2F2000628460121A5
:1018F00032460823FEF772FF05F108000121324647
:101900000823FEF76BFF4FF0A0408021FEF7CCFFCD
:101910006007B0D54FF0A0400421FEF7C5FF00F0EE
:10192000EBFD70BD80B540F60000C2F20000017012
:101930000020802100220023FFF75CFE80BD000014
:1019400040F20001C0F2000189B140F20421C2F26C
:1019500000010978814209D940F20021C2F2000158
:10196000096800EB400001EBC0007047401A010617
:101970001CBF00207047C0B242F6004100EB40009F
:10198000C0F6000101EBC0007047000080B58288FE
:1019900008461146FFF7A0F980BD000070B50D465E
:1019A000C96806460846144600F0B8FEEB683046A3
:1019B00000212246984770BDFEF750FEFEF78EFECE
:1019C00080200121FEF7CAFE00F088FEFFF7ECFB45
:1019D000FCE700002DE9F047002908BFBDE8F087CB
:1019E00040F2D43990468A4606460025C2F20009E4
:1019F0000BE000BF304600F041FB2C18304600F0F1
:101A000041FBA5B25545064612D2304600F042FBD6
:101A10000528EFD1B778384600F044FB0446384635
:101A200000F03CFB09EB4401084480F81380E1E737
:101A3000BDE8F08780B540F20400C2F20000043037
:101A400000F034FB80BD0000B0B50C460546FFF742
:101A50008FFA281D214600F069FB04462846FFF74F
:101A600091FA2046B0BD000070B515460E460446FA
:101A700012B92046FFF77CFA201D314600F076FBB4
:101A8000002D054601D02DB170BD2046FFF77AFA32
:101A9000002DF9D14EF6F050CEF200000068C007DC
:101AA00008BF70BD00BE70BD2DE9F04383B0054690
:101AB00000200C4600F032FE2678C6F341100228C2
:101AC0000AD0032819D14EF6F050CEF2000000687B
:101AD000C00733D100203CE140F20000C0F200001A
:101AE00078B340F20000C0F2000000F017FE284674
:101AF00000212246AFF300802BE106F01F000228F0
:101B000021D0012842D000285CD106F060002028B6
:101B100061D120790F2800F28F8040F2D431C2F2D7
:101B200000010844C078FFF70BFF002800F09980FF
:101B3000014628462246FFF731FF0AE100BE002099
:101B400007E1002005E1A0885FFA80F9484600F02F
:101B5000A9FA05285DD20746484600F09FFA40F2F0
:101B6000D438C2F2000808EB47010844C07CFFF7F4
:101B7000E7FE16F0600F074660D0002F51D02846D0
:101B800039462246FFF70AFF00214CE020790F2852
:101B90004DD840F2D431C2F200010844C078FFF7BA
:101BA000CFFE00285BD0014628462246FFF7F6FE0E
:101BB000002840F0CD80207810F0600F00F0B48055
:101BC0000020C6E04EF6F050CEF200000068C007DC
:101BD0002FD10020BDE06078092850D8DFE800F060
:101BE00005434F814F8D9D4F586240F2D430C2F271
:101BF000000000780222C0F3401102EA900008447D
:101C0000ADF8080002AA28462146022300F088FB0E
:101C10009EE04EF6F050CEF200000068C00700D003
:101C200000BE00210020002918BF012091E0002003
:101C30008FE000BE00208CE000208AE0607803285E
:101C400018BF01283ED16188002940F09C800128FE
:101C500040F095802846494600F020FE93E00020A1
:101C600077E0002075E06088012877D140F2D43019
:101C7000C2F20000017801F0F701017064E04EF655
:101C8000F050CEF200000068C00769D1002060E08B
:101C900040F2D430C2F2000040780DF10B028DF812
:101CA0000B004BE040F2D437C2F20007A6787878F8
:101CB00030B92EB12846314600F0E6F8002877D03A
:101CC0007E7041E000284ED10020494600F0BEFE63
:101CD000ADF8040001AA28462146022300F020FBAB
:101CE00062E06088012848D140F2D430C2F200009E
:101CF000017841F00801017026E0204600F014FD53
:101D0000A1782846FFF70EFE40F2D430C2F2000060
:101D1000017841F0020101701AE02846214600F0E6
:101D200053F8A8B9002014E060780B280CD00A28DA
:101D30003CD100200DF107028DF80700284621460E
:101D4000012300F0EDFA03E02846214600F0D6FA20
:101D5000012000F0010003B0BDE8F0830020F8E7A7
:101D600000BE0020F5E74EF6F050CEF2000000680D
:101D7000C0073FF456AF00BE53E70020E9E728460E
:101D8000494600F041FE7FB1284639462246FFF71A
:101D900005FE002000F0C2FC98F81E00C00703D129
:101DA0002846214600F0AAFA01213CE70020D0E7AE
:101DB0004EF6F050CEF200000068C00701D10020BE
:101DC000C7E700BE0020C4E7B0B54A8805464FF01B
:101DD000FF300C4600EB12210E294FF0000088BFA7
:101DE000B0BDDFE801F008111F3535273535353531
:101DF00035353535360000F0DDFA024628462146F5
:101E0000122300F08DFAB0BDD0B200F0CDFA38BB8D
:101E10004EF6F050CEF200000068C0072ED0002031
:101E200000BEB0BDA188D0B200F0CAFA30B30378CA
:101E3000024617E040F20000C0F20000F0B1AFF33C
:101E40000080A0B1037802462846214600F068FAD7
:101E5000B0BD40F20000C0F2000078B1AFF30080E6
:101E6000438802462846214600F05AFAB0BD4EF695
:101E7000F050CEF200000068C00701D10020B0BDD4
:101E8000002000BEB0BD00002DE9F04F83B08246B7
:101E9000481EC0B200F088FA002800F0D4804178D3
:101EA000022940F0D08040F2D437C2F20007C17955
:101EB0003A78102303EA510302F0CF021A44202398
:101EC00003EA510111443970418800F109064418B0
:101ED000019406E00120DDE901454646002840F076
:101EE000C6803546A64280F0BA80284600F0D2F877
:101EF0000B2805D1284600F0C5F80646A94602E0A1
:101F00004FF000092E46304600F0C4F8042875D181
:101F1000A01B87B24FF0000BB04602955FFA8BF51D
:101F20002846FFF70DFD8368504631463A469847EC
:101F300070B10446092828BFA7420BD24EF6F050D4
:101F4000CEF200000068C00748D000BE46E000BFE7
:101F5000002044E0B07840F2D433C2F200031844C9
:101F600010F8031FFF2908D04EF6F050CEF2000003
:101F70000068C00732D000BE30E0B9F1000F80F831
:101F800000B01AD099F80200B17888421DD199F8B2
:101F900004007179884218D199F8030002280CD303
:101FA0004FF0FF30B178C21C0144194481F805B0EC
:101FB00099F8031001308A42F4D3404621462A465C
:101FC000FFF708FDA044102009E04EF6F050CEF2D5
:101FD00000000068C00701D000BE00BF0120B8B9F2
:101FE00040F20420C2F200000BF1010B00785FFA0E
:101FF0008BF18842BFF492AF0DE000BF4EF6F05077
:10200000CEF200000068C00718D1012066E700BFCB
:1020100010287FF460AF40F20420C2F20000007884
:102020005FFA8BF188420CD24EF6F050CEF20000EF
:102030000068C0073FF44EAF00BE4BE700BE012072
:102040004CE7002047E74EF6F050CEF20000006863
:10205000C00700D000BE002003B0BDE8F08F40F202
:102060000000C0F20000002818BFAFF3008000207D
:10207000A54228BF012003B0BDE8F08F007870476B
:1020800000787047017808447047000001780844E0
:10209000704700004078704740787047C00970472B
:1020A000C009704700F07F00704700000146002023
:1020B000C88108828A884FF0FF3303EB4203A0EB0C
:1020C000420201208B814A8170470000B2F5004F27
:1020D00011D801604FF0FF3101EB4201DDF800C083
:1020E00081810021C380A1EB4203828080F808C077
:1020F0004381C18101820020B2F5004F98BF0120C9
:102100007047000010B5C189028A0446FEF778FFC7
:10211000A188884228BF084610BD000080B5C2894A
:10212000018A1046FEF772FF80BD0000B0B5C2897B
:10213000038A0446FEF77AFF218A054620462A468E
:10214000FFF71AF8014628462182B0BD80B500236A
:10215000FEF7BCFF80BD000080B5C189028AFEF792
:10216000CDFF80BD024601201172704770B5C58950
:10217000028A0E4629460446FEF74EFF08B1207A31
:1021800088B120462946FFF701FC02462046314629
:10219000FEF74EFE2046294601220125FEF7ECFF00
:1021A000E081284670BD002070BD000080B500238E
:1021B000FEF7ACFF80BD000080B5002000F002F803
:1021C00080BD000080B540F20821C2F200014FF44A
:1021D0009C7200FB02101030FFF794FF80BD0000DE
:1021E000B0B540F20823C2F200034FF49C7500FB27
:1021F000053492B204F11000FFF7A8FF054620460F
:10220000FEF7CAFE2846B0BD70B5044640F208206D
:10221000C2F200004FF49C7304FB030092B200F181
:1022200024063046FFF7C2FF05463046FFF76AFF37
:10223000402802D3204600F003F8284670BD000075
:102240002DE9F041054600F045F990B300F04CF956
:1022500078BB40F20828C2F200084FF49C7005FBDE
:10226000008707F124063046FFF74CFF08B317F844
:10227000021F0020002400F0EDFA08B34FF49C7018
:1022800005FB0080402200F1F80530462946FFF7A3
:102290005DFF397880B1044600202A46234600F0CD
:1022A000E9FB68B94EF6F050CEF200000068C007B6
:1022B00009D10020BDE8F0810020002400F084FB5B
:1022C0002046BDE8F081002000BEBDE8F08100009E
:1022D00080B5014600204022FFF782FF80BD00004C
:1022E00080B50A4601460020FFF78EFF80BD000042
:1022F00080B50020FFF7A4FF80BD000080B5D1F8B5
:1023000000C04B6840F24032C2F200024FF0000EB3
:10231000C2E900C3C2E902EEFEF760FE80BD000024
:10232000B0B5D1F800C0D1F804E040F24035C2F2B7
:102330000005C5E900CE0024EC81CC88AA609C424F
:1023400098BF2346AB815CB1E2B9DBB14EF6F050E9
:10235000CEF200000068C00712D0002000BEB0BD61
:10236000FEF73CFE00281CBF0120B0BD4EF6F05029
:10237000CEF200000068C00704BF0020B0BD00BE60
:102380000020B0BDFEF77AFC00281CBF0120B0BDC4
:102390004EF6F050CEF200000068C00704BF0020E7
:1023A000B0BD002000BEB0BD42F62A40C0F600001D
:1023B0007047000042F61840C0F600007047000069
:1023C00010B538B3042884BF002010BD40F21C01B2
:1023D000C2F2000151F820402046FEF771F810F0DB
:1023E000E00F18BF1F2001060DD040F25432C2F298
:1023F0000002C1B2023A631E13F8014F0139948002
:1024000002F10202F8D1C0B2022101EB400040F417
:1024100040710CE040F21C00C2F20000006840F283
:1024200054310088C2F2000148804FF4417140F2FB
:102430005430C2F20000018010BD0000F0B581B040
:1024400040F2FB35C2F200052978C9BB044640F2D0
:10245000D430C2F200002721FEF796F8FFF7EAFA1F
:1024600040F2000240F2FC3040F20401C0F20002EF
:10247000C2F20000C2F20001016052B140F2042039
:10248000C2F20000AFF3008040F20021C2F200016E
:10249000086040F204270026C2F20007F0B2FFF7FE
:1024A0004FFA0068804701363878F1B28842F5D299
:1024B0002046FFF7A1F92046FFF7BEF9012028705A
:1024C000012001B0F0BD000040F2FB30C2F200007C
:1024D0000078704740F2D430C2F200004078002803
:1024E00018BF01207047000040F2D430C2F2000053
:1024F0000078C0F3800070472DE9F04F83B000F002
:10250000FDF8002800F0E78040F2FC34C2F200043D
:1025100020686D462946FFF797FA002800F0DB8017
:102520004EF6F05840F2D43940F2042BCEF20008B7
:1025300005F1040AC2F20009C2F2000B07E000BF75
:1025400020682946FFF780FA002800F0C4809DF833
:102550000100013807281BD8DFE800F0040D203205
:10256000414E7FA59DF8000000F01AFB9DF8040085
:1025700089F80200E4E79DF8000000F011FB40F24A
:102580000000C0F200000028DAD0AFF30080D7E7E7
:10259000D8F80000C007D3D000BED1E7002605E080
:1025A00001369BF80000F1B28842C9D3F0B2FFF7C0
:1025B000C7F941690029F3D09DF800008847EFE78B
:1025C00099F80000C107BBD040F20001C0F2000141
:1025D0000029B5D0C0F3C000AFF30080B0E799F890
:1025E0000000C007ACD040F20000C0F2000000289C
:1025F000A6D0AFF30080A3E799F80000514640F061
:10260000010089F8000099F81D0000F0FE0089F82B
:102610001D0099F81D0000F0FB0089F81D0099F8D5
:102620001E0000F0FE0089F81E0099F81E0000F060
:10263000FB0089F81E009DF80000FFF735FA00281E
:102640007FF47EAF9DF800000021FEF7C7FF9DF8E4
:1026500000008021FEF7C2FF72E79DF8046030465B
:10266000FFF720FD07463046FFF718FD09EB47014D
:102670000844417F01F0FE014177417F01F0FB01F9
:102680004177BFB1C07CFFF75BF90746D8B125465B
:102690003C699DF800009DF80520029B3146A0474B
:1026A0002C466D4614E0019900293FF449AF029889
:1026B000884745E79DF800009DF80520029B3146BC
:1026C00000F03EF83CE7D8F80000C00700D000BE9C
:1026D000002F7FF435AF03B0BDE8F08F80B5002048
:1026E000FFF7ACFE40B94EF6F051CEF2000109689A
:1026F000C90708BF80BD00BE80BD000080B5FFF7E0
:10270000E3FE80BD40F24030C2F200000021C0E98B
:102710000011C0E9021101617047000040F2403130
:10272000C2F20001086170470168406840F240321F
:10273000C2F200020023C2E90010C2E9023370476E
:1027400070B5044608461D46FFF7AAFC40F2403625
:10275000C2F2000696F90010CAB2B0EBD21F28D11F
:10276000002908D4B06860B340F29431C2F200018D
:102770002A46FDF7C4FEF089B16828442944402D5B
:10278000F081B1601FD3F18880B281421BD0204616
:10279000FEF774FA00281CBF012070BD4EF6F05001
:1027A000CEF200000068C00704BF002070BD00BE6C
:1027B00007E04DB34EF6F050CEF200000068C007BF
:1027C00039D1002070BD33693BB140F24032C2F2D2
:1027D000000220460121984790B340F24031C2F2F6
:1027E00000012046FEF7FAFB00281CBF012070BD47
:1027F0004EF6F050CEF200000068C00704BF002083
:1028000070BD002000BE70BD40F20000C0F20000AC
:1028100030B140F24031C2F200012046AFF30080F7
:1028200033695BB140F24032C2F20002204602211D
:102830009847012070BD002000BE70BD012070BD12
:1028400020460021FEF7CAFE20468021FEF7C6FE84
:10285000012070BDB0B508460C46FFF723FC0546C5
:102860002046FFF71BFC40F2D431C2F2000101EB1D
:102870004501014411F81D0FC00706D10878012257
:1028800000F0040082EA900000E00020002808BF69
:10289000B0BD0A7842F004020A70B0BDF0B581B054
:1028A000054608460C46FFF7FDFB06462046FFF7A7
:1028B000F5FB074628462146FEF75EFE40F2D4307F
:1028C000C2F2000000EB46003844417F01F0FD01F8
:1028D0004177417F01F0FE01417701B0F0BD00007A
:1028E00070B50C468E88897805460846FFF7DAFBF6
:1028F000052821D2E0786FF3DF2600F003000328DB
:1029000026D002283AD001281DD140F2D430C2F29C
:102910000000807840F2FF31022808BF4FF4806148
:10292000B14241D24EF6F050CEF200000068C0072E
:1029300009D0002000BE70BD4EF6F050CEF200006F
:102940000068C00701D1002070BD002000BE70BD2E
:1029500040F2D430C2F2000080784021022808BF43
:102960004FF48061B1421FD24EF6F050CEF200001B
:102970000068C007E7D0002000BE70BD40F2D43030
:10298000C2F20000807802280CD1B6F5007F0BD08F
:102990004EF6F050CEF200000068C007D3D0002001
:1029A00000BE70BD412E04D228462146FEF7F0FD40
:1029B00070BD4EF6F050CEF200000068C007C2D0E5
:1029C000002000BE70BD0000B0B508460C46FFF701
:1029D00069FB05462046FFF761FB40F2D431C2F2A5
:1029E000000101EB4501014411F81D0FC00706BFAE
:1029F0000878C0F380000020002808BFB0BD0A7826
:102A000002F0FB020A70B0BDF0B581B00546084681
:102A10000C46FFF747FB06462046FFF73FFB0746FD
:102A200028462146FEF7DAFD40F2D430C2F200001B
:102A300000EB46003844417F41F002014177417F7D
:102A400041F00101417701B0F0BD0000B0B508468A
:102A50000C46FFF727FB05462046FFF71FFB40F219
:102A6000D431C2F2000101EB45010844407FC0F3BC
:102A70004000B0BD2DE9F04107460846984615468E
:102A80000E46FFF70FFB04463046FFF707FB40F208
:102A9000D431C2F2000101EB44010C1814F81D0FEF
:102AA000C00722D12078314640F00100207038461E
:102AB0002A464346FEF79EFD00281CBF0120BDE8C4
:102AC000F081207800F0FE002070207800F0FB00FC
:102AD00020704EF6F050CEF200000068C00704BF30
:102AE0000020BDE8F08100BE06E04EF6F050CEF2C8
:102AF00000000068C00702D10020BDE8F08100207E
:102B000000BEBDE8F08100002DE9F04F81B0002A41
:102B1000154618BF01253ED04EF6F05B9946144687
:102B20000F4680464FF0000ACEF2000B7878052859
:102B30001AD1F87800F00300484515D140463946CF
:102B4000FFF7CEFE08B3BE783046FFF7A7FA01289C
:102B5000DDE90A0108BF084606703846FFF792FA19
:102B60000746012006E000BFDBF80000C00700D0E8
:102B700000BE002078B10AF1010AA2454FF000051D
:102B800038BF01255445D1D105E0DBF80000C0076E
:102B9000EFD000BEEDE70120A84301B0BDE8F08F03
:102BA00070B540F2D435C2F200050446284627210C
:102BB000FDF7EAFC4FF0FF30A5F81B00C5F8170041
:102BC000C5F81300C5F80F00C5F80B00C5F80700DD
:102BD000C5F80300FFF796FD40F204260025C2F277
:102BE000000600BFE8B2FEF7ABFE4168204688470A
:102BF00001353078E9B28842F4D270BD0904000092
:102C00009512000831140008E9120008CD110008DF
:102C10005D140008000000001201000200000040E6
:102C2000FECA014000010102030109024B0002013A
:102C3000008032080B0002020200000904000001BB
:102C400002020004052400200105240100010424DF
:102C5000020205240600010705810308001009048B
:102C60000100020A000000070502024000000705FB
:102C700083024000003132333435360054696E79B6
:102C80005553420054696E795553422043444300E2
:102C900054696E7955534220446576696365000036
:102CA000002E000800000020000200003C04000884
:102CB000003000080002002010070000580400083F
:102CC0000000000000000000000000000000000004
:102CD00000000000000000000000000000000000F4
:102CE00000000000000000000000000000000000E4
:102CF00000000000000000000000000000000000D4
:102D000000000000000000000000000000000000C3
:102D100000000000000000000000000000000000B3
:102D200000000000000000000000000000000000A3
:102D30000000000000000000000000000000000093
:102D40000000000000000000000000000000000083
:102D50000000000000000000000000000000000073
:102D60000000000000000000000000000000000063
:102D70000000000000000000000000000000000053
:102D80000000000000000000000000000000000043
:102D90000000000000000000000000000000000033
:102DA0000000000000000000000000000000000023
:102DB0000000000000000000000000000000000013
:102DC0000000000000000000000000000000000003
:102DD00000000000000000000000000000000000F3
:102DE00000000000000000000000000000000000E3
:102DF00000000000000000000000000000000000D3
:102E000000127A00010000000004002010000C00F5
:102E10000000E0FF1F00000000000000FC2B000885
:102E20007C2C0008902C0008752C0008842C0008CD
:102E30000000000000000000000000000000000092
:102E40000000000000000000000000000000000082
:102E50000000000000000000000000000000000072
:102E60000000000000000000000000000000000062
:102E70000000000000000000000000000000000052
:102E80000000000000000000000000000000000042
:102E90000000000000000000000000000000000032
:102EA0000000000000000000000000000000000022
:102EB0000000000000000000000000000000000012
:102EC0000000000000000000000000000000000002
:102ED00000000000000000000000000000000000F2
:102EE00000000000000000000000000000000000E2
:102EF00000000000000000000000000000000000D2
:102F000000000000000000000000000000000000C1
:102F100000000000000000000000000000000000B1
:102F200000000000000000000000000000000000A1
:102F30000000000000000000000000000000000091
:102F40000000000000000000000000000000000081
:102F50000000000000000000000000000000000071
:102F60000000000000000000000000000000000061
:102F70000000000000000000000000000000000051
:102F80000000000000000000000000000000000041
:102F90000000000000000000000000000000000031
:102FA0000000000000000000000000000000000021
:102FB0000000000000000000000000000000000011
:102FC0000000000000000000000000000000000001
:102FD00000000000000000000000000000000000F1
:102FE00000000000000000000000000000000000E1
:102FF00000000000000000000000000000000000D1
:0400000508000401EA
:00000001FF
